{
  "contractName": "BasicContract",
  "abi": [
    {
      "anonymous": false,
      "inputs": [
        {
          "indexed": false,
          "internalType": "string",
          "name": "message",
          "type": "string"
        },
        {
          "indexed": false,
          "internalType": "address",
          "name": "val",
          "type": "address"
        }
      ],
      "name": "AddrLog",
      "type": "event"
    },
    {
      "anonymous": false,
      "inputs": [
        {
          "indexed": false,
          "internalType": "string",
          "name": "message",
          "type": "string"
        },
        {
          "indexed": false,
          "internalType": "uint256",
          "name": "val",
          "type": "uint256"
        }
      ],
      "name": "IntLog",
      "type": "event"
    },
    {
      "anonymous": false,
      "inputs": [
        {
          "indexed": true,
          "internalType": "address",
          "name": "previousOwner",
          "type": "address"
        },
        {
          "indexed": true,
          "internalType": "address",
          "name": "newOwner",
          "type": "address"
        }
      ],
      "name": "OwnershipTransferred",
      "type": "event"
    },
    {
      "anonymous": false,
      "inputs": [
        {
          "indexed": false,
          "internalType": "string",
          "name": "message",
          "type": "string"
        },
        {
          "indexed": false,
          "internalType": "string",
          "name": "val",
          "type": "string"
        }
      ],
      "name": "StrLog",
      "type": "event"
    },
    {
      "inputs": [],
      "name": "owner",
      "outputs": [
        {
          "internalType": "address",
          "name": "",
          "type": "address"
        }
      ],
      "stateMutability": "view",
      "type": "function"
    },
    {
      "inputs": [],
      "name": "renounceOwnership",
      "outputs": [],
      "stateMutability": "nonpayable",
      "type": "function"
    },
    {
      "inputs": [
        {
          "internalType": "address",
          "name": "newOwner",
          "type": "address"
        }
      ],
      "name": "transferOwnership",
      "outputs": [],
      "stateMutability": "nonpayable",
      "type": "function"
    },
    {
      "inputs": [
        {
          "internalType": "address",
          "name": "_token",
          "type": "address"
        },
        {
          "internalType": "address",
          "name": "_address",
          "type": "address"
        }
      ],
      "name": "checkBalance",
      "outputs": [
        {
          "internalType": "uint256",
          "name": "",
          "type": "uint256"
        }
      ],
      "stateMutability": "view",
      "type": "function"
    },
    {
      "inputs": [
        {
          "internalType": "address",
          "name": "_token",
          "type": "address"
        },
        {
          "internalType": "address",
          "name": "_owner",
          "type": "address"
        },
        {
          "internalType": "address",
          "name": "_spender",
          "type": "address"
        }
      ],
      "name": "checkAllowance",
      "outputs": [
        {
          "internalType": "uint256",
          "name": "",
          "type": "uint256"
        }
      ],
      "stateMutability": "view",
      "type": "function"
    },
    {
      "inputs": [
        {
          "internalType": "address",
          "name": "_token",
          "type": "address"
        },
        {
          "internalType": "uint256",
          "name": "_amount",
          "type": "uint256"
        }
      ],
      "name": "transferBack",
      "outputs": [],
      "stateMutability": "nonpayable",
      "type": "function"
    }
  ],
  "bytecode": "0x608060405234801561001057600080fd5b50600080546001600160a01b031916339081178255604051909182917f8be0079c531659141344cd1fd0a4f28419497f9722a3daafe3b4186f6b6457e0908290a350610632806100616000396000f3fe608060405234801561001057600080fd5b50600436106100625760003560e01c8063715018a61461006757806377b76ec3146100715780638ca5f772146100975780638da5cb5b146100aa578063c8f2835f146100c3578063f2fde38b146100d6575b600080fd5b61006f6100e9565b005b61008461007f36600461049d565b610154565b6040519081526020015b60405180910390f35b6100846100a53660046104d0565b6101da565b6000546001600160a01b031660405161008e9190610513565b61006f6100d1366004610527565b610267565b61006f6100e4366004610551565b61039d565b6000546001600160a01b0316331461011c5760405162461bcd60e51b81526004016101139061056c565b60405180910390fd5b600080546040516001600160a01b03909116906000805160206105dd833981519152908390a3600080546001600160a01b0319169055565b6040516370a0823160e01b81526000906001600160a01b038416906370a0823190610183908590600401610513565b60206040518083038186803b15801561019b57600080fd5b505afa1580156101af573d6000803e3d6000fd5b505050506040513d601f19601f820116820180604052508101906101d391906105a1565b9392505050565b604051636eb1769f60e11b81526001600160a01b03838116600483015282811660248301526000919085169063dd62ed3e9060440160206040518083038186803b15801561022757600080fd5b505afa15801561023b573d6000803e3d6000fd5b505050506040513d601f19601f8201168201806040525081019061025f91906105a1565b949350505050565b6000546001600160a01b031633146102915760405162461bcd60e51b81526004016101139061056c565b60405163095ea7b360e01b8152306004820152602481018290526001600160a01b0383169063095ea7b390604401602060405180830381600087803b1580156102d957600080fd5b505af11580156102ed573d6000803e3d6000fd5b505050506040513d601f19601f8201168201806040525081019061031191906105ba565b506040516323b872dd60e01b8152306004820152336024820152604481018290526001600160a01b038316906323b872dd90606401602060405180830381600087803b15801561036057600080fd5b505af1158015610374573d6000803e3d6000fd5b505050506040513d601f19601f8201168201806040525081019061039891906105ba565b505050565b6000546001600160a01b031633146103c75760405162461bcd60e51b81526004016101139061056c565b6103d0816103d3565b50565b6001600160a01b0381166104385760405162461bcd60e51b815260206004820152602660248201527f4f776e61626c653a206e6577206f776e657220697320746865207a65726f206160448201526564647265737360d01b6064820152608401610113565b600080546040516001600160a01b03808516939216916000805160206105dd83398151915291a3600080546001600160a01b0319166001600160a01b0392909216919091179055565b80356001600160a01b038116811461049857600080fd5b919050565b600080604083850312156104b057600080fd5b6104b983610481565b91506104c760208401610481565b90509250929050565b6000806000606084860312156104e557600080fd5b6104ee84610481565b92506104fc60208501610481565b915061050a60408501610481565b90509250925092565b6001600160a01b0391909116815260200190565b6000806040838503121561053a57600080fd5b61054383610481565b946020939093013593505050565b60006020828403121561056357600080fd5b6101d382610481565b6020808252818101527f4f776e61626c653a2063616c6c6572206973206e6f7420746865206f776e6572604082015260600190565b6000602082840312156105b357600080fd5b5051919050565b6000602082840312156105cc57600080fd5b815180151581146101d357600080fdfe8be0079c531659141344cd1fd0a4f28419497f9722a3daafe3b4186f6b6457e0a26469706673582212207419c956d953ee5334cd9d142ae672bb77c0b0aa9c2a0eea6dfcf5be0ef3363764736f6c63430008090033",
  "immutableReferences": {},
  "source": "// SPDX-License-Identifier: MIT\npragma solidity >=0.8;\n\nimport \"../token/BEP20/IBEP20.sol\";\nimport \"../access/Ownable.sol\";\n\ncontract BasicContract is Ownable {\n    \n    event IntLog(string message, uint val);\n    event StrLog(string message, string val);\n    event AddrLog(string message, address val);\n    \n    function checkBalance(address _token, address _address) external view returns (uint) {\n        return IBEP20(_token).balanceOf(_address);\n    }\n    \n    function approveForContract(address _token, address _spender, uint _amount) private onlyOwner {\n        IBEP20(_token).approve(_spender, _amount);\n    }\n    \n    function checkAllowance(address _token, address _owner, address _spender) external view returns (uint) {\n        return IBEP20(_token).allowance(_owner, _spender);\n    }\n    \n    function transferBack(address _token, uint _amount) external onlyOwner {\n        IBEP20(_token).approve(address(this), _amount);\n        IBEP20(_token).transferFrom(address(this), msg.sender, _amount);\n    }\n\n}",
  "sourcePath": "/Users/andrew/Documents/Bitbucket/dofin-smart-contracts/contracts/utils/BasicContract.sol",
  "compiler": {
    "name": "solc",
    "version": "0.8.9+commit.e5eed63a.Emscripten.clang"
  },
  "schemaVersion": "3.4.3",
  "updatedAt": "2021-10-10T06:25:58.511Z",
  "devdoc": {
    "kind": "dev",
    "methods": {
      "owner()": {
        "details": "Returns the address of the current owner."
      },
      "renounceOwnership()": {
        "details": "Leaves the contract without owner. It will not be possible to call `onlyOwner` functions anymore. Can only be called by the current owner. NOTE: Renouncing ownership will leave the contract without an owner, thereby removing any functionality that is only available to the owner."
      },
      "transferOwnership(address)": {
        "details": "Transfers ownership of the contract to a new account (`newOwner`). Can only be called by the current owner."
      }
    },
    "version": 1
  },
  "userdoc": {
    "kind": "user",
    "methods": {},
    "version": 1
  }
}