{
  "contractName": "CashBox",
  "abi": [
    {
      "inputs": [
        {
          "internalType": "uint256[]",
          "name": "_uints",
          "type": "uint256[]"
        },
        {
          "internalType": "address[]",
          "name": "_addrs",
          "type": "address[]"
        },
        {
          "internalType": "address",
          "name": "_dofin",
          "type": "address"
        },
        {
          "internalType": "uint256",
          "name": "_deposit_limit",
          "type": "uint256"
        },
        {
          "internalType": "uint256",
          "name": "_add_funds_condition",
          "type": "uint256"
        }
      ],
      "stateMutability": "nonpayable",
      "type": "constructor"
    },
    {
      "anonymous": false,
      "inputs": [
        {
          "indexed": false,
          "internalType": "string",
          "name": "message",
          "type": "string"
        },
        {
          "indexed": false,
          "internalType": "address",
          "name": "val",
          "type": "address"
        }
      ],
      "name": "AddrLog",
      "type": "event"
    },
    {
      "anonymous": false,
      "inputs": [
        {
          "indexed": true,
          "internalType": "address",
          "name": "tokenOwner",
          "type": "address"
        },
        {
          "indexed": true,
          "internalType": "address",
          "name": "spender",
          "type": "address"
        },
        {
          "indexed": false,
          "internalType": "uint256",
          "name": "tokens",
          "type": "uint256"
        }
      ],
      "name": "Approval",
      "type": "event"
    },
    {
      "anonymous": false,
      "inputs": [
        {
          "indexed": false,
          "internalType": "string",
          "name": "message",
          "type": "string"
        },
        {
          "indexed": false,
          "internalType": "uint256",
          "name": "val",
          "type": "uint256"
        }
      ],
      "name": "IntLog",
      "type": "event"
    },
    {
      "anonymous": false,
      "inputs": [
        {
          "indexed": true,
          "internalType": "address",
          "name": "previousOwner",
          "type": "address"
        },
        {
          "indexed": true,
          "internalType": "address",
          "name": "newOwner",
          "type": "address"
        }
      ],
      "name": "OwnershipTransferred",
      "type": "event"
    },
    {
      "anonymous": false,
      "inputs": [
        {
          "indexed": false,
          "internalType": "string",
          "name": "message",
          "type": "string"
        },
        {
          "indexed": false,
          "internalType": "string",
          "name": "val",
          "type": "string"
        }
      ],
      "name": "StrLog",
      "type": "event"
    },
    {
      "anonymous": false,
      "inputs": [
        {
          "indexed": true,
          "internalType": "address",
          "name": "from",
          "type": "address"
        },
        {
          "indexed": true,
          "internalType": "address",
          "name": "to",
          "type": "address"
        },
        {
          "indexed": false,
          "internalType": "uint256",
          "name": "tokens",
          "type": "uint256"
        }
      ],
      "name": "Transfer",
      "type": "event"
    },
    {
      "inputs": [],
      "name": "activable",
      "outputs": [
        {
          "internalType": "bool",
          "name": "",
          "type": "bool"
        }
      ],
      "stateMutability": "view",
      "type": "function",
      "constant": true
    },
    {
      "inputs": [
        {
          "internalType": "address",
          "name": "_token",
          "type": "address"
        },
        {
          "internalType": "address",
          "name": "_owner",
          "type": "address"
        },
        {
          "internalType": "address",
          "name": "_spender",
          "type": "address"
        }
      ],
      "name": "checkAllowance",
      "outputs": [
        {
          "internalType": "uint256",
          "name": "",
          "type": "uint256"
        }
      ],
      "stateMutability": "view",
      "type": "function",
      "constant": true
    },
    {
      "inputs": [
        {
          "internalType": "address",
          "name": "_token",
          "type": "address"
        },
        {
          "internalType": "address",
          "name": "_address",
          "type": "address"
        }
      ],
      "name": "checkBalance",
      "outputs": [
        {
          "internalType": "uint256",
          "name": "",
          "type": "uint256"
        }
      ],
      "stateMutability": "view",
      "type": "function",
      "constant": true
    },
    {
      "inputs": [],
      "name": "decimals",
      "outputs": [
        {
          "internalType": "uint8",
          "name": "",
          "type": "uint8"
        }
      ],
      "stateMutability": "view",
      "type": "function",
      "constant": true
    },
    {
      "inputs": [],
      "name": "name",
      "outputs": [
        {
          "internalType": "string",
          "name": "",
          "type": "string"
        }
      ],
      "stateMutability": "view",
      "type": "function",
      "constant": true
    },
    {
      "inputs": [],
      "name": "owner",
      "outputs": [
        {
          "internalType": "address",
          "name": "",
          "type": "address"
        }
      ],
      "stateMutability": "view",
      "type": "function",
      "constant": true
    },
    {
      "inputs": [],
      "name": "renounceOwnership",
      "outputs": [],
      "stateMutability": "nonpayable",
      "type": "function"
    },
    {
      "inputs": [],
      "name": "symbol",
      "outputs": [
        {
          "internalType": "string",
          "name": "",
          "type": "string"
        }
      ],
      "stateMutability": "view",
      "type": "function",
      "constant": true
    },
    {
      "inputs": [
        {
          "internalType": "address",
          "name": "_token",
          "type": "address"
        },
        {
          "internalType": "uint256",
          "name": "_amount",
          "type": "uint256"
        }
      ],
      "name": "transferBack",
      "outputs": [],
      "stateMutability": "nonpayable",
      "type": "function"
    },
    {
      "inputs": [
        {
          "internalType": "address",
          "name": "newOwner",
          "type": "address"
        }
      ],
      "name": "transferOwnership",
      "outputs": [],
      "stateMutability": "nonpayable",
      "type": "function"
    },
    {
      "inputs": [
        {
          "internalType": "address[]",
          "name": "_config",
          "type": "address[]"
        }
      ],
      "name": "setConfig",
      "outputs": [],
      "stateMutability": "nonpayable",
      "type": "function"
    },
    {
      "inputs": [
        {
          "internalType": "address[]",
          "name": "_creamtokens",
          "type": "address[]"
        }
      ],
      "name": "setCreamTokens",
      "outputs": [],
      "stateMutability": "nonpayable",
      "type": "function"
    },
    {
      "inputs": [
        {
          "internalType": "address[]",
          "name": "_stablecoins",
          "type": "address[]"
        }
      ],
      "name": "setStableCoins",
      "outputs": [],
      "stateMutability": "nonpayable",
      "type": "function"
    },
    {
      "inputs": [
        {
          "internalType": "bool",
          "name": "_activable",
          "type": "bool"
        }
      ],
      "name": "setActivable",
      "outputs": [],
      "stateMutability": "nonpayable",
      "type": "function"
    },
    {
      "inputs": [],
      "name": "getPosition",
      "outputs": [
        {
          "components": [
            {
              "internalType": "uint256",
              "name": "pool_id",
              "type": "uint256"
            },
            {
              "internalType": "uint256",
              "name": "token_amount",
              "type": "uint256"
            },
            {
              "internalType": "uint256",
              "name": "token_a_amount",
              "type": "uint256"
            },
            {
              "internalType": "uint256",
              "name": "token_b_amount",
              "type": "uint256"
            },
            {
              "internalType": "uint256",
              "name": "lp_token_amount",
              "type": "uint256"
            },
            {
              "internalType": "uint256",
              "name": "crtoken_amount",
              "type": "uint256"
            },
            {
              "internalType": "uint256",
              "name": "supply_crtoken_amount",
              "type": "uint256"
            },
            {
              "internalType": "address",
              "name": "token",
              "type": "address"
            },
            {
              "internalType": "address",
              "name": "token_a",
              "type": "address"
            },
            {
              "internalType": "address",
              "name": "token_b",
              "type": "address"
            },
            {
              "internalType": "address",
              "name": "lp_token",
              "type": "address"
            },
            {
              "internalType": "address",
              "name": "supply_crtoken",
              "type": "address"
            },
            {
              "internalType": "address",
              "name": "borrowed_crtoken_a",
              "type": "address"
            },
            {
              "internalType": "address",
              "name": "borrowed_crtoken_b",
              "type": "address"
            },
            {
              "internalType": "uint256",
              "name": "max_amount_per_position",
              "type": "uint256"
            },
            {
              "internalType": "uint256",
              "name": "supply_funds_percentage",
              "type": "uint256"
            }
          ],
          "internalType": "struct HighLevelSystem.Position",
          "name": "",
          "type": "tuple"
        }
      ],
      "stateMutability": "view",
      "type": "function",
      "constant": true
    },
    {
      "inputs": [],
      "name": "reblanceWithRepay",
      "outputs": [],
      "stateMutability": "nonpayable",
      "type": "function"
    },
    {
      "inputs": [],
      "name": "reblanceWithoutRepay",
      "outputs": [],
      "stateMutability": "nonpayable",
      "type": "function"
    },
    {
      "inputs": [],
      "name": "reblance",
      "outputs": [],
      "stateMutability": "nonpayable",
      "type": "function"
    },
    {
      "inputs": [],
      "name": "checkAddNewFunds",
      "outputs": [],
      "stateMutability": "nonpayable",
      "type": "function"
    },
    {
      "inputs": [],
      "name": "checkEntry",
      "outputs": [],
      "stateMutability": "nonpayable",
      "type": "function"
    },
    {
      "inputs": [
        {
          "internalType": "uint256",
          "name": "_type",
          "type": "uint256"
        }
      ],
      "name": "exit",
      "outputs": [],
      "stateMutability": "nonpayable",
      "type": "function"
    },
    {
      "inputs": [],
      "name": "checkCurrentBorrowLimit",
      "outputs": [
        {
          "internalType": "uint256",
          "name": "",
          "type": "uint256"
        }
      ],
      "stateMutability": "nonpayable",
      "type": "function"
    },
    {
      "inputs": [],
      "name": "totalSupply",
      "outputs": [
        {
          "internalType": "uint256",
          "name": "",
          "type": "uint256"
        }
      ],
      "stateMutability": "view",
      "type": "function",
      "constant": true
    },
    {
      "inputs": [
        {
          "internalType": "address",
          "name": "account",
          "type": "address"
        }
      ],
      "name": "balanceOf",
      "outputs": [
        {
          "internalType": "uint256",
          "name": "",
          "type": "uint256"
        }
      ],
      "stateMutability": "view",
      "type": "function",
      "constant": true
    },
    {
      "inputs": [
        {
          "internalType": "address",
          "name": "recipient",
          "type": "address"
        },
        {
          "internalType": "uint256",
          "name": "amount",
          "type": "uint256"
        }
      ],
      "name": "transfer",
      "outputs": [
        {
          "internalType": "bool",
          "name": "",
          "type": "bool"
        }
      ],
      "stateMutability": "nonpayable",
      "type": "function"
    },
    {
      "inputs": [
        {
          "internalType": "address",
          "name": "spender",
          "type": "address"
        },
        {
          "internalType": "uint256",
          "name": "amount",
          "type": "uint256"
        }
      ],
      "name": "approve",
      "outputs": [
        {
          "internalType": "bool",
          "name": "",
          "type": "bool"
        }
      ],
      "stateMutability": "nonpayable",
      "type": "function"
    },
    {
      "inputs": [
        {
          "internalType": "address",
          "name": "owner",
          "type": "address"
        },
        {
          "internalType": "address",
          "name": "spender",
          "type": "address"
        }
      ],
      "name": "allowance",
      "outputs": [
        {
          "internalType": "uint256",
          "name": "",
          "type": "uint256"
        }
      ],
      "stateMutability": "view",
      "type": "function",
      "constant": true
    },
    {
      "inputs": [
        {
          "internalType": "address",
          "name": "owner",
          "type": "address"
        },
        {
          "internalType": "address",
          "name": "buyer",
          "type": "address"
        },
        {
          "internalType": "uint256",
          "name": "numTokens",
          "type": "uint256"
        }
      ],
      "name": "transferFrom",
      "outputs": [
        {
          "internalType": "bool",
          "name": "",
          "type": "bool"
        }
      ],
      "stateMutability": "nonpayable",
      "type": "function"
    },
    {
      "inputs": [],
      "name": "getTotalAssets",
      "outputs": [
        {
          "internalType": "uint256",
          "name": "",
          "type": "uint256"
        }
      ],
      "stateMutability": "view",
      "type": "function",
      "constant": true
    },
    {
      "inputs": [
        {
          "internalType": "address",
          "name": "_token",
          "type": "address"
        },
        {
          "internalType": "uint256",
          "name": "_deposit_amount",
          "type": "uint256"
        }
      ],
      "name": "deposit",
      "outputs": [
        {
          "internalType": "bool",
          "name": "",
          "type": "bool"
        }
      ],
      "stateMutability": "nonpayable",
      "type": "function"
    },
    {
      "inputs": [
        {
          "internalType": "uint256",
          "name": "_ptoken_amount",
          "type": "uint256"
        }
      ],
      "name": "getWithdrawAmount",
      "outputs": [
        {
          "internalType": "uint256",
          "name": "",
          "type": "uint256"
        }
      ],
      "stateMutability": "view",
      "type": "function",
      "constant": true
    },
    {
      "inputs": [
        {
          "internalType": "uint256",
          "name": "_withdraw_amount",
          "type": "uint256"
        }
      ],
      "name": "withdraw",
      "outputs": [
        {
          "internalType": "bool",
          "name": "",
          "type": "bool"
        }
      ],
      "stateMutability": "nonpayable",
      "type": "function"
    }
  ],
  "bytecode": "0x60806040523480156200001157600080fd5b50604051620034ee380380620034ee833981016040819052620000349162000463565b600080546001600160a01b031916339081178255604051909182917f8be0079c531659141344cd1fd0a4f28419497f9722a3daafe3b4186f6b6457e0908290a350604051806102000160405280866000815181106200009757620000976200054f565b6020026020010151815260200160008152602001600081526020016000815260200160008152602001600081526020016000815260200185600081518110620000e457620000e46200054f565b60200260200101516001600160a01b03168152602001856001815181106200011057620001106200054f565b60200260200101516001600160a01b03168152602001856002815181106200013c576200013c6200054f565b60200260200101516001600160a01b03168152602001856003815181106200016857620001686200054f565b60200260200101516001600160a01b03168152602001856004815181106200019457620001946200054f565b60200260200101516001600160a01b0316815260200185600581518110620001c057620001c06200054f565b60200260200101516001600160a01b0316815260200185600681518110620001ec57620001ec6200054f565b60200260200101516001600160a01b03168152602001866001815181106200021857620002186200054f565b60200260200101518152602001866002815181106200023b576200023b6200054f565b6020908102919091018101519091528151600f558181015160105560408201516011556060820151601255608082015160135560a082015160145560c082015160155560e0820151601680546001600160a01b03199081166001600160a01b039384161790915561010080850151601780548416918516919091179055610120850151601880548416918516919091179055610140850151601980548416918516919091179055610160850151601a80548416918516919091179055610180850151601b805484169185169190911790556101a0850151601c8054909316908416179091556101c0840151601d556101e090930151601e5581546001600160a81b0319169516909102939093176001179092556021555062000565915050565b634e487b7160e01b600052604160045260246000fd5b604051601f8201601f191681016001600160401b03811182821017156200039c576200039c6200035b565b604052919050565b60006001600160401b03821115620003c057620003c06200035b565b5060051b60200190565b80516001600160a01b0381168114620003e257600080fd5b919050565b600082601f830112620003f957600080fd5b81516020620004126200040c83620003a4565b62000371565b82815260059290921b840181019181810190868411156200043257600080fd5b8286015b8481101562000458576200044a81620003ca565b835291830191830162000436565b509695505050505050565b600080600080600060a086880312156200047c57600080fd5b85516001600160401b03808211156200049457600080fd5b818801915088601f830112620004a957600080fd5b81516020620004bc6200040c83620003a4565b82815260059290921b8401810191818101908c841115620004dc57600080fd5b948201945b83861015620004fc57855182529482019490820190620004e1565b918b01519199509093505050808211156200051657600080fd5b506200052588828901620003e7565b9450506200053660408701620003ca565b6060870151608090970151959894975095949392505050565b634e487b7160e01b600052603260045260246000fd5b612f7980620005756000396000f3fe608060405234801561001057600080fd5b50600436106101805760003560e01c806306fdde0314610185578063095ea7b3146101c557806318160ddd146101e85780632377e6cb146101fa57806323b872dd146102045780632e1a7d4d14610217578063313ce5671461022a578063456bbd251461024457806347e7ef24146102575780634e06680f1461026a5780634ec48b5e146102725780634ec9a6ab146102855780636e07302b1461028d57806370a0823114610295578063715018a6146102a85780637398ab18146102b057806377b76ec3146102c55780637f8661a1146102d85780638ca5f772146102eb5780638da5cb5b146102fe57806395d89b4114610317578063a9059cbb1461033c578063b88b74251461034f578063c8f2835f14610362578063cc3ddc9014610375578063cde48ea714610382578063d6df4eee1461038a578063dd62ed3e14610392578063de3a5130146103cb578063e445dc43146103de578063ed18fbde146103f1578063f2fde38b146103f9575b600080fd5b6101af6040518060400160405280600b81526020016a283937b7b3103a37b5b2b760a91b81525081565b6040516101bc91906124b9565b60405180910390f35b6101d86101d3366004612523565b61040c565b60405190151581526020016101bc565b601f545b6040519081526020016101bc565b610202610479565b005b6101d861021236600461254f565b6106e6565b6101d8610225366004612590565b610828565b610232601281565b60405160ff90911681526020016101bc565b610202610252366004612618565b610bf3565b6101d8610265366004612523565b610ce5565b610202610f72565b6102026102803660046126d7565b611075565b6102026110b2565b6101ec611144565b6101ec6102a33660046126f4565b6113ce565b6102026113e9565b6102b861144b565b6040516101bc919061271e565b6101ec6102d3366004612815565b6115e0565b6102026102e6366004612590565b61165f565b6101ec6102f936600461284e565b611744565b6000546001600160a01b03166040516101bc9190612899565b6101af60405180604001604052806006815260200165382a37b5b2b760d11b81525081565b6101d861034a366004612523565b6117d1565b61020261035d366004612618565b611872565b610202610370366004612523565b611a30565b6020546101d89060ff1681565b610202611b62565b6101ec611c8d565b6101ec6103a0366004612815565b6001600160a01b03918216600090815260246020908152604080832093909416825291909152205490565b6102026103d9366004612618565b611d4e565b6101ec6103ec366004612590565b611eac565b610202611ee3565b6102026104073660046126f4565b61200e565b3360008181526024602090815260408083206001600160a01b038716808552925280832085905551919290917f8c5be1e5ebec7d5bd14f71427d1e84f3dd0314c0f7b2291e5b200ac8c7c3b925906104679086815260200190565b60405180910390a35060015b92915050565b6000546001600160a01b031633146104ac5760405162461bcd60e51b81526004016104a3906128ad565b60405180910390fd5b60205460ff1615156001146104d35760405162461bcd60e51b81526004016104a3906128e2565b60405163122aa6b560e01b815273__HighLevelSystem_______________________9063122aa6b59061051690600190600690600990600f908490600401612ae9565b6102006040518083038186803b15801561052f57600080fd5b505af4158015610543573d6000803e3d6000fd5b505050506040513d601f19601f820116820180604052508101906105679190612b3d565b506040516338f2e95d60e21b815273__HighLevelSystem_______________________9063e3cba574906105ab90600190600690600990600f908490600401612ae9565b6102006040518083038186803b1580156105c457600080fd5b505af41580156105d8573d6000803e3d6000fd5b505050506040513d601f19601f820116820180604052508101906105fc9190612b3d565b8051600f55602081015160105560408101516011556060810151601255608081015160135560a081015160145560c081015160155560e0810151601680546001600160a01b03199081166001600160a01b0393841617909155610100830151601780548316918416919091179055610120830151601880548316918416919091179055610140830151601980548316918416919091179055610160830151601a80548316918416919091179055610180830151601b805483169184169190911790556101a0830151601c805490921692169190911790556101c0810151601d556101e00151601e55565b6001600160a01b03831660009081526023602052604081205482111561070b57600080fd5b6001600160a01b038416600090815260246020908152604080832033845290915290205482111561073b57600080fd5b6001600160a01b03841660009081526023602052604090205461075e9083612044565b6001600160a01b03851660009081526023602090815260408083209390935560248152828220338352905220546107959083612044565b6001600160a01b0380861660009081526024602090815260408083203384528252808320949094559186168152602390915220546107d39083612086565b6001600160a01b038085166000818152602360205260409081902093909355915190861690600080516020612f24833981519152906108159086815260200190565b60405180910390a35060015b9392505050565b60205460009060ff1615156001146108525760405162461bcd60e51b81526004016104a3906128e2565b61085b336113ce565b8211156108a65760405162461bcd60e51b81526020600482015260196024820152782bb937b7339030b6b7bab73a103a37903bb4ba34323930bb9760391b60448201526064016104a3565b6016546040516370a0823160e01b81526000916001600160a01b0316906370a08231906108d7903090600401612899565b60206040518083038186803b1580156108ef57600080fd5b505afa158015610903573d6000803e3d6000fd5b505050506040513d601f19601f820116820180604052508101906109279190612c34565b90506000610933611144565b9050600061094c61094486846120e3565b601f54612162565b90506000838211156109f25760405163122aa6b560e01b815273__HighLevelSystem_______________________9063122aa6b59061099b90600190600690600990600f908490600401612ae9565b6102006040518083038186803b1580156109b457600080fd5b505af41580156109c8573d6000803e3d6000fd5b505050506040513d601f19601f820116820180604052508101906109ec9190612b3d565b50600190505b6109fc33876121a1565b506000610a14610a0d6014856120e3565b6064612162565b90506000610a26610a0d6050866120e3565b6016546020546040516323b872dd60e01b81529293506001600160a01b03918216926323b872dd92610a68923092610100909104909116908790600401612c4d565b602060405180830381600087803b158015610a8257600080fd5b505af1158015610a96573d6000803e3d6000fd5b505050506040513d601f19601f82011682018060405250810190610aba9190612c71565b506016546040516323b872dd60e01b81526001600160a01b03909116906323b872dd90610aef90309033908690600401612c4d565b602060405180830381600087803b158015610b0957600080fd5b505af1158015610b1d573d6000803e3d6000fd5b505050506040513d601f19601f82011682018060405250810190610b419190612c71565b5060018315151415610be3576040516338f2e95d60e21b815273__HighLevelSystem_______________________9063e3cba57490610b9090600190600690600990600f908490600401612ae9565b6102006040518083038186803b158015610ba957600080fd5b505af4158015610bbd573d6000803e3d6000fd5b505050506040513d601f19601f82011682018060405250810190610be19190612b3d565b505b600196505050505050505b919050565b6000546001600160a01b03163314610c1d5760405162461bcd60e51b81526004016104a3906128ad565b80600081518110610c3057610c30612c8e565b6020026020010151600660000160006101000a8154816001600160a01b0302191690836001600160a01b0316021790555080600181518110610c7457610c74612c8e565b6020026020010151600660010160006101000a8154816001600160a01b0302191690836001600160a01b0316021790555080600281518110610cb857610cb8612c8e565b6020908102919091010151600880546001600160a01b0319166001600160a01b0390921691909117905550565b60205460009060ff161515600114610d0f5760405162461bcd60e51b81526004016104a3906128e2565b6021546016546040805163313ce56760e01b81529051610da193926001600160a01b03169163313ce567916004808301926020929190829003018186803b158015610d5957600080fd5b505afa158015610d6d573d6000803e3d6000fd5b505050506040513d601f19601f82011682018060405250810190610d919190612ca4565b610d9c90600a612dc1565b6120e3565b821115610de45760405162461bcd60e51b81526020600482015260116024820152704465706f73697420746f6f206d7563682160781b60448201526064016104a3565b6016546001600160a01b03848116911614610e3b5760405162461bcd60e51b81526020600482015260176024820152762bb937b733903a37b5b2b7103a37903232b837b9b4ba1760491b60448201526064016104a3565b60008211610e965760405162461bcd60e51b815260206004820152602260248201527f4465706f73697420616d6f756e74206d75737420626967676572207468616e20604482015261181760f11b60648201526084016104a3565b6000610ea0611144565b9050600080601f541115610eca57610ec3610ebd85601f546120e3565b83612162565b9050610ecd565b50825b610ed733826122e4565b506016546040516323b872dd60e01b81526001600160a01b03909116906323b872dd90610f0c90339030908990600401612c4d565b602060405180830381600087803b158015610f2657600080fd5b505af1158015610f3a573d6000803e3d6000fd5b505050506040513d601f19601f82011682018060405250810190610f5e9190612c71565b50610f67610f72565b506001949350505050565b6016546040516370a0823160e01b81526000916001600160a01b0316906370a0823190610fa3903090600401612899565b60206040518083038186803b158015610fbb57600080fd5b505afa158015610fcf573d6000803e3d6000fd5b505050506040513d601f19601f82011682018060405250810190610ff39190612c34565b6022546016546040805163313ce56760e01b8152905193945060009361104393926001600160a01b03169163313ce567916004808301926020929190829003018186803b158015610d5957600080fd5b90508082106110695760115415801561105c5750601254155b1561106d576110696110b2565b5050565b611069610479565b6000546001600160a01b0316331461109f5760405162461bcd60e51b81526004016104a3906128ad565b6020805460ff1916911515919091179055565b6000546001600160a01b031633146110dc5760405162461bcd60e51b81526004016104a3906128ad565b60205460ff1615156001146111035760405162461bcd60e51b81526004016104a3906128e2565b604051639e0a966560e01b815273__HighLevelSystem_______________________90639e0a9665906105ab90600190600690600990600f90600401612dd0565b601b54601c5460405163ce81e37d60e01b81526000928392839273__HighLevelSystem_______________________9263ce81e37d92611197926006926001600160a01b03908116921690600401612e08565b604080518083038186803b1580156111ae57600080fd5b505af41580156111c2573d6000803e3d6000fd5b505050506040513d601f19601f820116820180604052508101906111e69190612e38565b600f546040516325a6bc8160e11b815292945090925060009173__HighLevelSystem_______________________91634b4d79029161122a91600191600401612e5c565b60206040518083038186803b15801561124257600080fd5b505af4158015611256573d6000803e3d6000fd5b505050506040513d601f19601f8201168201806040525081019061127a9190612c34565b905060008073__HighLevelSystem_______________________63de87fccf6001600f6040518363ffffffff1660e01b81526004016112ba929190612e77565b604080518083038186803b1580156112d157600080fd5b505af41580156112e5573d6000803e3d6000fd5b505050506040513d601f19601f820116820180604052508101906113099190612e38565b91509150600061132b61131c8484612086565b6113268888612086565b612044565b90506113378185612086565b6016546040516370a0823160e01b81529192506113c39183916001600160a01b0316906370a082319061136e903090600401612899565b60206040518083038186803b15801561138657600080fd5b505afa15801561139a573d6000803e3d6000fd5b505050506040513d601f19601f820116820180604052508101906113be9190612c34565b612086565b979650505050505050565b6001600160a01b031660009081526023602052604090205490565b6000546001600160a01b031633146114135760405162461bcd60e51b81526004016104a3906128ad565b600080546040516001600160a01b0390911690600080516020612f04833981519152908390a3600080546001600160a01b0319169055565b61150a6040518061020001604052806000815260200160008152602001600081526020016000815260200160008152602001600081526020016000815260200160006001600160a01b0316815260200160006001600160a01b0316815260200160006001600160a01b0316815260200160006001600160a01b0316815260200160006001600160a01b0316815260200160006001600160a01b0316815260200160006001600160a01b0316815260200160008152602001600081525090565b6000546001600160a01b031633146115345760405162461bcd60e51b81526004016104a3906128ad565b506040805161020081018252600f5481526010546020820152601154918101919091526012546060820152601354608082015260145460a082015260155460c08201526016546001600160a01b0390811660e0830152601754811661010083015260185481166101208301526019548116610140830152601a548116610160830152601b548116610180830152601c54166101a0820152601d546101c0820152601e546101e082015290565b6040516370a0823160e01b81526000906001600160a01b038416906370a082319061160f908590600401612899565b60206040518083038186803b15801561162757600080fd5b505afa15801561163b573d6000803e3d6000fd5b505050506040513d601f19601f820116820180604052508101906108219190612c34565b6000546001600160a01b031633146116895760405162461bcd60e51b81526004016104a3906128ad565b60205460ff1615156001146116b05760405162461bcd60e51b81526004016104a3906128e2565b60405163122aa6b560e01b815273__HighLevelSystem_______________________9063122aa6b5906116f390600190600690600990600f908890600401612ae9565b6102006040518083038186803b15801561170c57600080fd5b505af4158015611720573d6000803e3d6000fd5b505050506040513d601f19601f820116820180604052508101906110699190612b3d565b604051636eb1769f60e11b81526001600160a01b03838116600483015282811660248301526000919085169063dd62ed3e9060440160206040518083038186803b15801561179157600080fd5b505afa1580156117a5573d6000803e3d6000fd5b505050506040513d601f19601f820116820180604052508101906117c99190612c34565b949350505050565b336000908152602360205260408120548211156117ed57600080fd5b336000908152602360205260409020546118079083612044565b33600090815260236020526040808220929092556001600160a01b038516815220546118339083612086565b6001600160a01b038416600081815260236020526040908190209290925590513390600080516020612f24833981519152906104679086815260200190565b6000546001600160a01b0316331461189c5760405162461bcd60e51b81526004016104a3906128ad565b806000815181106118af576118af612c8e565b6020026020010151600960000160006101000a8154816001600160a01b0302191690836001600160a01b03160217905550806001815181106118f3576118f3612c8e565b6020026020010151600960010160006101000a8154816001600160a01b0302191690836001600160a01b031602179055508060028151811061193757611937612c8e565b6020026020010151600960020160006101000a8154816001600160a01b0302191690836001600160a01b031602179055508060038151811061197b5761197b612c8e565b6020026020010151600960030160006101000a8154816001600160a01b0302191690836001600160a01b03160217905550806004815181106119bf576119bf612c8e565b6020026020010151600960040160006101000a8154816001600160a01b0302191690836001600160a01b0316021790555080600581518110611a0357611a03612c8e565b6020908102919091010151600e80546001600160a01b0319166001600160a01b0390921691909117905550565b6000546001600160a01b03163314611a5a5760405162461bcd60e51b81526004016104a3906128ad565b60405163095ea7b360e01b8152306004820152602481018290526001600160a01b0383169063095ea7b390604401602060405180830381600087803b158015611aa257600080fd5b505af1158015611ab6573d6000803e3d6000fd5b505050506040513d601f19601f82011682018060405250810190611ada9190612c71565b506040516323b872dd60e01b81526001600160a01b038316906323b872dd90611b0b90309033908690600401612c4d565b602060405180830381600087803b158015611b2557600080fd5b505af1158015611b39573d6000803e3d6000fd5b505050506040513d601f19601f82011682018060405250810190611b5d9190612c71565b505050565b6000546001600160a01b03163314611b8c5760405162461bcd60e51b81526004016104a3906128ad565b60205460ff161515600114611bb35760405162461bcd60e51b81526004016104a3906128e2565b60405163122aa6b560e01b815273__HighLevelSystem_______________________9063122aa6b590611bf790600190600690600990600f90600390600401612ae9565b6102006040518083038186803b158015611c1057600080fd5b505af4158015611c24573d6000803e3d6000fd5b505050506040513d601f19601f82011682018060405250810190611c489190612b3d565b506040516338f2e95d60e21b815273__HighLevelSystem_______________________9063e3cba574906105ab90600190600690600990600f90600390600401612ae9565b600080546001600160a01b03163314611cb85760405162461bcd60e51b81526004016104a3906128ad565b604051631329ef7d60e21b815273__HighLevelSystem_______________________90634ca7bdf490611cf990600190600690600990600f90600401612dd0565b60206040518083038186803b158015611d1157600080fd5b505af4158015611d25573d6000803e3d6000fd5b505050506040513d601f19601f82011682018060405250810190611d499190612c34565b905090565b6000546001600160a01b03163314611d785760405162461bcd60e51b81526004016104a3906128ad565b80600081518110611d8b57611d8b612c8e565b6020908102919091010151600180546001600160a01b0319166001600160a01b0390921691909117815581518291908110611dc857611dc8612c8e565b6020908102919091010151600280546001600160a01b0319166001600160a01b0390921691909117815581518291908110611e0557611e05612c8e565b6020908102919091010151600380546001600160a01b0319166001600160a01b0390921691909117815581518291908110611e4257611e42612c8e565b6020908102919091010151600480546001600160a01b0319166001600160a01b0390921691909117815581518291908110611e7f57611e7f612c8e565b6020908102919091010151600580546001600160a01b0319166001600160a01b0390921691909117905550565b600080611eb7611144565b90506000611ec861094485846120e3565b90506000611eda610a0d6050846120e3565b95945050505050565b6000546001600160a01b03163314611f0d5760405162461bcd60e51b81526004016104a3906128ad565b60205460ff161515600114611f345760405162461bcd60e51b81526004016104a3906128e2565b60405163122aa6b560e01b815273__HighLevelSystem_______________________9063122aa6b590611f7890600190600690600990600f90600290600401612ae9565b6102006040518083038186803b158015611f9157600080fd5b505af4158015611fa5573d6000803e3d6000fd5b505050506040513d601f19601f82011682018060405250810190611fc99190612b3d565b506040516338f2e95d60e21b815273__HighLevelSystem_______________________9063e3cba574906105ab90600190600690600990600f90600290600401612ae9565b6000546001600160a01b031633146120385760405162461bcd60e51b81526004016104a3906128ad565b612041816123ac565b50565b600061082183836040518060400160405280601e81526020017f536166654d6174683a207375627472616374696f6e206f766572666c6f77000081525061245a565b6000806120938385612e93565b9050838110156108215760405162461bcd60e51b815260206004820152601b60248201527a536166654d6174683a206164646974696f6e206f766572666c6f7760281b60448201526064016104a3565b6000826120f257506000610473565b60006120fe8385612eab565b90508261210b8583612eca565b146108215760405162461bcd60e51b815260206004820152602160248201527f536166654d6174683a206d756c7469706c69636174696f6e206f766572666c6f6044820152607760f81b60648201526084016104a3565b600061082183836040518060400160405280601a815260200179536166654d6174683a206469766973696f6e206279207a65726f60301b81525061248b565b60006001600160a01b0383166122035760405162461bcd60e51b815260206004820152602160248201527f45524332303a206275726e2066726f6d20746865207a65726f206164647265736044820152607360f81b60648201526084016104a3565b6001600160a01b038316600090815260236020526040902054828110156122775760405162461bcd60e51b815260206004820152602260248201527f45524332303a206275726e20616d6f756e7420657863656564732062616c616e604482015261636560f01b60648201526084016104a3565b6001600160a01b03841660009081526023602052604081208483039055601f80548592906122a6908490612eec565b90915550506040518381526000906001600160a01b03861690600080516020612f248339815191529060200160405180910390a35060019392505050565b60006001600160a01b03831661233c5760405162461bcd60e51b815260206004820152601f60248201527f45524332303a206d696e7420746f20746865207a65726f20616464726573730060448201526064016104a3565b81601f600082825461234e9190612e93565b90915550506001600160a01b0383166000908152602360205260408120805484929061237b908490612e93565b90915550506040518281526001600160a01b03841690600090600080516020612f2483398151915290602001610467565b6001600160a01b0381166124115760405162461bcd60e51b815260206004820152602660248201527f4f776e61626c653a206e6577206f776e657220697320746865207a65726f206160448201526564647265737360d01b60648201526084016104a3565b600080546040516001600160a01b0380851693921691600080516020612f0483398151915291a3600080546001600160a01b0319166001600160a01b0392909216919091179055565b6000818484111561247e5760405162461bcd60e51b81526004016104a391906124b9565b506000611eda8486612eec565b600081836124ac5760405162461bcd60e51b81526004016104a391906124b9565b506000611eda8486612eca565b600060208083528351808285015260005b818110156124e6578581018301518582016040015282016124ca565b818111156124f8576000604083870101525b50601f01601f1916929092016040019392505050565b6001600160a01b038116811461204157600080fd5b6000806040838503121561253657600080fd5b82356125418161250e565b946020939093013593505050565b60008060006060848603121561256457600080fd5b833561256f8161250e565b9250602084013561257f8161250e565b929592945050506040919091013590565b6000602082840312156125a257600080fd5b5035919050565b634e487b7160e01b600052604160045260246000fd5b60405161020081016001600160401b03811182821017156125e2576125e26125a9565b60405290565b604051601f8201601f191681016001600160401b0381118282101715612610576126106125a9565b604052919050565b6000602080838503121561262b57600080fd5b82356001600160401b038082111561264257600080fd5b818501915085601f83011261265657600080fd5b813581811115612668576126686125a9565b8060051b91506126798483016125e8565b818152918301840191848101908884111561269357600080fd5b938501935b838510156126bd57843592506126ad8361250e565b8282529385019390850190612698565b98975050505050505050565b801515811461204157600080fd5b6000602082840312156126e957600080fd5b8135610821816126c9565b60006020828403121561270657600080fd5b81356108218161250e565b6001600160a01b03169052565b600061020082019050825182526020830151602083015260408301516040830152606083015160608301526080830151608083015260a083015160a083015260c083015160c083015260e083015161277960e0840182612711565b506101008084015161278d82850182612711565b5050610120808401516127a282850182612711565b5050610140808401516127b782850182612711565b5050610160808401516127cc82850182612711565b5050610180808401516127e182850182612711565b50506101a0808401516127f682850182612711565b50506101c083810151908301526101e092830151929091019190915290565b6000806040838503121561282857600080fd5b82356128338161250e565b915060208301356128438161250e565b809150509250929050565b60008060006060848603121561286357600080fd5b833561286e8161250e565b9250602084013561287e8161250e565b9150604084013561288e8161250e565b809150509250925092565b6001600160a01b0391909116815260200190565b6020808252818101527f4f776e61626c653a2063616c6c6572206973206e6f7420746865206f776e6572604082015260600190565b60208082526019908201527821b0b9b42137bc1034b9903737ba1030b1ba34bb30b136329760391b604082015260600190565b6001600160a01b031690565b80546001600160a01b03908116835260018201548116602084015260029091015416604090910152565b80546001600160a01b03908116835260018201541660208301526110696040830160028301612921565b80546001600160a01b039081168352600182015481166020840152600282015481166040840152600382015481166060840152600482015416608083015260058101546129c190612915565b611b5d60a0840182612711565b8054825260018101546020830152600281015460408301526003810154606083015260048101546080830152600581015460a0830152600681015460c0830152612a1b6007820154612915565b612a2860e0840182612711565b50612a366008820154612915565b612a44610100840182612711565b50612a526009820154612915565b612a60610120840182612711565b50612a6e600a820154612915565b612a7c610140840182612711565b50612a8a600b820154612915565b612a98610160840182612711565b50612aa6600c820154612915565b612ab4610180840182612711565b50612ac2600d820154612915565b612ad06101a0840182612711565b50600e8101546101c0830152600f01546101e090910152565b6103e08101612af8828861294b565b612b0560a0830187612921565b612b13610100830186612975565b612b216101c08301856129ce565b826103c08301529695505050505050565b8051610bee8161250e565b60006102008284031215612b5057600080fd5b612b586125bf565b825181526020830151602082015260408301516040820152606083015160608201526080830151608082015260a083015160a082015260c083015160c0820152612ba460e08401612b32565b60e0820152610100612bb7818501612b32565b90820152610120612bc9848201612b32565b90820152610140612bdb848201612b32565b90820152610160612bed848201612b32565b90820152610180612bff848201612b32565b908201526101a0612c11848201612b32565b908201526101c083810151908201526101e0928301519281019290925250919050565b600060208284031215612c4657600080fd5b5051919050565b6001600160a01b039384168152919092166020820152604081019190915260600190565b600060208284031215612c8357600080fd5b8151610821816126c9565b634e487b7160e01b600052603260045260246000fd5b600060208284031215612cb657600080fd5b815160ff8116811461082157600080fd5b634e487b7160e01b600052601160045260246000fd5b600181815b80851115612d18578160001904821115612cfe57612cfe612cc7565b80851615612d0b57918102915b93841c9390800290612ce2565b509250929050565b600082612d2f57506001610473565b81612d3c57506000610473565b8160018114612d525760028114612d5c57612d78565b6001915050610473565b60ff841115612d6d57612d6d612cc7565b50506001821b610473565b5060208310610133831016604e8410600b8410161715612d9b575081810a610473565b612da58383612cdd565b8060001904821115612db957612db9612cc7565b029392505050565b600061082160ff841683612d20565b6103c08101612ddf828761294b565b612dec60a0830186612921565b612dfa610100830185612975565b611eda6101c08301846129ce565b60a08101612e168286612921565b6001600160a01b03938416606083015291909216608090920191909152919050565b60008060408385031215612e4b57600080fd5b505080516020909101519092909150565b60c08101612e6a828561294b565b8260a08301529392505050565b6102a08101612e86828561294b565b61082160a08301846129ce565b60008219821115612ea657612ea6612cc7565b500190565b6000816000190483118215151615612ec557612ec5612cc7565b500290565b600082612ee757634e487b7160e01b600052601260045260246000fd5b500490565b600082821015612efe57612efe612cc7565b50039056fe8be0079c531659141344cd1fd0a4f28419497f9722a3daafe3b4186f6b6457e0ddf252ad1be2c89b69c2b068fc378daa952ba7f163c4a11628f55a4df523b3efa2646970667358221220a05a972193fc5e0c0a874e88f17345e103e62793cee8b0a83e9419a527c2d5c564736f6c63430008090033",
  "immutableReferences": {},
  "source": "// SPDX-License-Identifier: MIT\npragma solidity >=0.8;\n\nimport \"./token/BEP20/IBEP20.sol\";\nimport \"./math/SafeMath.sol\";\nimport \"./utils/BasicContract.sol\";\nimport { HighLevelSystem } from \"./libs/HighLevelSystem.sol\";\n\n/// @title CashBox\n/// @author Andrew FU\n/// @dev All functions haven't finished unit test\ncontract CashBox is BasicContract {\n     \n    using SafeMath for uint;\n    // using HighLevelSystem for HighLevelSystem.HLSConfig;\n    // using HighLevelSystem for HighLevelSystem.CreamToken;\n    // using HighLevelSystem for HighLevelSystem.StableCoin;\n    // using HighLevelSystem for HighLevelSystem.Position;\n    \n    // Link\n    // address private link_oracle;\n    \n    // Cream\n    // address private constant cream_oracle = 0xab548FFf4Db8693c999e98551C756E6C2948C408;\n    // address private constant cream_troller = 0x589DE0F0Ccf905477646599bb3E5C622C84cC0BA;\n    \n    // PancakeSwap\n    // address private constant ROUTER = 0x10ED43C718714eb63d5aA57B78B54704E256024E;\n    // address private constant FACTORY = 0xcA143Ce32Fe78f1f7019d7d551a6402fC5350c73;\n    // address private constant MASTERCHEF = 0x73feaa1eE314F8c655E354234017bE2193C9E24E;\n    \n    // Cream token\n    // address private constant crWBNB = 0x15CC701370cb8ADA2a2B6f4226eC5CF6AA93bC67;\n    // address private constant crBNB = 0x1Ffe17B99b439bE0aFC831239dDECda2A790fF3A;\n    // address private constant crUSDC = 0xD83C88DB3A6cA4a32FFf1603b0f7DDce01F5f727;\n    \n    // StableCoin\n    // address private constant WBNB = 0xbb4CdB9CBd36B01bD1cBaEBF2De08d9173bc095c;\n    // address private constant BNB = 0xcA143Ce32Fe78f1f7019d7d551a6402fC5350c73;\n    // address private constant USDT = 0x55d398326f99059fF775485246999027B3197955;\n    // address private constant TUSD = 0x14016E85a25aeb13065688cAFB43044C2ef86784;\n    // address private constant BUSD = 0xe9e7CEA3DedcA5984780Bafc599bD69ADd087D56;\n    // address private constant USDC = 0x8AC76a51cc950d9822D68b83fE1Ad97B32Cd580d;\n    \n    HighLevelSystem.HLSConfig private HLSConfig;\n    HighLevelSystem.CreamToken private CreamToken;\n    HighLevelSystem.StableCoin private StableCoin;\n    HighLevelSystem.Position private position;\n    \n    using SafeMath for uint256;\n    string public constant name = \"Proof token\";\n    string public constant symbol = \"pToken\";\n    uint8 public constant decimals = 18;\n    uint256 private totalSupply_;\n    \n    bool public activable;\n    address private dofin;\n    uint private deposit_limit;\n    uint private add_funds_condition;\n    \n    event Approval(address indexed tokenOwner, address indexed spender, uint tokens);\n    event Transfer(address indexed from, address indexed to, uint tokens);\n    \n    mapping(address => uint256) private balances;\n    mapping(address => mapping (address => uint256)) private allowed;\n     \n    // constructor(address[] memory _config, address[] memory _creamtokens, address[] memory _stablecoins, uint[] memory _uints, address[] memory _addrs, address _dofin, uint _deposit_limit, uint _add_funds_condition) {\n    //     setConfig(_config);\n    //     setCreamTokens(_creamtokens);\n    //     setStableCoins(_stablecoins);\n    //     position = HighLevelSystem.Position({\n    //         pool_id: _uints[0],\n    //         token_amount: 0,\n    //         token_a_amount: 0,\n    //         token_b_amount: 0,\n    //         lp_token_amount: 0,\n    //         crtoken_amount: 0,\n    //         supply_crtoken_amount: 0,\n    //         token: _addrs[0],\n    //         token_a: _addrs[1],\n    //         token_b: _addrs[2],\n    //         lp_token: _addrs[3],\n    //         supply_crtoken: _addrs[4],\n    //         borrowed_crtoken_a: _addrs[5],\n    //         borrowed_crtoken_b: _addrs[6],\n    //         max_amount_per_position: _uints[1],\n    //         supply_funds_percentage: _uints[2]\n    //     });\n        \n    //     activable = true;\n    //     dofin = _dofin;\n    //     deposit_limit = _deposit_limit;\n    //     add_funds_condition = add_funds_condition;\n    // }\n\n    constructor(uint[] memory _uints, address[] memory _addrs, address _dofin, uint _deposit_limit, uint _add_funds_condition) {\n        position = HighLevelSystem.Position({\n            pool_id: _uints[0],\n            token_amount: 0,\n            token_a_amount: 0,\n            token_b_amount: 0,\n            lp_token_amount: 0,\n            crtoken_amount: 0,\n            supply_crtoken_amount: 0,\n            token: _addrs[0],\n            token_a: _addrs[1],\n            token_b: _addrs[2],\n            lp_token: _addrs[3],\n            supply_crtoken: _addrs[4],\n            borrowed_crtoken_a: _addrs[5],\n            borrowed_crtoken_b: _addrs[6],\n            max_amount_per_position: _uints[1],\n            supply_funds_percentage: _uints[2]\n        });\n        \n        activable = true;\n        dofin = _dofin;\n        deposit_limit = _deposit_limit;\n        add_funds_condition = add_funds_condition;\n    }\n\n    modifier checkActivable() {\n        require(activable == true, 'CashBox is not activable.');\n        _;\n    }\n    \n    function setConfig(address[] memory _config) public onlyOwner {\n        HLSConfig.LinkConfig.oracle = _config[0];\n        HLSConfig.CreamConfig.oracle = _config[1];\n        HLSConfig.PancakeSwapConfig.router = _config[2];\n        HLSConfig.PancakeSwapConfig.factory = _config[3];\n        HLSConfig.PancakeSwapConfig.masterchef = _config[4];\n    }\n    \n    function setCreamTokens(address[] memory _creamtokens) public onlyOwner {\n        CreamToken.crWBNB = _creamtokens[0];\n        CreamToken.crBNB = _creamtokens[1];\n        CreamToken.crUSDC = _creamtokens[2];\n    }\n    \n    function setStableCoins(address[] memory _stablecoins) public onlyOwner {\n        StableCoin.WBNB = _stablecoins[0];\n        StableCoin.BNB = _stablecoins[1];\n        StableCoin.USDT = _stablecoins[2];\n        StableCoin.TUSD = _stablecoins[3];\n        StableCoin.BUSD = _stablecoins[4];\n        StableCoin.USDC = _stablecoins[5];\n    }\n\n    function setActivable(bool _activable) public onlyOwner {\n        \n        activable = _activable;\n    }\n    \n    function getPosition() public onlyOwner view returns(HighLevelSystem.Position memory) {\n        \n        return position;\n    }\n    \n    function reblanceWithRepay() public onlyOwner checkActivable {\n        HighLevelSystem.exitPosition(HLSConfig, CreamToken, StableCoin, position, 3);\n        position = HighLevelSystem.enterPosition(HLSConfig, CreamToken, StableCoin, position, 3);\n    }\n    \n    function reblanceWithoutRepay() public onlyOwner checkActivable {\n        HighLevelSystem.exitPosition(HLSConfig, CreamToken, StableCoin, position, 2);\n        position = HighLevelSystem.enterPosition(HLSConfig, CreamToken, StableCoin, position, 2);\n    }\n    \n    function reblance() public onlyOwner checkActivable  {\n        HighLevelSystem.exitPosition(HLSConfig, CreamToken, StableCoin, position, 1);\n        position = HighLevelSystem.enterPosition(HLSConfig, CreamToken, StableCoin, position, 1);\n    }\n    \n    function checkAddNewFunds() public {\n        uint free_funds = IBEP20(position.token).balanceOf(address(this));\n        uint condition = SafeMath.mul(add_funds_condition, 10**IBEP20(position.token).decimals());\n        if (free_funds >= condition) {\n            if (position.token_a_amount == 0 && position.token_b_amount == 0) {\n                checkEntry();\n            } else {\n                reblance();\n            }\n        }\n    }\n    \n    function checkEntry() public onlyOwner checkActivable {\n        \n        position = HighLevelSystem.checkEntry(HLSConfig, CreamToken, StableCoin, position);\n    }\n\n    function exit(uint _type) public onlyOwner checkActivable {\n        \n        HighLevelSystem.exitPosition(HLSConfig, CreamToken, StableCoin, position, _type);\n    }\n    \n    function checkCurrentBorrowLimit() onlyOwner public returns (uint) {\n        \n        return HighLevelSystem.checkCurrentBorrowLimit(HLSConfig, CreamToken, StableCoin, position);\n    }\n    \n    function totalSupply() public view returns (uint256) {\n        \n        return totalSupply_;\n    }\n    \n    function balanceOf(address account) public view returns (uint) {\n        \n        return balances[account];\n    }\n\n    function transfer(address recipient, uint amount) public returns (bool) {\n        require(amount <= balances[msg.sender]);\n        balances[msg.sender] = balances[msg.sender].sub(amount);\n        balances[recipient] = balances[recipient].add(amount);\n        emit Transfer(msg.sender, recipient, amount);\n        return true;\n    }\n\n    function approve(address spender, uint amount) public returns (bool) {\n        allowed[msg.sender][spender] = amount;\n        emit Approval(msg.sender, spender, amount);\n        return true;\n    }\n\n    function allowance(address owner, address spender) public view returns (uint) {\n        \n        return allowed[owner][spender];\n    }\n\n    function transferFrom(address owner, address buyer, uint numTokens) public returns (bool) {\n        require(numTokens <= balances[owner]);    \n        require(numTokens <= allowed[owner][msg.sender]);\n    \n        balances[owner] = balances[owner].sub(numTokens);\n        allowed[owner][msg.sender] = allowed[owner][msg.sender].sub(numTokens);\n        balances[buyer] = balances[buyer].add(numTokens);\n        emit Transfer(owner, buyer, numTokens);\n        return true;\n    }\n    \n    function mint(address account, uint256 amount) internal returns (bool) {\n        require(account != address(0), \"ERC20: mint to the zero address\");\n\n        totalSupply_ += amount;\n        balances[account] += amount;\n        emit Transfer(address(0), account, amount);\n\n        return true;\n    }\n    \n    function burn(address account, uint256 amount) internal returns (bool) {\n        require(account != address(0), \"ERC20: burn from the zero address\");\n\n        uint256 accountBalance = balances[account];\n        require(accountBalance >= amount, \"ERC20: burn amount exceeds balance\");\n        unchecked {\n            balances[account] = accountBalance - amount;\n        }\n        totalSupply_ -= amount;\n        emit Transfer(account, address(0), amount);\n\n        return true;\n    }\n    \n    function getTotalAssets() public view returns (uint) {\n        // Cream borrowed amount\n        (uint crtoken_a_debt, uint crtoken_b_debt) = HighLevelSystem.getTotalBorrowAmount(CreamToken, position.borrowed_crtoken_a, position.borrowed_crtoken_b);\n        // PancakeSwap pending cake amount\n        uint pending_cake_amount = HighLevelSystem.getTotalCakePendingRewards(HLSConfig, position.pool_id);\n        // PancakeSwap staked amount\n        (uint token_a_amount, uint token_b_amount) = HighLevelSystem.getStakedTokens(HLSConfig, position);\n        \n        uint total_assets = SafeMath.sub(SafeMath.add(token_a_amount, token_b_amount), SafeMath.add(crtoken_a_debt, crtoken_b_debt));\n        total_assets = SafeMath.add(total_assets, pending_cake_amount);\n        total_assets = SafeMath.add(total_assets, IBEP20(position.token).balanceOf(address(this)));\n        return total_assets;\n    }\n    \n    function deposit(address _token, uint _deposit_amount) public checkActivable returns (bool) {\n        require(_deposit_amount <= SafeMath.mul(deposit_limit, 10**IBEP20(position.token).decimals()), \"Deposit too much!\");\n        require(_token == position.token, \"Wrong token to deposit.\");\n        require(_deposit_amount > 0, \"Deposit amount must bigger than 0.\");\n        \n        // Calculation of pToken amount need to mint\n        uint totalAssets = getTotalAssets();\n        uint shares;\n        if (totalSupply_ > 0) {\n            shares = SafeMath.div(SafeMath.mul(_deposit_amount, totalSupply_), totalAssets);\n        } else {\n            shares = _deposit_amount;\n        }\n        \n        // Mint pToken and transfer Token to cashbox\n        mint(msg.sender, shares);\n        IBEP20(position.token).transferFrom(msg.sender, address(this), _deposit_amount);\n        \n        // Check need to supply or not.\n        checkAddNewFunds();\n        \n        return true;\n    }\n    \n    function getWithdrawAmount(uint _ptoken_amount) public view returns (uint) {\n        uint totalAssets = getTotalAssets();\n        uint value = SafeMath.div(SafeMath.mul(_ptoken_amount, totalAssets), totalSupply_);\n        uint user_value = SafeMath.div(SafeMath.mul(80, value), 100);\n        \n        return user_value;\n    }\n    \n    function withdraw(uint _withdraw_amount) public checkActivable returns (bool) {\n        require(_withdraw_amount <= balanceOf(msg.sender), \"Wrong amount to withdraw.\");\n        \n        uint freeFunds = IBEP20(position.token).balanceOf(address(this));\n        uint totalAssets = getTotalAssets();\n        uint value = SafeMath.div(SafeMath.mul(_withdraw_amount, totalAssets), totalSupply_);\n        bool need_rebalance = false;\n        // If no enough amount of free funds can transfer will trigger exit position\n        if (value > freeFunds) {\n            HighLevelSystem.exitPosition(HLSConfig, CreamToken, StableCoin, position, 1);\n            need_rebalance = true;\n        }\n        \n        // Will charge 20% fees\n        burn(msg.sender, _withdraw_amount);\n        uint dofin_value = SafeMath.div(SafeMath.mul(20, value), 100);\n        uint user_value = SafeMath.div(SafeMath.mul(80, value), 100);\n        IBEP20(position.token).transferFrom(address(this), dofin, dofin_value);\n        IBEP20(position.token).transferFrom(address(this), msg.sender, user_value);\n        \n        if (need_rebalance == true) {\n            HighLevelSystem.enterPosition(HLSConfig, CreamToken, StableCoin, position, 1);\n        }\n        \n        return true;\n    }\n    \n}",
  "sourcePath": "/Users/andrew/Documents/Bitbucket/dofin-smart-contracts/contracts/CashBox.sol",
  "compiler": {
    "name": "solc",
    "version": "0.8.9+commit.e5eed63a.Emscripten.clang"
  },
  "schemaVersion": "3.4.3",
  "updatedAt": "2021-10-12T06:15:59.543Z",
  "networkType": "ethereum",
  "devdoc": {
    "author": "Andrew FU",
    "details": "All functions haven't finished unit test",
    "kind": "dev",
    "methods": {
      "owner()": {
        "details": "Returns the address of the current owner."
      },
      "renounceOwnership()": {
        "details": "Leaves the contract without owner. It will not be possible to call `onlyOwner` functions anymore. Can only be called by the current owner. NOTE: Renouncing ownership will leave the contract without an owner, thereby removing any functionality that is only available to the owner."
      },
      "transferOwnership(address)": {
        "details": "Transfers ownership of the contract to a new account (`newOwner`). Can only be called by the current owner."
      }
    },
    "title": "CashBox",
    "version": 1
  },
  "userdoc": {
    "kind": "user",
    "methods": {},
    "version": 1
  }
}