{
  "contractName": "CashBox",
  "abi": [
    {
      "inputs": [
        {
          "internalType": "uint256[]",
          "name": "_uints",
          "type": "uint256[]"
        },
        {
          "internalType": "address[]",
          "name": "_addrs",
          "type": "address[]"
        },
        {
          "internalType": "address",
          "name": "_dofin",
          "type": "address"
        },
        {
          "internalType": "uint256",
          "name": "_deposit_limit",
          "type": "uint256"
        },
        {
          "internalType": "uint256",
          "name": "_add_funds_condition",
          "type": "uint256"
        }
      ],
      "stateMutability": "nonpayable",
      "type": "constructor"
    },
    {
      "anonymous": false,
      "inputs": [
        {
          "indexed": false,
          "internalType": "string",
          "name": "message",
          "type": "string"
        },
        {
          "indexed": false,
          "internalType": "address",
          "name": "val",
          "type": "address"
        }
      ],
      "name": "AddrLog",
      "type": "event"
    },
    {
      "anonymous": false,
      "inputs": [
        {
          "indexed": true,
          "internalType": "address",
          "name": "tokenOwner",
          "type": "address"
        },
        {
          "indexed": true,
          "internalType": "address",
          "name": "spender",
          "type": "address"
        },
        {
          "indexed": false,
          "internalType": "uint256",
          "name": "tokens",
          "type": "uint256"
        }
      ],
      "name": "Approval",
      "type": "event"
    },
    {
      "anonymous": false,
      "inputs": [
        {
          "indexed": false,
          "internalType": "string",
          "name": "message",
          "type": "string"
        },
        {
          "indexed": false,
          "internalType": "uint256",
          "name": "val",
          "type": "uint256"
        }
      ],
      "name": "IntLog",
      "type": "event"
    },
    {
      "anonymous": false,
      "inputs": [
        {
          "indexed": true,
          "internalType": "address",
          "name": "previousOwner",
          "type": "address"
        },
        {
          "indexed": true,
          "internalType": "address",
          "name": "newOwner",
          "type": "address"
        }
      ],
      "name": "OwnershipTransferred",
      "type": "event"
    },
    {
      "anonymous": false,
      "inputs": [
        {
          "indexed": false,
          "internalType": "string",
          "name": "message",
          "type": "string"
        },
        {
          "indexed": false,
          "internalType": "string",
          "name": "val",
          "type": "string"
        }
      ],
      "name": "StrLog",
      "type": "event"
    },
    {
      "anonymous": false,
      "inputs": [
        {
          "indexed": true,
          "internalType": "address",
          "name": "from",
          "type": "address"
        },
        {
          "indexed": true,
          "internalType": "address",
          "name": "to",
          "type": "address"
        },
        {
          "indexed": false,
          "internalType": "uint256",
          "name": "tokens",
          "type": "uint256"
        }
      ],
      "name": "Transfer",
      "type": "event"
    },
    {
      "inputs": [],
      "name": "activable",
      "outputs": [
        {
          "internalType": "bool",
          "name": "",
          "type": "bool"
        }
      ],
      "stateMutability": "view",
      "type": "function"
    },
    {
      "inputs": [
        {
          "internalType": "address",
          "name": "_token",
          "type": "address"
        },
        {
          "internalType": "address",
          "name": "_owner",
          "type": "address"
        },
        {
          "internalType": "address",
          "name": "_spender",
          "type": "address"
        }
      ],
      "name": "checkAllowance",
      "outputs": [
        {
          "internalType": "uint256",
          "name": "",
          "type": "uint256"
        }
      ],
      "stateMutability": "view",
      "type": "function"
    },
    {
      "inputs": [
        {
          "internalType": "address",
          "name": "_token",
          "type": "address"
        },
        {
          "internalType": "address",
          "name": "_address",
          "type": "address"
        }
      ],
      "name": "checkBalance",
      "outputs": [
        {
          "internalType": "uint256",
          "name": "",
          "type": "uint256"
        }
      ],
      "stateMutability": "view",
      "type": "function"
    },
    {
      "inputs": [],
      "name": "decimals",
      "outputs": [
        {
          "internalType": "uint8",
          "name": "",
          "type": "uint8"
        }
      ],
      "stateMutability": "view",
      "type": "function"
    },
    {
      "inputs": [],
      "name": "name",
      "outputs": [
        {
          "internalType": "string",
          "name": "",
          "type": "string"
        }
      ],
      "stateMutability": "view",
      "type": "function"
    },
    {
      "inputs": [],
      "name": "owner",
      "outputs": [
        {
          "internalType": "address",
          "name": "",
          "type": "address"
        }
      ],
      "stateMutability": "view",
      "type": "function"
    },
    {
      "inputs": [],
      "name": "renounceOwnership",
      "outputs": [],
      "stateMutability": "nonpayable",
      "type": "function"
    },
    {
      "inputs": [],
      "name": "symbol",
      "outputs": [
        {
          "internalType": "string",
          "name": "",
          "type": "string"
        }
      ],
      "stateMutability": "view",
      "type": "function"
    },
    {
      "inputs": [
        {
          "internalType": "address",
          "name": "_token",
          "type": "address"
        },
        {
          "internalType": "uint256",
          "name": "_amount",
          "type": "uint256"
        }
      ],
      "name": "transferBack",
      "outputs": [],
      "stateMutability": "nonpayable",
      "type": "function"
    },
    {
      "inputs": [
        {
          "internalType": "address",
          "name": "newOwner",
          "type": "address"
        }
      ],
      "name": "transferOwnership",
      "outputs": [],
      "stateMutability": "nonpayable",
      "type": "function"
    },
    {
      "inputs": [
        {
          "internalType": "address[]",
          "name": "_config",
          "type": "address[]"
        }
      ],
      "name": "setConfig",
      "outputs": [],
      "stateMutability": "nonpayable",
      "type": "function"
    },
    {
      "inputs": [
        {
          "internalType": "address[]",
          "name": "_creamtokens",
          "type": "address[]"
        }
      ],
      "name": "setCreamTokens",
      "outputs": [],
      "stateMutability": "nonpayable",
      "type": "function"
    },
    {
      "inputs": [
        {
          "internalType": "address[]",
          "name": "_stablecoins",
          "type": "address[]"
        }
      ],
      "name": "setStableCoins",
      "outputs": [],
      "stateMutability": "nonpayable",
      "type": "function"
    },
    {
      "inputs": [
        {
          "internalType": "bool",
          "name": "_activable",
          "type": "bool"
        }
      ],
      "name": "setActivable",
      "outputs": [],
      "stateMutability": "nonpayable",
      "type": "function"
    },
    {
      "inputs": [],
      "name": "getPosition",
      "outputs": [
        {
          "components": [
            {
              "internalType": "uint256",
              "name": "pool_id",
              "type": "uint256"
            },
            {
              "internalType": "uint256",
              "name": "token_amount",
              "type": "uint256"
            },
            {
              "internalType": "uint256",
              "name": "token_a_amount",
              "type": "uint256"
            },
            {
              "internalType": "uint256",
              "name": "token_b_amount",
              "type": "uint256"
            },
            {
              "internalType": "uint256",
              "name": "lp_token_amount",
              "type": "uint256"
            },
            {
              "internalType": "uint256",
              "name": "crtoken_amount",
              "type": "uint256"
            },
            {
              "internalType": "uint256",
              "name": "supply_crtoken_amount",
              "type": "uint256"
            },
            {
              "internalType": "address",
              "name": "token",
              "type": "address"
            },
            {
              "internalType": "address",
              "name": "token_a",
              "type": "address"
            },
            {
              "internalType": "address",
              "name": "token_b",
              "type": "address"
            },
            {
              "internalType": "address",
              "name": "lp_token",
              "type": "address"
            },
            {
              "internalType": "address",
              "name": "supply_crtoken",
              "type": "address"
            },
            {
              "internalType": "address",
              "name": "borrowed_crtoken_a",
              "type": "address"
            },
            {
              "internalType": "address",
              "name": "borrowed_crtoken_b",
              "type": "address"
            },
            {
              "internalType": "uint256",
              "name": "max_amount_per_position",
              "type": "uint256"
            },
            {
              "internalType": "uint256",
              "name": "supply_funds_percentage",
              "type": "uint256"
            }
          ],
          "internalType": "struct HighLevelSystem.Position",
          "name": "",
          "type": "tuple"
        }
      ],
      "stateMutability": "view",
      "type": "function"
    },
    {
      "inputs": [],
      "name": "reblanceWithRepay",
      "outputs": [],
      "stateMutability": "nonpayable",
      "type": "function"
    },
    {
      "inputs": [],
      "name": "reblanceWithoutRepay",
      "outputs": [],
      "stateMutability": "nonpayable",
      "type": "function"
    },
    {
      "inputs": [],
      "name": "reblance",
      "outputs": [],
      "stateMutability": "nonpayable",
      "type": "function"
    },
    {
      "inputs": [],
      "name": "checkAddNewFunds",
      "outputs": [],
      "stateMutability": "nonpayable",
      "type": "function"
    },
    {
      "inputs": [],
      "name": "checkEntry",
      "outputs": [],
      "stateMutability": "nonpayable",
      "type": "function"
    },
    {
      "inputs": [],
      "name": "checkCurrentBorrowLimit",
      "outputs": [
        {
          "internalType": "uint256",
          "name": "",
          "type": "uint256"
        }
      ],
      "stateMutability": "nonpayable",
      "type": "function"
    },
    {
      "inputs": [],
      "name": "totalSupply",
      "outputs": [
        {
          "internalType": "uint256",
          "name": "",
          "type": "uint256"
        }
      ],
      "stateMutability": "view",
      "type": "function"
    },
    {
      "inputs": [
        {
          "internalType": "address",
          "name": "account",
          "type": "address"
        }
      ],
      "name": "balanceOf",
      "outputs": [
        {
          "internalType": "uint256",
          "name": "",
          "type": "uint256"
        }
      ],
      "stateMutability": "view",
      "type": "function"
    },
    {
      "inputs": [
        {
          "internalType": "address",
          "name": "recipient",
          "type": "address"
        },
        {
          "internalType": "uint256",
          "name": "amount",
          "type": "uint256"
        }
      ],
      "name": "transfer",
      "outputs": [
        {
          "internalType": "bool",
          "name": "",
          "type": "bool"
        }
      ],
      "stateMutability": "nonpayable",
      "type": "function"
    },
    {
      "inputs": [
        {
          "internalType": "address",
          "name": "spender",
          "type": "address"
        },
        {
          "internalType": "uint256",
          "name": "amount",
          "type": "uint256"
        }
      ],
      "name": "approve",
      "outputs": [
        {
          "internalType": "bool",
          "name": "",
          "type": "bool"
        }
      ],
      "stateMutability": "nonpayable",
      "type": "function"
    },
    {
      "inputs": [
        {
          "internalType": "address",
          "name": "owner",
          "type": "address"
        },
        {
          "internalType": "address",
          "name": "spender",
          "type": "address"
        }
      ],
      "name": "allowance",
      "outputs": [
        {
          "internalType": "uint256",
          "name": "",
          "type": "uint256"
        }
      ],
      "stateMutability": "view",
      "type": "function"
    },
    {
      "inputs": [
        {
          "internalType": "address",
          "name": "owner",
          "type": "address"
        },
        {
          "internalType": "address",
          "name": "buyer",
          "type": "address"
        },
        {
          "internalType": "uint256",
          "name": "numTokens",
          "type": "uint256"
        }
      ],
      "name": "transferFrom",
      "outputs": [
        {
          "internalType": "bool",
          "name": "",
          "type": "bool"
        }
      ],
      "stateMutability": "nonpayable",
      "type": "function"
    },
    {
      "inputs": [],
      "name": "getTotalAssets",
      "outputs": [
        {
          "internalType": "uint256",
          "name": "",
          "type": "uint256"
        }
      ],
      "stateMutability": "view",
      "type": "function"
    },
    {
      "inputs": [
        {
          "internalType": "address",
          "name": "_token",
          "type": "address"
        },
        {
          "internalType": "uint256",
          "name": "_deposit_amount",
          "type": "uint256"
        }
      ],
      "name": "deposit",
      "outputs": [
        {
          "internalType": "bool",
          "name": "",
          "type": "bool"
        }
      ],
      "stateMutability": "nonpayable",
      "type": "function"
    },
    {
      "inputs": [
        {
          "internalType": "uint256",
          "name": "_ptoken_amount",
          "type": "uint256"
        }
      ],
      "name": "getWithdrawAmount",
      "outputs": [
        {
          "internalType": "uint256",
          "name": "",
          "type": "uint256"
        }
      ],
      "stateMutability": "view",
      "type": "function"
    },
    {
      "inputs": [
        {
          "internalType": "uint256",
          "name": "_withdraw_amount",
          "type": "uint256"
        }
      ],
      "name": "withdraw",
      "outputs": [
        {
          "internalType": "bool",
          "name": "",
          "type": "bool"
        }
      ],
      "stateMutability": "nonpayable",
      "type": "function"
    }
  ],
  "bytecode": "0x60806040523480156200001157600080fd5b50604051620033eb380380620033eb833981016040819052620000349162000463565b600080546001600160a01b031916339081178255604051909182917f8be0079c531659141344cd1fd0a4f28419497f9722a3daafe3b4186f6b6457e0908290a350604051806102000160405280866000815181106200009757620000976200054f565b6020026020010151815260200160008152602001600081526020016000815260200160008152602001600081526020016000815260200185600081518110620000e457620000e46200054f565b60200260200101516001600160a01b03168152602001856001815181106200011057620001106200054f565b60200260200101516001600160a01b03168152602001856002815181106200013c576200013c6200054f565b60200260200101516001600160a01b03168152602001856003815181106200016857620001686200054f565b60200260200101516001600160a01b03168152602001856004815181106200019457620001946200054f565b60200260200101516001600160a01b0316815260200185600581518110620001c057620001c06200054f565b60200260200101516001600160a01b0316815260200185600681518110620001ec57620001ec6200054f565b60200260200101516001600160a01b03168152602001866001815181106200021857620002186200054f565b60200260200101518152602001866002815181106200023b576200023b6200054f565b6020908102919091018101519091528151600f558181015160105560408201516011556060820151601255608082015160135560a082015160145560c082015160155560e0820151601680546001600160a01b03199081166001600160a01b039384161790915561010080850151601780548416918516919091179055610120850151601880548416918516919091179055610140850151601980548416918516919091179055610160850151601a80548416918516919091179055610180850151601b805484169185169190911790556101a0850151601c8054909316908416179091556101c0840151601d556101e090930151601e5581546001600160a81b0319169516909102939093176001179092556021555062000565915050565b634e487b7160e01b600052604160045260246000fd5b604051601f8201601f191681016001600160401b03811182821017156200039c576200039c6200035b565b604052919050565b60006001600160401b03821115620003c057620003c06200035b565b5060051b60200190565b80516001600160a01b0381168114620003e257600080fd5b919050565b600082601f830112620003f957600080fd5b81516020620004126200040c83620003a4565b62000371565b82815260059290921b840181019181810190868411156200043257600080fd5b8286015b8481101562000458576200044a81620003ca565b835291830191830162000436565b509695505050505050565b600080600080600060a086880312156200047c57600080fd5b85516001600160401b03808211156200049457600080fd5b818801915088601f830112620004a957600080fd5b81516020620004bc6200040c83620003a4565b82815260059290921b8401810191818101908c841115620004dc57600080fd5b948201945b83861015620004fc57855182529482019490820190620004e1565b918b01519199509093505050808211156200051657600080fd5b506200052588828901620003e7565b9450506200053660408701620003ca565b6060870151608090970151959894975095949392505050565b634e487b7160e01b600052603260045260246000fd5b612e7680620005756000396000f3fe608060405234801561001057600080fd5b50600436106101755760003560e01c806306fdde031461017a578063095ea7b3146101ba57806318160ddd146101dd5780632377e6cb146101ef57806323b872dd146101f95780632e1a7d4d1461020c578063313ce5671461021f578063456bbd251461023957806347e7ef241461024c5780634e06680f1461025f5780634ec48b5e146102675780634ec9a6ab1461027a5780636e07302b1461028257806370a082311461028a578063715018a61461029d5780637398ab18146102a557806377b76ec3146102ba5780638ca5f772146102cd5780638da5cb5b146102e057806395d89b41146102f9578063a9059cbb1461031e578063b88b742514610331578063c8f2835f14610344578063cc3ddc9014610357578063cde48ea714610364578063d6df4eee1461036c578063dd62ed3e14610374578063de3a5130146103ad578063e445dc43146103c0578063ed18fbde146103d3578063f2fde38b146103db575b600080fd5b6101a46040518060400160405280600b81526020016a283937b7b3103a37b5b2b760a91b81525081565b6040516101b191906123b6565b60405180910390f35b6101cd6101c8366004612420565b6103ee565b60405190151581526020016101b1565b601f545b6040519081526020016101b1565b6101f761045b565b005b6101cd61020736600461244c565b6106c8565b6101cd61021a36600461248d565b61080a565b610227601281565b60405160ff90911681526020016101b1565b6101f7610247366004612515565b610bd5565b6101cd61025a366004612420565b610cc7565b6101f7610f54565b6101f76102753660046125d4565b611057565b6101f7611094565b6101e1611126565b6101e16102983660046125f1565b6113b0565b6101f76113cb565b6102ad61142d565b6040516101b1919061261b565b6101e16102c8366004612712565b6115c2565b6101e16102db36600461274b565b611641565b6000546001600160a01b03166040516101b19190612796565b6101a460405180604001604052806006815260200165382a37b5b2b760d11b81525081565b6101cd61032c366004612420565b6116ce565b6101f761033f366004612515565b61176f565b6101f7610352366004612420565b61192d565b6020546101cd9060ff1681565b6101f7611a5f565b6101e1611b8a565b6101e1610382366004612712565b6001600160a01b03918216600090815260246020908152604080832093909416825291909152205490565b6101f76103bb366004612515565b611c4b565b6101e16103ce36600461248d565b611da9565b6101f7611de0565b6101f76103e93660046125f1565b611f0b565b3360008181526024602090815260408083206001600160a01b038716808552925280832085905551919290917f8c5be1e5ebec7d5bd14f71427d1e84f3dd0314c0f7b2291e5b200ac8c7c3b925906104499086815260200190565b60405180910390a35060015b92915050565b6000546001600160a01b0316331461048e5760405162461bcd60e51b8152600401610485906127aa565b60405180910390fd5b60205460ff1615156001146104b55760405162461bcd60e51b8152600401610485906127df565b60405163122aa6b560e01b815273__HighLevelSystem_______________________9063122aa6b5906104f890600190600690600990600f9084906004016129e6565b6102006040518083038186803b15801561051157600080fd5b505af4158015610525573d6000803e3d6000fd5b505050506040513d601f19601f820116820180604052508101906105499190612a3a565b506040516338f2e95d60e21b815273__HighLevelSystem_______________________9063e3cba5749061058d90600190600690600990600f9084906004016129e6565b6102006040518083038186803b1580156105a657600080fd5b505af41580156105ba573d6000803e3d6000fd5b505050506040513d601f19601f820116820180604052508101906105de9190612a3a565b8051600f55602081015160105560408101516011556060810151601255608081015160135560a081015160145560c081015160155560e0810151601680546001600160a01b03199081166001600160a01b0393841617909155610100830151601780548316918416919091179055610120830151601880548316918416919091179055610140830151601980548316918416919091179055610160830151601a80548316918416919091179055610180830151601b805483169184169190911790556101a0830151601c805490921692169190911790556101c0810151601d556101e00151601e55565b6001600160a01b0383166000908152602360205260408120548211156106ed57600080fd5b6001600160a01b038416600090815260246020908152604080832033845290915290205482111561071d57600080fd5b6001600160a01b0384166000908152602360205260409020546107409083611f41565b6001600160a01b03851660009081526023602090815260408083209390935560248152828220338352905220546107779083611f41565b6001600160a01b0380861660009081526024602090815260408083203384528252808320949094559186168152602390915220546107b59083611f83565b6001600160a01b038085166000818152602360205260409081902093909355915190861690600080516020612e21833981519152906107f79086815260200190565b60405180910390a35060015b9392505050565b60205460009060ff1615156001146108345760405162461bcd60e51b8152600401610485906127df565b61083d336113b0565b8211156108885760405162461bcd60e51b81526020600482015260196024820152782bb937b7339030b6b7bab73a103a37903bb4ba34323930bb9760391b6044820152606401610485565b6016546040516370a0823160e01b81526000916001600160a01b0316906370a08231906108b9903090600401612796565b60206040518083038186803b1580156108d157600080fd5b505afa1580156108e5573d6000803e3d6000fd5b505050506040513d601f19601f820116820180604052508101906109099190612b31565b90506000610915611126565b9050600061092e6109268684611fe0565b601f5461205f565b90506000838211156109d45760405163122aa6b560e01b815273__HighLevelSystem_______________________9063122aa6b59061097d90600190600690600990600f9084906004016129e6565b6102006040518083038186803b15801561099657600080fd5b505af41580156109aa573d6000803e3d6000fd5b505050506040513d601f19601f820116820180604052508101906109ce9190612a3a565b50600190505b6109de338761209e565b5060006109f66109ef601485611fe0565b606461205f565b90506000610a086109ef605086611fe0565b6016546020546040516323b872dd60e01b81529293506001600160a01b03918216926323b872dd92610a4a923092610100909104909116908790600401612b4a565b602060405180830381600087803b158015610a6457600080fd5b505af1158015610a78573d6000803e3d6000fd5b505050506040513d601f19601f82011682018060405250810190610a9c9190612b6e565b506016546040516323b872dd60e01b81526001600160a01b03909116906323b872dd90610ad190309033908690600401612b4a565b602060405180830381600087803b158015610aeb57600080fd5b505af1158015610aff573d6000803e3d6000fd5b505050506040513d601f19601f82011682018060405250810190610b239190612b6e565b5060018315151415610bc5576040516338f2e95d60e21b815273__HighLevelSystem_______________________9063e3cba57490610b7290600190600690600990600f9084906004016129e6565b6102006040518083038186803b158015610b8b57600080fd5b505af4158015610b9f573d6000803e3d6000fd5b505050506040513d601f19601f82011682018060405250810190610bc39190612a3a565b505b600196505050505050505b919050565b6000546001600160a01b03163314610bff5760405162461bcd60e51b8152600401610485906127aa565b80600081518110610c1257610c12612b8b565b6020026020010151600660000160006101000a8154816001600160a01b0302191690836001600160a01b0316021790555080600181518110610c5657610c56612b8b565b6020026020010151600660010160006101000a8154816001600160a01b0302191690836001600160a01b0316021790555080600281518110610c9a57610c9a612b8b565b6020908102919091010151600880546001600160a01b0319166001600160a01b0390921691909117905550565b60205460009060ff161515600114610cf15760405162461bcd60e51b8152600401610485906127df565b6021546016546040805163313ce56760e01b81529051610d8393926001600160a01b03169163313ce567916004808301926020929190829003018186803b158015610d3b57600080fd5b505afa158015610d4f573d6000803e3d6000fd5b505050506040513d601f19601f82011682018060405250810190610d739190612ba1565b610d7e90600a612cbe565b611fe0565b821115610dc65760405162461bcd60e51b81526020600482015260116024820152704465706f73697420746f6f206d7563682160781b6044820152606401610485565b6016546001600160a01b03848116911614610e1d5760405162461bcd60e51b81526020600482015260176024820152762bb937b733903a37b5b2b7103a37903232b837b9b4ba1760491b6044820152606401610485565b60008211610e785760405162461bcd60e51b815260206004820152602260248201527f4465706f73697420616d6f756e74206d75737420626967676572207468616e20604482015261181760f11b6064820152608401610485565b6000610e82611126565b9050600080601f541115610eac57610ea5610e9f85601f54611fe0565b8361205f565b9050610eaf565b50825b610eb933826121e1565b506016546040516323b872dd60e01b81526001600160a01b03909116906323b872dd90610eee90339030908990600401612b4a565b602060405180830381600087803b158015610f0857600080fd5b505af1158015610f1c573d6000803e3d6000fd5b505050506040513d601f19601f82011682018060405250810190610f409190612b6e565b50610f49610f54565b506001949350505050565b6016546040516370a0823160e01b81526000916001600160a01b0316906370a0823190610f85903090600401612796565b60206040518083038186803b158015610f9d57600080fd5b505afa158015610fb1573d6000803e3d6000fd5b505050506040513d601f19601f82011682018060405250810190610fd59190612b31565b6022546016546040805163313ce56760e01b8152905193945060009361102593926001600160a01b03169163313ce567916004808301926020929190829003018186803b158015610d3b57600080fd5b905080821061104b5760115415801561103e5750601254155b1561104f5761104b611094565b5050565b61104b61045b565b6000546001600160a01b031633146110815760405162461bcd60e51b8152600401610485906127aa565b6020805460ff1916911515919091179055565b6000546001600160a01b031633146110be5760405162461bcd60e51b8152600401610485906127aa565b60205460ff1615156001146110e55760405162461bcd60e51b8152600401610485906127df565b604051639e0a966560e01b815273__HighLevelSystem_______________________90639e0a96659061058d90600190600690600990600f90600401612ccd565b601b54601c5460405163ce81e37d60e01b81526000928392839273__HighLevelSystem_______________________9263ce81e37d92611179926006926001600160a01b03908116921690600401612d05565b604080518083038186803b15801561119057600080fd5b505af41580156111a4573d6000803e3d6000fd5b505050506040513d601f19601f820116820180604052508101906111c89190612d35565b600f546040516325a6bc8160e11b815292945090925060009173__HighLevelSystem_______________________91634b4d79029161120c91600191600401612d59565b60206040518083038186803b15801561122457600080fd5b505af4158015611238573d6000803e3d6000fd5b505050506040513d601f19601f8201168201806040525081019061125c9190612b31565b905060008073__HighLevelSystem_______________________63de87fccf6001600f6040518363ffffffff1660e01b815260040161129c929190612d74565b604080518083038186803b1580156112b357600080fd5b505af41580156112c7573d6000803e3d6000fd5b505050506040513d601f19601f820116820180604052508101906112eb9190612d35565b91509150600061130d6112fe8484611f83565b6113088888611f83565b611f41565b90506113198185611f83565b6016546040516370a0823160e01b81529192506113a59183916001600160a01b0316906370a0823190611350903090600401612796565b60206040518083038186803b15801561136857600080fd5b505afa15801561137c573d6000803e3d6000fd5b505050506040513d601f19601f820116820180604052508101906113a09190612b31565b611f83565b979650505050505050565b6001600160a01b031660009081526023602052604090205490565b6000546001600160a01b031633146113f55760405162461bcd60e51b8152600401610485906127aa565b600080546040516001600160a01b0390911690600080516020612e01833981519152908390a3600080546001600160a01b0319169055565b6114ec6040518061020001604052806000815260200160008152602001600081526020016000815260200160008152602001600081526020016000815260200160006001600160a01b0316815260200160006001600160a01b0316815260200160006001600160a01b0316815260200160006001600160a01b0316815260200160006001600160a01b0316815260200160006001600160a01b0316815260200160006001600160a01b0316815260200160008152602001600081525090565b6000546001600160a01b031633146115165760405162461bcd60e51b8152600401610485906127aa565b506040805161020081018252600f5481526010546020820152601154918101919091526012546060820152601354608082015260145460a082015260155460c08201526016546001600160a01b0390811660e0830152601754811661010083015260185481166101208301526019548116610140830152601a548116610160830152601b548116610180830152601c54166101a0820152601d546101c0820152601e546101e082015290565b6040516370a0823160e01b81526000906001600160a01b038416906370a08231906115f1908590600401612796565b60206040518083038186803b15801561160957600080fd5b505afa15801561161d573d6000803e3d6000fd5b505050506040513d601f19601f820116820180604052508101906108039190612b31565b604051636eb1769f60e11b81526001600160a01b03838116600483015282811660248301526000919085169063dd62ed3e9060440160206040518083038186803b15801561168e57600080fd5b505afa1580156116a2573d6000803e3d6000fd5b505050506040513d601f19601f820116820180604052508101906116c69190612b31565b949350505050565b336000908152602360205260408120548211156116ea57600080fd5b336000908152602360205260409020546117049083611f41565b33600090815260236020526040808220929092556001600160a01b038516815220546117309083611f83565b6001600160a01b038416600081815260236020526040908190209290925590513390600080516020612e21833981519152906104499086815260200190565b6000546001600160a01b031633146117995760405162461bcd60e51b8152600401610485906127aa565b806000815181106117ac576117ac612b8b565b6020026020010151600960000160006101000a8154816001600160a01b0302191690836001600160a01b03160217905550806001815181106117f0576117f0612b8b565b6020026020010151600960010160006101000a8154816001600160a01b0302191690836001600160a01b031602179055508060028151811061183457611834612b8b565b6020026020010151600960020160006101000a8154816001600160a01b0302191690836001600160a01b031602179055508060038151811061187857611878612b8b565b6020026020010151600960030160006101000a8154816001600160a01b0302191690836001600160a01b03160217905550806004815181106118bc576118bc612b8b565b6020026020010151600960040160006101000a8154816001600160a01b0302191690836001600160a01b031602179055508060058151811061190057611900612b8b565b6020908102919091010151600e80546001600160a01b0319166001600160a01b0390921691909117905550565b6000546001600160a01b031633146119575760405162461bcd60e51b8152600401610485906127aa565b60405163095ea7b360e01b8152306004820152602481018290526001600160a01b0383169063095ea7b390604401602060405180830381600087803b15801561199f57600080fd5b505af11580156119b3573d6000803e3d6000fd5b505050506040513d601f19601f820116820180604052508101906119d79190612b6e565b506040516323b872dd60e01b81526001600160a01b038316906323b872dd90611a0890309033908690600401612b4a565b602060405180830381600087803b158015611a2257600080fd5b505af1158015611a36573d6000803e3d6000fd5b505050506040513d601f19601f82011682018060405250810190611a5a9190612b6e565b505050565b6000546001600160a01b03163314611a895760405162461bcd60e51b8152600401610485906127aa565b60205460ff161515600114611ab05760405162461bcd60e51b8152600401610485906127df565b60405163122aa6b560e01b815273__HighLevelSystem_______________________9063122aa6b590611af490600190600690600990600f906003906004016129e6565b6102006040518083038186803b158015611b0d57600080fd5b505af4158015611b21573d6000803e3d6000fd5b505050506040513d601f19601f82011682018060405250810190611b459190612a3a565b506040516338f2e95d60e21b815273__HighLevelSystem_______________________9063e3cba5749061058d90600190600690600990600f906003906004016129e6565b600080546001600160a01b03163314611bb55760405162461bcd60e51b8152600401610485906127aa565b604051631329ef7d60e21b815273__HighLevelSystem_______________________90634ca7bdf490611bf690600190600690600990600f90600401612ccd565b60206040518083038186803b158015611c0e57600080fd5b505af4158015611c22573d6000803e3d6000fd5b505050506040513d601f19601f82011682018060405250810190611c469190612b31565b905090565b6000546001600160a01b03163314611c755760405162461bcd60e51b8152600401610485906127aa565b80600081518110611c8857611c88612b8b565b6020908102919091010151600180546001600160a01b0319166001600160a01b0390921691909117815581518291908110611cc557611cc5612b8b565b6020908102919091010151600280546001600160a01b0319166001600160a01b0390921691909117815581518291908110611d0257611d02612b8b565b6020908102919091010151600380546001600160a01b0319166001600160a01b0390921691909117815581518291908110611d3f57611d3f612b8b565b6020908102919091010151600480546001600160a01b0319166001600160a01b0390921691909117815581518291908110611d7c57611d7c612b8b565b6020908102919091010151600580546001600160a01b0319166001600160a01b0390921691909117905550565b600080611db4611126565b90506000611dc56109268584611fe0565b90506000611dd76109ef605084611fe0565b95945050505050565b6000546001600160a01b03163314611e0a5760405162461bcd60e51b8152600401610485906127aa565b60205460ff161515600114611e315760405162461bcd60e51b8152600401610485906127df565b60405163122aa6b560e01b815273__HighLevelSystem_______________________9063122aa6b590611e7590600190600690600990600f906002906004016129e6565b6102006040518083038186803b158015611e8e57600080fd5b505af4158015611ea2573d6000803e3d6000fd5b505050506040513d601f19601f82011682018060405250810190611ec69190612a3a565b506040516338f2e95d60e21b815273__HighLevelSystem_______________________9063e3cba5749061058d90600190600690600990600f906002906004016129e6565b6000546001600160a01b03163314611f355760405162461bcd60e51b8152600401610485906127aa565b611f3e816122a9565b50565b600061080383836040518060400160405280601e81526020017f536166654d6174683a207375627472616374696f6e206f766572666c6f770000815250612357565b600080611f908385612d90565b9050838110156108035760405162461bcd60e51b815260206004820152601b60248201527a536166654d6174683a206164646974696f6e206f766572666c6f7760281b6044820152606401610485565b600082611fef57506000610455565b6000611ffb8385612da8565b9050826120088583612dc7565b146108035760405162461bcd60e51b815260206004820152602160248201527f536166654d6174683a206d756c7469706c69636174696f6e206f766572666c6f6044820152607760f81b6064820152608401610485565b600061080383836040518060400160405280601a815260200179536166654d6174683a206469766973696f6e206279207a65726f60301b815250612388565b60006001600160a01b0383166121005760405162461bcd60e51b815260206004820152602160248201527f45524332303a206275726e2066726f6d20746865207a65726f206164647265736044820152607360f81b6064820152608401610485565b6001600160a01b038316600090815260236020526040902054828110156121745760405162461bcd60e51b815260206004820152602260248201527f45524332303a206275726e20616d6f756e7420657863656564732062616c616e604482015261636560f01b6064820152608401610485565b6001600160a01b03841660009081526023602052604081208483039055601f80548592906121a3908490612de9565b90915550506040518381526000906001600160a01b03861690600080516020612e218339815191529060200160405180910390a35060019392505050565b60006001600160a01b0383166122395760405162461bcd60e51b815260206004820152601f60248201527f45524332303a206d696e7420746f20746865207a65726f2061646472657373006044820152606401610485565b81601f600082825461224b9190612d90565b90915550506001600160a01b03831660009081526023602052604081208054849290612278908490612d90565b90915550506040518281526001600160a01b03841690600090600080516020612e2183398151915290602001610449565b6001600160a01b03811661230e5760405162461bcd60e51b815260206004820152602660248201527f4f776e61626c653a206e6577206f776e657220697320746865207a65726f206160448201526564647265737360d01b6064820152608401610485565b600080546040516001600160a01b0380851693921691600080516020612e0183398151915291a3600080546001600160a01b0319166001600160a01b0392909216919091179055565b6000818484111561237b5760405162461bcd60e51b815260040161048591906123b6565b506000611dd78486612de9565b600081836123a95760405162461bcd60e51b815260040161048591906123b6565b506000611dd78486612dc7565b600060208083528351808285015260005b818110156123e3578581018301518582016040015282016123c7565b818111156123f5576000604083870101525b50601f01601f1916929092016040019392505050565b6001600160a01b0381168114611f3e57600080fd5b6000806040838503121561243357600080fd5b823561243e8161240b565b946020939093013593505050565b60008060006060848603121561246157600080fd5b833561246c8161240b565b9250602084013561247c8161240b565b929592945050506040919091013590565b60006020828403121561249f57600080fd5b5035919050565b634e487b7160e01b600052604160045260246000fd5b60405161020081016001600160401b03811182821017156124df576124df6124a6565b60405290565b604051601f8201601f191681016001600160401b038111828210171561250d5761250d6124a6565b604052919050565b6000602080838503121561252857600080fd5b82356001600160401b038082111561253f57600080fd5b818501915085601f83011261255357600080fd5b813581811115612565576125656124a6565b8060051b91506125768483016124e5565b818152918301840191848101908884111561259057600080fd5b938501935b838510156125ba57843592506125aa8361240b565b8282529385019390850190612595565b98975050505050505050565b8015158114611f3e57600080fd5b6000602082840312156125e657600080fd5b8135610803816125c6565b60006020828403121561260357600080fd5b81356108038161240b565b6001600160a01b03169052565b600061020082019050825182526020830151602083015260408301516040830152606083015160608301526080830151608083015260a083015160a083015260c083015160c083015260e083015161267660e084018261260e565b506101008084015161268a8285018261260e565b50506101208084015161269f8285018261260e565b5050610140808401516126b48285018261260e565b5050610160808401516126c98285018261260e565b5050610180808401516126de8285018261260e565b50506101a0808401516126f38285018261260e565b50506101c083810151908301526101e092830151929091019190915290565b6000806040838503121561272557600080fd5b82356127308161240b565b915060208301356127408161240b565b809150509250929050565b60008060006060848603121561276057600080fd5b833561276b8161240b565b9250602084013561277b8161240b565b9150604084013561278b8161240b565b809150509250925092565b6001600160a01b0391909116815260200190565b6020808252818101527f4f776e61626c653a2063616c6c6572206973206e6f7420746865206f776e6572604082015260600190565b60208082526019908201527821b0b9b42137bc1034b9903737ba1030b1ba34bb30b136329760391b604082015260600190565b6001600160a01b031690565b80546001600160a01b03908116835260018201548116602084015260029091015416604090910152565b80546001600160a01b039081168352600182015416602083015261104b604083016002830161281e565b80546001600160a01b039081168352600182015481166020840152600282015481166040840152600382015481166060840152600482015416608083015260058101546128be90612812565b611a5a60a084018261260e565b8054825260018101546020830152600281015460408301526003810154606083015260048101546080830152600581015460a0830152600681015460c08301526129186007820154612812565b61292560e084018261260e565b506129336008820154612812565b61294161010084018261260e565b5061294f6009820154612812565b61295d61012084018261260e565b5061296b600a820154612812565b61297961014084018261260e565b50612987600b820154612812565b61299561016084018261260e565b506129a3600c820154612812565b6129b161018084018261260e565b506129bf600d820154612812565b6129cd6101a084018261260e565b50600e8101546101c0830152600f01546101e090910152565b6103e081016129f58288612848565b612a0260a083018761281e565b612a10610100830186612872565b612a1e6101c08301856128cb565b826103c08301529695505050505050565b8051610bd08161240b565b60006102008284031215612a4d57600080fd5b612a556124bc565b825181526020830151602082015260408301516040820152606083015160608201526080830151608082015260a083015160a082015260c083015160c0820152612aa160e08401612a2f565b60e0820152610100612ab4818501612a2f565b90820152610120612ac6848201612a2f565b90820152610140612ad8848201612a2f565b90820152610160612aea848201612a2f565b90820152610180612afc848201612a2f565b908201526101a0612b0e848201612a2f565b908201526101c083810151908201526101e0928301519281019290925250919050565b600060208284031215612b4357600080fd5b5051919050565b6001600160a01b039384168152919092166020820152604081019190915260600190565b600060208284031215612b8057600080fd5b8151610803816125c6565b634e487b7160e01b600052603260045260246000fd5b600060208284031215612bb357600080fd5b815160ff8116811461080357600080fd5b634e487b7160e01b600052601160045260246000fd5b600181815b80851115612c15578160001904821115612bfb57612bfb612bc4565b80851615612c0857918102915b93841c9390800290612bdf565b509250929050565b600082612c2c57506001610455565b81612c3957506000610455565b8160018114612c4f5760028114612c5957612c75565b6001915050610455565b60ff841115612c6a57612c6a612bc4565b50506001821b610455565b5060208310610133831016604e8410600b8410161715612c98575081810a610455565b612ca28383612bda565b8060001904821115612cb657612cb6612bc4565b029392505050565b600061080360ff841683612c1d565b6103c08101612cdc8287612848565b612ce960a083018661281e565b612cf7610100830185612872565b611dd76101c08301846128cb565b60a08101612d13828661281e565b6001600160a01b03938416606083015291909216608090920191909152919050565b60008060408385031215612d4857600080fd5b505080516020909101519092909150565b60c08101612d678285612848565b8260a08301529392505050565b6102a08101612d838285612848565b61080360a08301846128cb565b60008219821115612da357612da3612bc4565b500190565b6000816000190483118215151615612dc257612dc2612bc4565b500290565b600082612de457634e487b7160e01b600052601260045260246000fd5b500490565b600082821015612dfb57612dfb612bc4565b50039056fe8be0079c531659141344cd1fd0a4f28419497f9722a3daafe3b4186f6b6457e0ddf252ad1be2c89b69c2b068fc378daa952ba7f163c4a11628f55a4df523b3efa26469706673582212205d509c175557fb88e958460dd330a955acc85d54706fa2b4da42934a63ba950964736f6c63430008090033",
  "immutableReferences": {},
  "source": "// SPDX-License-Identifier: MIT\npragma solidity >=0.8;\n\nimport \"./token/BEP20/IBEP20.sol\";\nimport \"./math/SafeMath.sol\";\nimport \"./utils/BasicContract.sol\";\nimport { HighLevelSystem } from \"./libs/HighLevelSystem.sol\";\n\n/// @title CashBox\n/// @author Andrew FU\n/// @dev All functions haven't finished unit test\ncontract CashBox is BasicContract {\n     \n    using SafeMath for uint;\n    // using HighLevelSystem for HighLevelSystem.HLSConfig;\n    // using HighLevelSystem for HighLevelSystem.CreamToken;\n    // using HighLevelSystem for HighLevelSystem.StableCoin;\n    // using HighLevelSystem for HighLevelSystem.Position;\n    \n    // Link\n    // address private link_oracle;\n    \n    // Cream\n    // address private constant cream_oracle = 0xab548FFf4Db8693c999e98551C756E6C2948C408;\n    // address private constant cream_troller = 0x589DE0F0Ccf905477646599bb3E5C622C84cC0BA;\n    \n    // PancakeSwap\n    // address private constant ROUTER = 0x10ED43C718714eb63d5aA57B78B54704E256024E;\n    // address private constant FACTORY = 0xcA143Ce32Fe78f1f7019d7d551a6402fC5350c73;\n    // address private constant MASTERCHEF = 0x73feaa1eE314F8c655E354234017bE2193C9E24E;\n    \n    // Cream token\n    // address private constant crWBNB = 0x15CC701370cb8ADA2a2B6f4226eC5CF6AA93bC67;\n    // address private constant crBNB = 0x1Ffe17B99b439bE0aFC831239dDECda2A790fF3A;\n    // address private constant crUSDC = 0xD83C88DB3A6cA4a32FFf1603b0f7DDce01F5f727;\n    \n    // StableCoin\n    // address private constant WBNB = 0xbb4CdB9CBd36B01bD1cBaEBF2De08d9173bc095c;\n    // address private constant BNB = 0xcA143Ce32Fe78f1f7019d7d551a6402fC5350c73;\n    // address private constant USDT = 0x55d398326f99059fF775485246999027B3197955;\n    // address private constant TUSD = 0x14016E85a25aeb13065688cAFB43044C2ef86784;\n    // address private constant BUSD = 0xe9e7CEA3DedcA5984780Bafc599bD69ADd087D56;\n    // address private constant USDC = 0x8AC76a51cc950d9822D68b83fE1Ad97B32Cd580d;\n    \n    HighLevelSystem.HLSConfig private HLSConfig;\n    HighLevelSystem.CreamToken private CreamToken;\n    HighLevelSystem.StableCoin private StableCoin;\n    HighLevelSystem.Position private position;\n    \n    using SafeMath for uint256;\n    string public constant name = \"Proof token\";\n    string public constant symbol = \"pToken\";\n    uint8 public constant decimals = 18;\n    uint256 private totalSupply_;\n    \n    bool public activable;\n    address private dofin;\n    uint private deposit_limit;\n    uint private add_funds_condition;\n    \n    event Approval(address indexed tokenOwner, address indexed spender, uint tokens);\n    event Transfer(address indexed from, address indexed to, uint tokens);\n    \n    mapping(address => uint256) private balances;\n    mapping(address => mapping (address => uint256)) private allowed;\n     \n    // constructor(address[] memory _config, address[] memory _creamtokens, address[] memory _stablecoins, uint[] memory _uints, address[] memory _addrs, address _dofin, uint _deposit_limit, uint _add_funds_condition) {\n    //     setConfig(_config);\n    //     setCreamTokens(_creamtokens);\n    //     setStableCoins(_stablecoins);\n    //     position = HighLevelSystem.Position({\n    //         pool_id: _uints[0],\n    //         token_amount: 0,\n    //         token_a_amount: 0,\n    //         token_b_amount: 0,\n    //         lp_token_amount: 0,\n    //         crtoken_amount: 0,\n    //         supply_crtoken_amount: 0,\n    //         token: _addrs[0],\n    //         token_a: _addrs[1],\n    //         token_b: _addrs[2],\n    //         lp_token: _addrs[3],\n    //         supply_crtoken: _addrs[4],\n    //         borrowed_crtoken_a: _addrs[5],\n    //         borrowed_crtoken_b: _addrs[6],\n    //         max_amount_per_position: _uints[1],\n    //         supply_funds_percentage: _uints[2]\n    //     });\n        \n    //     activable = true;\n    //     dofin = _dofin;\n    //     deposit_limit = _deposit_limit;\n    //     add_funds_condition = add_funds_condition;\n    // }\n\n    constructor(uint[] memory _uints, address[] memory _addrs, address _dofin, uint _deposit_limit, uint _add_funds_condition) {\n        position = HighLevelSystem.Position({\n            pool_id: _uints[0],\n            token_amount: 0,\n            token_a_amount: 0,\n            token_b_amount: 0,\n            lp_token_amount: 0,\n            crtoken_amount: 0,\n            supply_crtoken_amount: 0,\n            token: _addrs[0],\n            token_a: _addrs[1],\n            token_b: _addrs[2],\n            lp_token: _addrs[3],\n            supply_crtoken: _addrs[4],\n            borrowed_crtoken_a: _addrs[5],\n            borrowed_crtoken_b: _addrs[6],\n            max_amount_per_position: _uints[1],\n            supply_funds_percentage: _uints[2]\n        });\n        \n        activable = true;\n        dofin = _dofin;\n        deposit_limit = _deposit_limit;\n        add_funds_condition = add_funds_condition;\n    }\n\n    modifier checkActivable() {\n        require(activable == true, 'CashBox is not activable.');\n        _;\n    }\n    \n    function setConfig(address[] memory _config) public onlyOwner {\n        HLSConfig.LinkConfig.oracle = _config[0];\n        HLSConfig.CreamConfig.oracle = _config[1];\n        HLSConfig.PancakeSwapConfig.router = _config[2];\n        HLSConfig.PancakeSwapConfig.factory = _config[3];\n        HLSConfig.PancakeSwapConfig.masterchef = _config[4];\n    }\n    \n    function setCreamTokens(address[] memory _creamtokens) public onlyOwner {\n        CreamToken.crWBNB = _creamtokens[0];\n        CreamToken.crBNB = _creamtokens[1];\n        CreamToken.crUSDC = _creamtokens[2];\n    }\n    \n    function setStableCoins(address[] memory _stablecoins) public onlyOwner {\n        StableCoin.WBNB = _stablecoins[0];\n        StableCoin.BNB = _stablecoins[1];\n        StableCoin.USDT = _stablecoins[2];\n        StableCoin.TUSD = _stablecoins[3];\n        StableCoin.BUSD = _stablecoins[4];\n        StableCoin.USDC = _stablecoins[5];\n    }\n\n    function setActivable(bool _activable) public onlyOwner {\n        \n        activable = _activable;\n    }\n    \n    function getPosition() public onlyOwner view returns(HighLevelSystem.Position memory) {\n        \n        return position;\n    }\n    \n    function reblanceWithRepay() public onlyOwner checkActivable {\n        HighLevelSystem.exitPosition(HLSConfig, CreamToken, StableCoin, position, 3);\n        position = HighLevelSystem.enterPosition(HLSConfig, CreamToken, StableCoin, position, 3);\n    }\n    \n    function reblanceWithoutRepay() public onlyOwner checkActivable {\n        HighLevelSystem.exitPosition(HLSConfig, CreamToken, StableCoin, position, 2);\n        position = HighLevelSystem.enterPosition(HLSConfig, CreamToken, StableCoin, position, 2);\n    }\n    \n    function reblance() public onlyOwner checkActivable  {\n        HighLevelSystem.exitPosition(HLSConfig, CreamToken, StableCoin, position, 1);\n        position = HighLevelSystem.enterPosition(HLSConfig, CreamToken, StableCoin, position, 1);\n    }\n    \n    function checkAddNewFunds() public {\n        uint free_funds = IBEP20(position.token).balanceOf(address(this));\n        uint condition = SafeMath.mul(add_funds_condition, 10**IBEP20(position.token).decimals());\n        if (free_funds >= condition) {\n            if (position.token_a_amount == 0 && position.token_b_amount == 0) {\n                checkEntry();\n            } else {\n                reblance();\n            }\n        }\n    }\n    \n    function checkEntry() public onlyOwner checkActivable {\n        \n        position = HighLevelSystem.checkEntry(HLSConfig, CreamToken, StableCoin, position);\n    }\n    \n    function checkCurrentBorrowLimit() onlyOwner public returns (uint) {\n        \n        return HighLevelSystem.checkCurrentBorrowLimit(HLSConfig, CreamToken, StableCoin, position);\n    }\n    \n    function totalSupply() public view returns (uint256) {\n        \n        return totalSupply_;\n    }\n    \n    function balanceOf(address account) public view returns (uint) {\n        \n        return balances[account];\n    }\n\n    function transfer(address recipient, uint amount) public returns (bool) {\n        require(amount <= balances[msg.sender]);\n        balances[msg.sender] = balances[msg.sender].sub(amount);\n        balances[recipient] = balances[recipient].add(amount);\n        emit Transfer(msg.sender, recipient, amount);\n        return true;\n    }\n\n    function approve(address spender, uint amount) public returns (bool) {\n        allowed[msg.sender][spender] = amount;\n        emit Approval(msg.sender, spender, amount);\n        return true;\n    }\n\n    function allowance(address owner, address spender) public view returns (uint) {\n        \n        return allowed[owner][spender];\n    }\n\n    function transferFrom(address owner, address buyer, uint numTokens) public returns (bool) {\n        require(numTokens <= balances[owner]);    \n        require(numTokens <= allowed[owner][msg.sender]);\n    \n        balances[owner] = balances[owner].sub(numTokens);\n        allowed[owner][msg.sender] = allowed[owner][msg.sender].sub(numTokens);\n        balances[buyer] = balances[buyer].add(numTokens);\n        emit Transfer(owner, buyer, numTokens);\n        return true;\n    }\n    \n    function mint(address account, uint256 amount) internal returns (bool) {\n        require(account != address(0), \"ERC20: mint to the zero address\");\n\n        totalSupply_ += amount;\n        balances[account] += amount;\n        emit Transfer(address(0), account, amount);\n\n        return true;\n    }\n    \n    function burn(address account, uint256 amount) internal returns (bool) {\n        require(account != address(0), \"ERC20: burn from the zero address\");\n\n        uint256 accountBalance = balances[account];\n        require(accountBalance >= amount, \"ERC20: burn amount exceeds balance\");\n        unchecked {\n            balances[account] = accountBalance - amount;\n        }\n        totalSupply_ -= amount;\n        emit Transfer(account, address(0), amount);\n\n        return true;\n    }\n    \n    function getTotalAssets() public view returns (uint) {\n        // Cream borrowed amount\n        (uint crtoken_a_debt, uint crtoken_b_debt) = HighLevelSystem.getTotalBorrowAmount(CreamToken, position.borrowed_crtoken_a, position.borrowed_crtoken_b);\n        // PancakeSwap pending cake amount\n        uint pending_cake_amount = HighLevelSystem.getTotalCakePendingRewards(HLSConfig, position.pool_id);\n        // PancakeSwap staked amount\n        (uint token_a_amount, uint token_b_amount) = HighLevelSystem.getStakedTokens(HLSConfig, position);\n        \n        uint total_assets = SafeMath.sub(SafeMath.add(token_a_amount, token_b_amount), SafeMath.add(crtoken_a_debt, crtoken_b_debt));\n        total_assets = SafeMath.add(total_assets, pending_cake_amount);\n        total_assets = SafeMath.add(total_assets, IBEP20(position.token).balanceOf(address(this)));\n        return total_assets;\n    }\n    \n    function deposit(address _token, uint _deposit_amount) public checkActivable returns (bool) {\n        require(_deposit_amount <= SafeMath.mul(deposit_limit, 10**IBEP20(position.token).decimals()), \"Deposit too much!\");\n        require(_token == position.token, \"Wrong token to deposit.\");\n        require(_deposit_amount > 0, \"Deposit amount must bigger than 0.\");\n        \n        // Calculation of pToken amount need to mint\n        uint totalAssets = getTotalAssets();\n        uint shares;\n        if (totalSupply_ > 0) {\n            shares = SafeMath.div(SafeMath.mul(_deposit_amount, totalSupply_), totalAssets);\n        } else {\n            shares = _deposit_amount;\n        }\n        \n        // Mint pToken and transfer Token to cashbox\n        mint(msg.sender, shares);\n        IBEP20(position.token).transferFrom(msg.sender, address(this), _deposit_amount);\n        \n        // Check need to supply or not.\n        checkAddNewFunds();\n        \n        return true;\n    }\n    \n    function getWithdrawAmount(uint _ptoken_amount) public view returns (uint) {\n        uint totalAssets = getTotalAssets();\n        uint value = SafeMath.div(SafeMath.mul(_ptoken_amount, totalAssets), totalSupply_);\n        uint user_value = SafeMath.div(SafeMath.mul(80, value), 100);\n        \n        return user_value;\n    }\n    \n    function withdraw(uint _withdraw_amount) public checkActivable returns (bool) {\n        require(_withdraw_amount <= balanceOf(msg.sender), \"Wrong amount to withdraw.\");\n        \n        uint freeFunds = IBEP20(position.token).balanceOf(address(this));\n        uint totalAssets = getTotalAssets();\n        uint value = SafeMath.div(SafeMath.mul(_withdraw_amount, totalAssets), totalSupply_);\n        bool need_rebalance = false;\n        // If no enough amount of free funds can transfer will trigger exit position\n        if (value > freeFunds) {\n            HighLevelSystem.exitPosition(HLSConfig, CreamToken, StableCoin, position, 1);\n            need_rebalance = true;\n        }\n        \n        // Will charge 20% fees\n        burn(msg.sender, _withdraw_amount);\n        uint dofin_value = SafeMath.div(SafeMath.mul(20, value), 100);\n        uint user_value = SafeMath.div(SafeMath.mul(80, value), 100);\n        IBEP20(position.token).transferFrom(address(this), dofin, dofin_value);\n        IBEP20(position.token).transferFrom(address(this), msg.sender, user_value);\n        \n        if (need_rebalance == true) {\n            HighLevelSystem.enterPosition(HLSConfig, CreamToken, StableCoin, position, 1);\n        }\n        \n        return true;\n    }\n    \n}",
  "sourcePath": "/Users/andrew/Documents/Bitbucket/dofin-smart-contracts/contracts/CashBox.sol",
  "compiler": {
    "name": "solc",
    "version": "0.8.9+commit.e5eed63a.Emscripten.clang"
  },
  "schemaVersion": "3.4.3",
  "updatedAt": "2021-10-10T06:25:58.331Z",
  "devdoc": {
    "author": "Andrew FU",
    "details": "All functions haven't finished unit test",
    "kind": "dev",
    "methods": {
      "owner()": {
        "details": "Returns the address of the current owner."
      },
      "renounceOwnership()": {
        "details": "Leaves the contract without owner. It will not be possible to call `onlyOwner` functions anymore. Can only be called by the current owner. NOTE: Renouncing ownership will leave the contract without an owner, thereby removing any functionality that is only available to the owner."
      },
      "transferOwnership(address)": {
        "details": "Transfers ownership of the contract to a new account (`newOwner`). Can only be called by the current owner."
      }
    },
    "title": "CashBox",
    "version": 1
  },
  "userdoc": {
    "kind": "user",
    "methods": {},
    "version": 1
  }
}