{
  "contractName": "CreamExecution",
  "abi": [
    {
      "inputs": [
        {
          "internalType": "address",
          "name": "crtoken_address",
          "type": "address"
        }
      ],
      "name": "getAvailableBorrow",
      "outputs": [
        {
          "internalType": "uint256",
          "name": "",
          "type": "uint256"
        }
      ],
      "stateMutability": "view",
      "type": "function"
    },
    {
      "inputs": [
        {
          "internalType": "address",
          "name": "crtoken_address",
          "type": "address"
        }
      ],
      "name": "getBorrowRate",
      "outputs": [
        {
          "internalType": "uint256",
          "name": "",
          "type": "uint256"
        }
      ],
      "stateMutability": "view",
      "type": "function"
    },
    {
      "inputs": [
        {
          "internalType": "address",
          "name": "crtoken_address",
          "type": "address"
        }
      ],
      "name": "getSupplyRate",
      "outputs": [
        {
          "internalType": "uint256",
          "name": "",
          "type": "uint256"
        }
      ],
      "stateMutability": "view",
      "type": "function"
    },
    {
      "inputs": [
        {
          "internalType": "address",
          "name": "crtoken_address",
          "type": "address"
        },
        {
          "internalType": "address",
          "name": "crWBNB_address",
          "type": "address"
        }
      ],
      "name": "getBorrowAmount",
      "outputs": [
        {
          "internalType": "uint256",
          "name": "",
          "type": "uint256"
        }
      ],
      "stateMutability": "view",
      "type": "function"
    },
    {
      "inputs": [
        {
          "components": [
            {
              "internalType": "address",
              "name": "oracle",
              "type": "address"
            }
          ],
          "internalType": "struct CreamExecution.CreamConfig",
          "name": "self",
          "type": "tuple"
        },
        {
          "internalType": "address",
          "name": "crUSDC_address",
          "type": "address"
        }
      ],
      "name": "getUSDCBNBPrice",
      "outputs": [
        {
          "internalType": "uint256",
          "name": "",
          "type": "uint256"
        }
      ],
      "stateMutability": "view",
      "type": "function"
    },
    {
      "inputs": [
        {
          "components": [
            {
              "internalType": "address",
              "name": "oracle",
              "type": "address"
            }
          ],
          "internalType": "struct CreamExecution.CreamConfig",
          "name": "self",
          "type": "tuple"
        },
        {
          "internalType": "address",
          "name": "crtoken_address",
          "type": "address"
        }
      ],
      "name": "getCrTokenBalance",
      "outputs": [
        {
          "internalType": "uint256",
          "name": "",
          "type": "uint256"
        }
      ],
      "stateMutability": "view",
      "type": "function"
    },
    {
      "inputs": [
        {
          "components": [
            {
              "internalType": "address",
              "name": "oracle",
              "type": "address"
            }
          ],
          "internalType": "struct CreamExecution.CreamConfig",
          "name": "self",
          "type": "tuple"
        },
        {
          "internalType": "address",
          "name": "crtoken_address",
          "type": "address"
        }
      ],
      "name": "getTokenPrice",
      "outputs": [
        {
          "internalType": "uint256",
          "name": "",
          "type": "uint256"
        }
      ],
      "stateMutability": "view",
      "type": "function"
    },
    {
      "inputs": [
        {
          "internalType": "address",
          "name": "crtoken_address",
          "type": "address"
        }
      ],
      "name": "getExchangeRate",
      "outputs": [
        {
          "internalType": "uint256",
          "name": "",
          "type": "uint256"
        }
      ],
      "stateMutability": "view",
      "type": "function"
    },
    {
      "inputs": [
        {
          "components": [
            {
              "internalType": "address",
              "name": "oracle",
              "type": "address"
            }
          ],
          "internalType": "struct CreamExecution.CreamConfig",
          "name": "self",
          "type": "tuple"
        },
        {
          "internalType": "address",
          "name": "borrow_crtoken_address",
          "type": "address"
        },
        {
          "internalType": "address",
          "name": "crUSDC_address",
          "type": "address"
        },
        {
          "internalType": "address",
          "name": "USDC_address",
          "type": "address"
        },
        {
          "internalType": "uint256",
          "name": "supply_amount",
          "type": "uint256"
        },
        {
          "internalType": "uint256",
          "name": "borrow_amount",
          "type": "uint256"
        }
      ],
      "name": "getBorrowLimit",
      "outputs": [
        {
          "internalType": "uint256",
          "name": "",
          "type": "uint256"
        }
      ],
      "stateMutability": "view",
      "type": "function"
    },
    {
      "inputs": [
        {
          "internalType": "address",
          "name": "crtoken_address",
          "type": "address"
        }
      ],
      "name": "getWalletAmount",
      "outputs": [
        {
          "internalType": "uint256",
          "name": "",
          "type": "uint256"
        }
      ],
      "stateMutability": "view",
      "type": "function"
    },
    {
      "inputs": [
        {
          "internalType": "address",
          "name": "crtoken_address",
          "type": "address"
        }
      ],
      "name": "getUnderlyingAddress",
      "outputs": [
        {
          "internalType": "address",
          "name": "",
          "type": "address"
        }
      ],
      "stateMutability": "view",
      "type": "function"
    },
    {
      "inputs": [
        {
          "components": [
            {
              "internalType": "address",
              "name": "oracle",
              "type": "address"
            }
          ],
          "internalType": "struct CreamExecution.CreamConfig",
          "name": "self",
          "type": "tuple"
        },
        {
          "internalType": "address",
          "name": "crtoken_address",
          "type": "address"
        },
        {
          "internalType": "address",
          "name": "crUSDC_address",
          "type": "address"
        },
        {
          "internalType": "address",
          "name": "USDC_address",
          "type": "address"
        }
      ],
      "name": "getUSDPrice",
      "outputs": [
        {
          "internalType": "uint256",
          "name": "",
          "type": "uint256"
        }
      ],
      "stateMutability": "view",
      "type": "function"
    },
    {
      "inputs": [
        {
          "internalType": "address",
          "name": "token_address",
          "type": "address"
        }
      ],
      "name": "getTokenBalance",
      "outputs": [
        {
          "internalType": "uint256",
          "name": "",
          "type": "uint256"
        }
      ],
      "stateMutability": "view",
      "type": "function"
    }
  ],
  "bytecode": "0x61177b61003a600b82828239805160001a60731461002d57634e487b7160e01b600052600060045260246000fd5b30600052607381538281f3fe73000000000000000000000000000000000000000030146080604052600436106101065760003560e01c80630f81894f1461010b5780631081e7b61461013e578063201130ed1461015157806322867d7814610164578063255e5f521461018457806338bad5e5146101975780633aecd0e3146101515780633d58a735146101aa5780634b8a3529146101bd5780634e7e3e91146101dd5780636149b672146101fd57806365ca49751461021d5780636b5441a9146102305780637a4b4e761461024357806382525cfa1461021d5780639629417814610273578063ae8da8d11461021d578063d71275f614610293578063efb7601d146102a6578063f2b9fdb8146102b9575b600080fd5b81801561011757600080fd5b5061012b6101263660046112dc565b6102d9565b6040519081526020015b60405180910390f35b61012b61014c366004611354565b610360565b61012b61015f3660046112dc565b61042e565b81801561017057600080fd5b5061012b61017f3660046113af565b610489565b61012b6101923660046112dc565b61059c565b61012b6101a53660046113db565b6105d7565b61012b6101b8366004611414565b6106f5565b8180156101c957600080fd5b5061012b6101d83660046113af565b6107f8565b6101f06101eb3660046112dc565b610852565b6040516101359190611481565b81801561020957600080fd5b5061012b6102183660046113af565b6108c5565b61012b61022b366004611495565b6108f5565b61012b61023e3660046112dc565b610925565b81801561024f57600080fd5b5061026361025e3660046114b2565b610c99565b6040519015158152602001610135565b81801561027f57600080fd5b5061012b61028e3660046113af565b610d37565b61012b6102a13660046112dc565b610de8565b61012b6102b43660046112dc565b6110dc565b8180156102c557600080fd5b5061012b6102d43660046113af565b611117565b604051633af9e66960e01b81526000906001600160a01b03831690633af9e66990610308903090600401611481565b602060405180830381600087803b15801561032257600080fd5b505af1158015610336573d6000803e3d6000fd5b505050506040513d601f19601f8201168201806040525081019061035a91906114fd565b92915050565b60008061036d86866108f5565b9050600061037b87866108f5565b90506000846001600160a01b031663313ce5676040518163ffffffff1660e01b815260040160206040518083038186803b1580156103b857600080fd5b505afa1580156103cc573d6000803e3d6000fd5b505050506040513d601f19601f820116820180604052508101906103f09190611516565b60ff169050600061040c600161040784600a611633565b6111d4565b905061042161041b85836111d4565b84611253565b9998505050505050505050565b6040516370a0823160e01b81526000906001600160a01b038316906370a082319061045d903090600401611481565b60206040518083038186803b15801561047557600080fd5b505afa158015610336573d6000803e3d6000fd5b60008061049584610852565b60405163095ea7b360e01b81529091506001600160a01b0382169063095ea7b3906104c6908790879060040161163f565b602060405180830381600087803b1580156104e057600080fd5b505af11580156104f4573d6000803e3d6000fd5b505050506040513d601f19601f820116820180604052508101906105189190611658565b5060405163073a938160e11b8152600481018490526001600160a01b03851690630e752702906024015b602060405180830381600087803b15801561055c57600080fd5b505af1158015610570573d6000803e3d6000fd5b505050506040513d601f19601f8201168201806040525081019061059491906114fd565b949350505050565b6000816001600160a01b0316633b1d21a26040518163ffffffff1660e01b815260040160206040518083038186803b15801561047557600080fd5b6000816001600160a01b0316836001600160a01b031614156106725760405162461bcd60e51b815260206004820152604360248201527f7765206e65766572207573652057424e422028696e73756666696369656e742060448201527f6c6971756964697479292c20736f206a7573742075736520424e4220696e737460648201526219585960ea1b608482015260a4015b60405180910390fd5b6040516395dd919360e01b81526001600160a01b038416906395dd91939061069e903090600401611481565b60206040518083038186803b1580156106b657600080fd5b505afa1580156106ca573d6000803e3d6000fd5b505050506040513d601f19601f820116820180604052508101906106ee91906114fd565b9392505050565b60008061070288886108f5565b9050600061071089886108f5565b90506000866001600160a01b031663313ce5676040518163ffffffff1660e01b815260040160206040518083038186803b15801561074d57600080fd5b505afa158015610761573d6000803e3d6000fd5b505050506040513d601f19601f820116820180604052508101906107859190611516565b60ff169050600061079c600161040784600a611633565b905060006107b36107ad86846111d4565b85611253565b905060006107c182896111d4565b90506107ce8960646111d4565b98506107db89604b611253565b98506107e7818a611253565b9d9c50505050505050505050505050565b60405163317afabb60e21b8152600481018290526000906001600160a01b0384169063c5ebeaec906024015b602060405180830381600087803b15801561083e57600080fd5b505af11580156106ca573d6000803e3d6000fd5b6000816001600160a01b0316636f307dc36040518163ffffffff1660e01b815260040160206040518083038186803b15801561088d57600080fd5b505afa1580156108a1573d6000803e3d6000fd5b505050506040513d601f19601f8201168201806040525081019061035a919061167a565b60405163073a938160e11b8152600481018290526000906001600160a01b03841690630e75270290602401610824565b815160405163fc57d4df60e01b81526000916001600160a01b03169063fc57d4df9061069e908590600401611481565b600080826001600160a01b0316633b1d21a26040518163ffffffff1660e01b815260040160206040518083038186803b15801561096157600080fd5b505afa158015610975573d6000803e3d6000fd5b505050506040513d601f19601f8201168201806040525081019061099991906114fd565b90506000836001600160a01b03166347bd37186040518163ffffffff1660e01b815260040160206040518083038186803b1580156109d657600080fd5b505afa1580156109ea573d6000803e3d6000fd5b505050506040513d601f19601f82011682018060405250810190610a0e91906114fd565b90506000846001600160a01b0316638f840ddd6040518163ffffffff1660e01b815260040160206040518083038186803b158015610a4b57600080fd5b505afa158015610a5f573d6000803e3d6000fd5b505050506040513d601f19601f82011682018060405250810190610a8391906114fd565b90506000856001600160a01b031663173b99046040518163ffffffff1660e01b815260040160206040518083038186803b158015610ac057600080fd5b505afa158015610ad4573d6000803e3d6000fd5b505050506040513d601f19601f82011682018060405250810190610af891906114fd565b90506000866001600160a01b031663313ce5676040518163ffffffff1660e01b815260040160206040518083038186803b158015610b3557600080fd5b505afa158015610b49573d6000803e3d6000fd5b505050506040513d601f19601f82011682018060405250810190610b6d9190611516565b60ff1690506000876001600160a01b031663f3fdb15a6040518163ffffffff1660e01b815260040160206040518083038186803b158015610bad57600080fd5b505afa158015610bc1573d6000803e3d6000fd5b505050506040513d601f19601f82011682018060405250810190610be5919061167a565b604051635c0b440b60e11b8152600481018890526024810187905260448101869052606481018590529091506000906001600160a01b0383169063b81688169060840160206040518083038186803b158015610c4057600080fd5b505afa158015610c54573d6000803e3d6000fd5b505050506040513d601f19601f82011682018060405250810190610c7891906114fd565b905061042181610c89856001611697565b610c9490600a611633565b611253565b600080610ca58561042e565b90506000610cb385856105d7565b905080821015610d205760405162461bcd60e51b815260206004820152603260248201527f4e6f7420656e6f7567682066756e647320696e207468652077616c6c6574206660448201527137b9103a3432903a3930b739b0b1ba34b7b760711b6064820152608401610669565b610d2a8582610489565b5060019695505050505050565b60405163095ea7b360e01b81526000906001600160a01b0384169063095ea7b390610d68908690869060040161163f565b602060405180830381600087803b158015610d8257600080fd5b505af1158015610d96573d6000803e3d6000fd5b505050506040513d601f19601f82011682018060405250810190610dba9190611658565b5060405163852a12e360e01b8152600481018390526001600160a01b0384169063852a12e390602401610824565b600080826001600160a01b0316633b1d21a26040518163ffffffff1660e01b815260040160206040518083038186803b158015610e2457600080fd5b505afa158015610e38573d6000803e3d6000fd5b505050506040513d601f19601f82011682018060405250810190610e5c91906114fd565b90506000836001600160a01b03166347bd37186040518163ffffffff1660e01b815260040160206040518083038186803b158015610e9957600080fd5b505afa158015610ead573d6000803e3d6000fd5b505050506040513d601f19601f82011682018060405250810190610ed191906114fd565b90506000846001600160a01b0316638f840ddd6040518163ffffffff1660e01b815260040160206040518083038186803b158015610f0e57600080fd5b505afa158015610f22573d6000803e3d6000fd5b505050506040513d601f19601f82011682018060405250810190610f4691906114fd565b90506000856001600160a01b031663313ce5676040518163ffffffff1660e01b815260040160206040518083038186803b158015610f8357600080fd5b505afa158015610f97573d6000803e3d6000fd5b505050506040513d601f19601f82011682018060405250810190610fbb9190611516565b60ff1690506000866001600160a01b031663f3fdb15a6040518163ffffffff1660e01b815260040160206040518083038186803b158015610ffb57600080fd5b505afa15801561100f573d6000803e3d6000fd5b505050506040513d601f19601f82011682018060405250810190611033919061167a565b6040516315f2405360e01b81526004810187905260248101869052604481018590529091506000906001600160a01b038316906315f240539060640160206040518083038186803b15801561108757600080fd5b505afa15801561109b573d6000803e3d6000fd5b505050506040513d601f19601f820116820180604052508101906110bf91906114fd565b90506110d081610c89856001611697565b98975050505050505050565b6000816001600160a01b031663182df0f56040518163ffffffff1660e01b815260040160206040518083038186803b15801561047557600080fd5b60008061112384610852565b60405163095ea7b360e01b81529091506001600160a01b0382169063095ea7b390611154908790879060040161163f565b602060405180830381600087803b15801561116e57600080fd5b505af1158015611182573d6000803e3d6000fd5b505050506040513d601f19601f820116820180604052508101906111a69190611658565b5060405163140e25ad60e31b8152600481018490526001600160a01b0385169063a0712d6890602401610542565b6000826111e35750600061035a565b60006111ef83856116af565b9050826111fc85836116ce565b146106ee5760405162461bcd60e51b815260206004820152602160248201527f536166654d6174683a206d756c7469706c69636174696f6e206f766572666c6f6044820152607760f81b6064820152608401610669565b60006106ee83836040518060400160405280601a815260200179536166654d6174683a206469766973696f6e206279207a65726f60301b815250600081836112ae5760405162461bcd60e51b815260040161066991906116f0565b5060006112bb84866116ce565b95945050505050565b6001600160a01b03811681146112d957600080fd5b50565b6000602082840312156112ee57600080fd5b81356106ee816112c4565b60006020828403121561130b57600080fd5b604051602081016001600160401b038111828210171561133b57634e487b7160e01b600052604160045260246000fd5b604052905080823561134c816112c4565b905292915050565b6000806000806080858703121561136a57600080fd5b61137486866112f9565b93506020850135611384816112c4565b92506040850135611394816112c4565b915060608501356113a4816112c4565b939692955090935050565b600080604083850312156113c257600080fd5b82356113cd816112c4565b946020939093013593505050565b600080604083850312156113ee57600080fd5b82356113f9816112c4565b91506020830135611409816112c4565b809150509250929050565b60008060008060008060c0878903121561142d57600080fd5b61143788886112f9565b95506020870135611447816112c4565b94506040870135611457816112c4565b93506060870135611467816112c4565b9598949750929560808101359460a0909101359350915050565b6001600160a01b0391909116815260200190565b600080604083850312156114a857600080fd5b6113f984846112f9565b6000806000606084860312156114c757600080fd5b83356114d2816112c4565b925060208401356114e2816112c4565b915060408401356114f2816112c4565b809150509250925092565b60006020828403121561150f57600080fd5b5051919050565b60006020828403121561152857600080fd5b815160ff811681146106ee57600080fd5b634e487b7160e01b600052601160045260246000fd5b600181815b8085111561158a57816000190482111561157057611570611539565b8085161561157d57918102915b93841c9390800290611554565b509250929050565b6000826115a15750600161035a565b816115ae5750600061035a565b81600181146115c457600281146115ce576115ea565b600191505061035a565b60ff8411156115df576115df611539565b50506001821b61035a565b5060208310610133831016604e8410600b841016171561160d575081810a61035a565b611617838361154f565b806000190482111561162b5761162b611539565b029392505050565b60006106ee8383611592565b6001600160a01b03929092168252602082015260400190565b60006020828403121561166a57600080fd5b815180151581146106ee57600080fd5b60006020828403121561168c57600080fd5b81516106ee816112c4565b600082198211156116aa576116aa611539565b500190565b60008160001904831182151516156116c9576116c9611539565b500290565b6000826116eb57634e487b7160e01b600052601260045260246000fd5b500490565b600060208083528351808285015260005b8181101561171d57858101830151858201604001528201611701565b8181111561172f576000604083870101525b50601f01601f191692909201604001939250505056fea264697066735822122060d3272e38f6d617c36fe92898405736c1bb41755915f3f5498c41bbee6882a864736f6c63430008090033",
  "immutableReferences": {},
  "source": "// SPDX-License-Identifier: MIT\npragma solidity ^0.8;\n\nimport \"../token/BEP20/IBEP20.sol\";\nimport \"../math/SafeMath.sol\";\nimport \"../interfaces/cream/CErc20Delegator.sol\";\nimport \"../interfaces/cream/InterestRateModel.sol\";\nimport \"../interfaces/cream/PriceOracleProxy.sol\";\n\n/// @title Cream execution\n/// @author Andrew FU\n/// @dev All functions haven't finished unit test\nlibrary CreamExecution {\n    \n    // Addresss of Cream.\n    struct CreamConfig {\n        address oracle; // Address of Cream oracle contract.\n    }\n    \n    /// @param crtoken_address Cream crToken address.\n    function getAvailableBorrow(address crtoken_address) public view returns (uint) {\n        \n        return CErc20Delegator(crtoken_address).getCash();\n    }\n    \n    /// @param crtoken_address Cream crToken address.\n    /// @dev Gets the current borrow rate for the underlying token.\n    function getBorrowRate(address crtoken_address) public view returns (uint) {\n        uint cash = CErc20Delegator(crtoken_address).getCash();\n        uint borrows = CErc20Delegator(crtoken_address).totalBorrows();\n        uint reserves = CErc20Delegator(crtoken_address).totalReserves();\n        uint decimals = CErc20Delegator(crtoken_address).decimals();\n        \n        address interest_rate_address = CErc20Delegator(crtoken_address).interestRateModel();\n        \n        uint borrowRate = InterestRateModel(interest_rate_address).getBorrowRate(cash, borrows, reserves);\n        \n        return SafeMath.div(borrowRate, 10**(decimals + 1));\n    }\n    \n    /// @param crtoken_address Cream crToken address.\n    /// @dev Gets the current borrow rate for a token.\n    function getSupplyRate(address crtoken_address) public view returns (uint) {\n        uint cash = CErc20Delegator(crtoken_address).getCash();\n        uint borrows = CErc20Delegator(crtoken_address).totalBorrows();\n        uint reserves = CErc20Delegator(crtoken_address).totalReserves();\n        uint mantissa = CErc20Delegator(crtoken_address).reserveFactorMantissa();\n        uint decimals = CErc20Delegator(crtoken_address).decimals();\n        \n        address interest_rate_address = CErc20Delegator(crtoken_address).interestRateModel();\n        \n        uint supplyRate = InterestRateModel(interest_rate_address).getSupplyRate(cash, borrows, reserves, mantissa);\n        \n        return SafeMath.div(supplyRate, 10**(decimals + 1));\n    }\n    \n    /// @param crtoken_address Cream crToken address.\n    /// @param crWBNB_address Cream crWBNB address.\n    /// @dev Gets the borrowed amount for a particular token.\n    /// @return crToken amount\n    function getBorrowAmount(address crtoken_address, address crWBNB_address) public view returns (uint) {\n        if (crtoken_address == crWBNB_address) {\n            revert(\"we never use WBNB (insufficient liquidity), so just use BNB instead\");\n        }\n        return CErc20Delegator(crtoken_address).borrowBalanceStored(address(this));\n    }\n    \n    /// @param crtoken_address Cream crToken address.\n    /// @dev Gets the borrowed amount for a particular token.\n    /// @return crToken amount.\n    function getUserTotalSupply(address crtoken_address) public returns (uint) {\n        \n        return CErc20Delegator(crtoken_address).balanceOfUnderlying(address(this));\n    }\n    \n    /// @dev Gets the USDCBNB price.\n    function getUSDCBNBPrice(CreamConfig memory self, address crUSDC_address) public view returns (uint) {\n        \n        return PriceOracleProxy(self.oracle).getUnderlyingPrice(crUSDC_address);\n    }\n    \n    /// @dev Gets the bnb amount.\n    function getCrTokenBalance(CreamConfig memory self, address crtoken_address) public view returns (uint) {\n        \n        return PriceOracleProxy(self.oracle).getUnderlyingPrice(crtoken_address);\n    }\n    \n    /// @param crtoken_address Cream crToken address.\n    /// @dev Gets the crtoken/BNB price.\n    function getTokenPrice(CreamConfig memory self, address crtoken_address) public view returns (uint) {\n        \n        return PriceOracleProxy(self.oracle).getUnderlyingPrice(crtoken_address);\n    }\n    \n    /// @param crtoken_address Cream crToken address.\n    /// @dev Gets the current exchange rate for a ctoken.\n    function getExchangeRate(address crtoken_address) public view returns (uint) {\n        \n        return CErc20Delegator(crtoken_address).exchangeRateStored();\n    }\n    \n    /// @return the current borrow limit on the platform.\n    function getBorrowLimit(CreamConfig memory self, address borrow_crtoken_address, address crUSDC_address, address USDC_address, uint supply_amount, uint borrow_amount) public view returns (uint) {\n        uint borrow_token_price = getTokenPrice(self, borrow_crtoken_address);\n        uint usdc_bnb_price = getTokenPrice(self, crUSDC_address);\n        uint usdc_decimals = IBEP20(USDC_address).decimals();\n        uint one_unit_of_usdc = SafeMath.mul(1, 10**usdc_decimals);\n        \n        uint token_price = SafeMath.div(SafeMath.mul(borrow_token_price, one_unit_of_usdc), usdc_bnb_price);\n        uint borrow_usdc_value = SafeMath.mul(token_price, borrow_amount);\n        \n        supply_amount = SafeMath.mul(supply_amount, 100);\n        supply_amount = SafeMath.div(supply_amount, 75);\n        \n        return SafeMath.div(borrow_usdc_value, supply_amount);\n    }\n    \n    /// @return the amount in the wallet for a given token.\n    function getWalletAmount(address crtoken_address) public view returns (uint) {\n        \n        return CErc20Delegator(crtoken_address).balanceOf(address(this));\n    }\n    \n    function borrow(address crtoken_address, uint borrow_amount) public returns (uint) {\n        // TODO make sure don't borrow more than the limit\n        return CErc20Delegator(crtoken_address).borrow(borrow_amount);\n    }\n\n    function getUnderlyingAddress(address crtoken_address) public view returns (address) {\n        \n        return CErc20Delegator(crtoken_address).underlying();\n    }\n    \n    /// @param crtoken_address Cream crToken address.\n    /// @dev Get the token/BNB price.\n    function getUSDPrice(CreamConfig memory self, address crtoken_address, address crUSDC_address, address USDC_address) public view returns (uint) {\n        uint token_bnb_price = getTokenPrice(self, crtoken_address);\n        uint usd_bnb_price = getUSDCBNBPrice(self, crUSDC_address);\n        \n        uint usdc_decimals = IBEP20(USDC_address).decimals();\n        uint one_unit_of_usdc = SafeMath.mul(1, 10**usdc_decimals);\n        return SafeMath.div(SafeMath.mul(token_bnb_price, one_unit_of_usdc), usd_bnb_price);\n    }\n    \n    function repay(address crtoken_address, uint repay_amount) public returns (uint) {\n        address underlying_address = getUnderlyingAddress(crtoken_address);\n        IBEP20(underlying_address).approve(crtoken_address, repay_amount);\n        return CErc20Delegator(crtoken_address).repayBorrow(repay_amount);\n    }\n    \n    function repayETH(address crBNB_address, uint repay_amount) public returns (uint) {\n        \n        return CErc20Delegator(crBNB_address).repayBorrow(repay_amount);\n    }\n    \n    // TODO Johnny need to confirm this function again.\n    function repayAll(address token_addr, address crtoken_address, address crWBNB_address) public returns (bool) {\n        uint current_wallet_amount = getWalletAmount(token_addr);\n        uint borrow_amount = getBorrowAmount(crtoken_address, crWBNB_address);\n        \n        require(current_wallet_amount >= borrow_amount, \"Not enough funds in the wallet for the transaction\");\n        repay(crtoken_address, borrow_amount);\n        \n        return true;\n    }\n\n    /// @param crtoken_address Cream crToken address\n    /// @param amount amount of tokens to mint.\n    /// @dev Supplies amount worth of crtokens into cream.\n    function supply(address crtoken_address, uint amount) public returns (uint) {\n        address underlying_address = getUnderlyingAddress(crtoken_address);\n        IBEP20(underlying_address).approve(crtoken_address, amount);\n        return CErc20Delegator(crtoken_address).mint(amount);\n    }\n    \n    /// @param crtoken_address Cream crToken address\n    /// @param amount amount of crtokens to redeem.\n    /// @dev Redeem amount worth of crtokens back.\n    function redeemUnderlying(address crtoken_address, uint amount) public returns (uint) {\n        IBEP20(crtoken_address).approve(crtoken_address, amount);\n        return CErc20Delegator(crtoken_address).redeemUnderlying(amount);\n    }\n    \n    function getTokenBalance(address token_address) public view returns (uint) {\n        \n        return IBEP20(token_address).balanceOf(address(this));\n    }\n\n}",
  "sourcePath": "/Users/andrew/Documents/Bitbucket/dofin-smart-contracts/contracts/libs/CreamExecution.sol",
  "compiler": {
    "name": "solc",
    "version": "0.8.9+commit.e5eed63a.Emscripten.clang"
  },
  "schemaVersion": "3.4.3",
  "updatedAt": "2021-10-12T05:31:09.645Z",
  "devdoc": {
    "author": "Andrew FU",
    "details": "All functions haven't finished unit test",
    "kind": "dev",
    "methods": {
      "getAvailableBorrow(address)": {
        "params": {
          "crtoken_address": "Cream crToken address."
        }
      },
      "getBorrowAmount(address,address)": {
        "details": "Gets the borrowed amount for a particular token.",
        "params": {
          "crWBNB_address": "Cream crWBNB address.",
          "crtoken_address": "Cream crToken address."
        },
        "returns": {
          "_0": "crToken amount"
        }
      },
      "getBorrowLimit(CreamExecution.CreamConfig,address,address,address,uint256,uint256)": {
        "returns": {
          "_0": "the current borrow limit on the platform."
        }
      },
      "getBorrowRate(address)": {
        "details": "Gets the current borrow rate for the underlying token.",
        "params": {
          "crtoken_address": "Cream crToken address."
        }
      },
      "getCrTokenBalance(CreamExecution.CreamConfig,address)": {
        "details": "Gets the bnb amount."
      },
      "getExchangeRate(address)": {
        "details": "Gets the current exchange rate for a ctoken.",
        "params": {
          "crtoken_address": "Cream crToken address."
        }
      },
      "getSupplyRate(address)": {
        "details": "Gets the current borrow rate for a token.",
        "params": {
          "crtoken_address": "Cream crToken address."
        }
      },
      "getTokenPrice(CreamExecution.CreamConfig,address)": {
        "details": "Gets the crtoken/BNB price.",
        "params": {
          "crtoken_address": "Cream crToken address."
        }
      },
      "getUSDCBNBPrice(CreamExecution.CreamConfig,address)": {
        "details": "Gets the USDCBNB price."
      },
      "getUSDPrice(CreamExecution.CreamConfig,address,address,address)": {
        "details": "Get the token/BNB price.",
        "params": {
          "crtoken_address": "Cream crToken address."
        }
      },
      "getUserTotalSupply(address)": {
        "details": "Gets the borrowed amount for a particular token.",
        "params": {
          "crtoken_address": "Cream crToken address."
        },
        "returns": {
          "_0": "crToken amount."
        }
      },
      "getWalletAmount(address)": {
        "returns": {
          "_0": "the amount in the wallet for a given token."
        }
      },
      "redeemUnderlying(address,uint256)": {
        "details": "Redeem amount worth of crtokens back.",
        "params": {
          "amount": "amount of crtokens to redeem.",
          "crtoken_address": "Cream crToken address"
        }
      },
      "supply(address,uint256)": {
        "details": "Supplies amount worth of crtokens into cream.",
        "params": {
          "amount": "amount of tokens to mint.",
          "crtoken_address": "Cream crToken address"
        }
      }
    },
    "title": "Cream execution",
    "version": 1
  },
  "userdoc": {
    "kind": "user",
    "methods": {},
    "version": 1
  }
}