{
  "contractName": "FakePancakePair",
  "abi": [
    {
      "inputs": [
        {
          "internalType": "address",
          "name": "_token0",
          "type": "address"
        },
        {
          "internalType": "address",
          "name": "_token1",
          "type": "address"
        }
      ],
      "stateMutability": "nonpayable",
      "type": "constructor"
    },
    {
      "inputs": [],
      "name": "token0",
      "outputs": [
        {
          "internalType": "address",
          "name": "",
          "type": "address"
        }
      ],
      "stateMutability": "view",
      "type": "function"
    },
    {
      "inputs": [],
      "name": "token1",
      "outputs": [
        {
          "internalType": "address",
          "name": "",
          "type": "address"
        }
      ],
      "stateMutability": "view",
      "type": "function"
    },
    {
      "inputs": [],
      "name": "decimals",
      "outputs": [
        {
          "internalType": "uint8",
          "name": "",
          "type": "uint8"
        }
      ],
      "stateMutability": "nonpayable",
      "type": "function"
    },
    {
      "inputs": [
        {
          "internalType": "address",
          "name": "spender",
          "type": "address"
        },
        {
          "internalType": "uint256",
          "name": "amount",
          "type": "uint256"
        }
      ],
      "name": "approve",
      "outputs": [
        {
          "internalType": "bool",
          "name": "",
          "type": "bool"
        }
      ],
      "stateMutability": "nonpayable",
      "type": "function"
    },
    {
      "inputs": [
        {
          "internalType": "address",
          "name": "owner",
          "type": "address"
        }
      ],
      "name": "balanceOf",
      "outputs": [
        {
          "internalType": "uint256",
          "name": "",
          "type": "uint256"
        }
      ],
      "stateMutability": "nonpayable",
      "type": "function"
    },
    {
      "inputs": [],
      "name": "getReserves",
      "outputs": [
        {
          "internalType": "uint112",
          "name": "",
          "type": "uint112"
        },
        {
          "internalType": "uint112",
          "name": "",
          "type": "uint112"
        },
        {
          "internalType": "uint32",
          "name": "",
          "type": "uint32"
        }
      ],
      "stateMutability": "nonpayable",
      "type": "function"
    },
    {
      "inputs": [],
      "name": "totalSupply",
      "outputs": [
        {
          "internalType": "uint256",
          "name": "",
          "type": "uint256"
        }
      ],
      "stateMutability": "nonpayable",
      "type": "function"
    }
  ],
  "bytecode": "0x608060405234801561001057600080fd5b5060405161028a38038061028a83398101604081905261002f9161007c565b600080546001600160a01b039384166001600160a01b031991821617909155600180549290931691161790556100af565b80516001600160a01b038116811461007757600080fd5b919050565b6000806040838503121561008f57600080fd5b61009883610060565b91506100a660208401610060565b90509250929050565b6101cc806100be6000396000f3fe608060405234801561001057600080fd5b506004361061006d5760003560e01c80630902f1ac14610072578063095ea7b3146100965780630dfe1681146100bc57806318160ddd146100e7578063313ce567146100f857806370a0823114610107578063d21220a71461011b575b600080fd5b60408051600a80825260208201819052918101919091526060015b60405180910390f35b6100ac6100a436600461014a565b600192915050565b604051901515815260200161008d565b6000546100cf906001600160a01b031681565b6040516001600160a01b03909116815260200161008d565b600a5b60405190815260200161008d565b604051600a815260200161008d565b6100ea610115366004610174565b50600a90565b6001546100cf906001600160a01b031681565b80356001600160a01b038116811461014557600080fd5b919050565b6000806040838503121561015d57600080fd5b6101668361012e565b946020939093013593505050565b60006020828403121561018657600080fd5b61018f8261012e565b939250505056fea2646970667358221220f0ba79c9803b63f2b8403a06cfa8b1e816e8f120101224085fc830d56a161dfa64736f6c63430008090033",
  "immutableReferences": {},
  "source": "// SPDX-License-Identifier: MIT\npragma solidity >=0.8;\n\ncontract FakePancakePair {\n\n  address public token0;\n  address public token1;\n\n  constructor(address _token0, address _token1) public {\n      token0 = _token0;\n      token1 = _token1;\n  }\n\n  function decimals() public returns(uint8) {\n\n    return 10;\n  }\n\n  function approve(address spender, uint256 amount) public returns(bool) {\n\n    return true;\n  }\n\n  function balanceOf(address owner) public returns(uint) {\n\n    return 10;\n  }\n\n  function getReserves() public returns(uint112, uint112, uint32) {\n\n    return (10, 10, 10);\n  }\n\n  function totalSupply() public returns(uint) {\n\n    return 10;\n  }\n  \n}",
  "sourcePath": "/Users/andrew/Documents/Bitbucket/dofin-smart-contracts/contracts/fake/pancakeswap/FakePancakePair.sol",
  "compiler": {
    "name": "solc",
    "version": "0.8.9+commit.e5eed63a.Emscripten.clang"
  },
  "schemaVersion": "3.4.3",
  "updatedAt": "2021-10-07T17:21:46.571Z",
  "devdoc": {
    "kind": "dev",
    "methods": {},
    "version": 1
  },
  "userdoc": {
    "kind": "user",
    "methods": {},
    "version": 1
  }
}