{
  "contractName": "FakePancakeRouter",
  "abi": [
    {
      "inputs": [
        {
          "internalType": "uint256",
          "name": "amountA",
          "type": "uint256"
        },
        {
          "internalType": "uint256",
          "name": "reserveA",
          "type": "uint256"
        },
        {
          "internalType": "uint256",
          "name": "reserveB",
          "type": "uint256"
        }
      ],
      "name": "quote",
      "outputs": [
        {
          "internalType": "uint256",
          "name": "",
          "type": "uint256"
        }
      ],
      "stateMutability": "nonpayable",
      "type": "function"
    },
    {
      "inputs": [
        {
          "internalType": "address",
          "name": "token",
          "type": "address"
        },
        {
          "internalType": "uint256",
          "name": "amountTokenDesired",
          "type": "uint256"
        },
        {
          "internalType": "uint256",
          "name": "amountTokenMin",
          "type": "uint256"
        },
        {
          "internalType": "uint256",
          "name": "amountETHMin",
          "type": "uint256"
        },
        {
          "internalType": "address",
          "name": "to",
          "type": "address"
        },
        {
          "internalType": "uint256",
          "name": "deadline",
          "type": "uint256"
        }
      ],
      "name": "addLiquidityETH",
      "outputs": [
        {
          "internalType": "uint256",
          "name": "",
          "type": "uint256"
        },
        {
          "internalType": "uint256",
          "name": "",
          "type": "uint256"
        },
        {
          "internalType": "uint256",
          "name": "",
          "type": "uint256"
        }
      ],
      "stateMutability": "payable",
      "type": "function"
    },
    {
      "inputs": [
        {
          "internalType": "address",
          "name": "tokenA",
          "type": "address"
        },
        {
          "internalType": "address",
          "name": "tokenB",
          "type": "address"
        },
        {
          "internalType": "uint256",
          "name": "amountADesired",
          "type": "uint256"
        },
        {
          "internalType": "uint256",
          "name": "amountBDesired",
          "type": "uint256"
        },
        {
          "internalType": "uint256",
          "name": "amountAMin",
          "type": "uint256"
        },
        {
          "internalType": "uint256",
          "name": "amountBMin",
          "type": "uint256"
        },
        {
          "internalType": "address",
          "name": "to",
          "type": "address"
        },
        {
          "internalType": "uint256",
          "name": "deadline",
          "type": "uint256"
        }
      ],
      "name": "addLiquidity",
      "outputs": [
        {
          "internalType": "uint256",
          "name": "",
          "type": "uint256"
        },
        {
          "internalType": "uint256",
          "name": "",
          "type": "uint256"
        },
        {
          "internalType": "uint256",
          "name": "",
          "type": "uint256"
        }
      ],
      "stateMutability": "nonpayable",
      "type": "function"
    },
    {
      "inputs": [
        {
          "internalType": "address",
          "name": "tokenA",
          "type": "address"
        },
        {
          "internalType": "address",
          "name": "tokenB",
          "type": "address"
        },
        {
          "internalType": "uint256",
          "name": "liquidity",
          "type": "uint256"
        },
        {
          "internalType": "uint256",
          "name": "amountAMin",
          "type": "uint256"
        },
        {
          "internalType": "uint256",
          "name": "amountBMin",
          "type": "uint256"
        },
        {
          "internalType": "address",
          "name": "to",
          "type": "address"
        },
        {
          "internalType": "uint256",
          "name": "deadline",
          "type": "uint256"
        }
      ],
      "name": "removeLiquidity",
      "outputs": [
        {
          "internalType": "uint256",
          "name": "",
          "type": "uint256"
        },
        {
          "internalType": "uint256",
          "name": "",
          "type": "uint256"
        }
      ],
      "stateMutability": "nonpayable",
      "type": "function"
    },
    {
      "inputs": [
        {
          "internalType": "address",
          "name": "token",
          "type": "address"
        },
        {
          "internalType": "uint256",
          "name": "liquidity",
          "type": "uint256"
        },
        {
          "internalType": "uint256",
          "name": "amountAMin",
          "type": "uint256"
        },
        {
          "internalType": "uint256",
          "name": "amountBMin",
          "type": "uint256"
        },
        {
          "internalType": "address",
          "name": "to",
          "type": "address"
        },
        {
          "internalType": "uint256",
          "name": "deadline",
          "type": "uint256"
        }
      ],
      "name": "removeLiquidityETH",
      "outputs": [
        {
          "internalType": "uint256",
          "name": "",
          "type": "uint256"
        },
        {
          "internalType": "uint256",
          "name": "",
          "type": "uint256"
        }
      ],
      "stateMutability": "nonpayable",
      "type": "function"
    },
    {
      "inputs": [
        {
          "internalType": "uint256",
          "name": "amountIn",
          "type": "uint256"
        },
        {
          "internalType": "uint256",
          "name": "reserveIn",
          "type": "uint256"
        },
        {
          "internalType": "uint256",
          "name": "reserveOut",
          "type": "uint256"
        }
      ],
      "name": "getAmountOut",
      "outputs": [
        {
          "internalType": "uint256",
          "name": "",
          "type": "uint256"
        }
      ],
      "stateMutability": "nonpayable",
      "type": "function"
    }
  ],
  "bytecode": "0x608060405234801561001057600080fd5b50610313806100206000396000f3fe6080604052600436106100555760003560e01c806302751cec1461005a578063054d50d41461009d578063ad615dec1461009d578063baa2abde146100cf578063e8e33700146100f9578063f305d71914610141575b600080fd5b34801561006657600080fd5b5061008361007536600461017b565b600a80965096945050505050565b604080519283526020830191909152015b60405180910390f35b3480156100a957600080fd5b506100c16100b83660046101d3565b600a9392505050565b604051908152602001610094565b3480156100db57600080fd5b506100836100ea3660046101ff565b600a8097509795505050505050565b34801561010557600080fd5b50610126610114366004610269565b600a8080985098509895505050505050565b60408051938452602084019290925290820152606001610094565b61012661014f36600461017b565b600a808096509650969350505050565b80356001600160a01b038116811461017657600080fd5b919050565b60008060008060008060c0878903121561019457600080fd5b61019d8761015f565b95506020870135945060408701359350606087013592506101c06080880161015f565b915060a087013590509295509295509295565b6000806000606084860312156101e857600080fd5b505081359360208301359350604090920135919050565b600080600080600080600060e0888a03121561021a57600080fd5b6102238861015f565b96506102316020890161015f565b955060408801359450606088013593506080880135925061025460a0890161015f565b915060c0880135905092959891949750929550565b600080600080600080600080610100898b03121561028657600080fd5b61028f8961015f565b975061029d60208a0161015f565b965060408901359550606089013594506080890135935060a089013592506102c760c08a0161015f565b915060e08901359050929598509295989093965056fea2646970667358221220a3179a8c1df053ae0ba10c99057329233686c9955c9415a405e11bcef29a9a5464736f6c63430008090033",
  "immutableReferences": {},
  "source": "// SPDX-License-Identifier: MIT\npragma solidity >=0.8;\n\ncontract FakePancakeRouter {\n\n  function quote(uint amountA, uint reserveA, uint reserveB) public returns(uint) {\n\n    return 10;\n  }\n\n  function addLiquidityETH(address token, uint amountTokenDesired, uint amountTokenMin, uint amountETHMin, address to, uint deadline) public payable returns(uint, uint, uint) {\n\n    return (10, 10, 10);\n  }\n\n  function addLiquidity(address tokenA, address tokenB, uint amountADesired, uint amountBDesired, uint amountAMin, uint amountBMin, address to, uint deadline) public returns(uint, uint, uint) {\n\n    return (10, 10, 10);\n  }\n\n  function removeLiquidity(address tokenA, address tokenB, uint liquidity, uint amountAMin, uint amountBMin, address to, uint deadline) public returns (uint, uint) {\n    return (10, 10);\n  }\n\n  function removeLiquidityETH(address token, uint liquidity, uint amountAMin, uint amountBMin, address to, uint deadline) public returns (uint, uint) {\n    return (10, 10);\n  }\n\n  function getAmountOut(uint amountIn, uint reserveIn, uint reserveOut) public returns (uint) {\n    return 10;\n  }\n  \n}",
  "sourcePath": "/Users/andrew/Documents/Bitbucket/dofin-smart-contracts/contracts/fake/pancakeswap/FakePancakeRouter.sol",
  "compiler": {
    "name": "solc",
    "version": "0.8.9+commit.e5eed63a.Emscripten.clang"
  },
  "schemaVersion": "3.4.3",
  "updatedAt": "2021-10-07T17:21:46.573Z",
  "devdoc": {
    "kind": "dev",
    "methods": {},
    "version": 1
  },
  "userdoc": {
    "kind": "user",
    "methods": {},
    "version": 1
  }
}