{
  "contractName": "FakeMasterChef",
  "abi": [
    {
      "inputs": [
        {
          "internalType": "uint256",
          "name": "pool_id",
          "type": "uint256"
        }
      ],
      "name": "poolInfo",
      "outputs": [
        {
          "internalType": "address",
          "name": "",
          "type": "address"
        },
        {
          "internalType": "uint256",
          "name": "",
          "type": "uint256"
        },
        {
          "internalType": "uint256",
          "name": "",
          "type": "uint256"
        },
        {
          "internalType": "uint256",
          "name": "",
          "type": "uint256"
        }
      ],
      "stateMutability": "nonpayable",
      "type": "function"
    },
    {
      "inputs": [
        {
          "internalType": "uint256",
          "name": "_pid",
          "type": "uint256"
        },
        {
          "internalType": "address",
          "name": "_user",
          "type": "address"
        }
      ],
      "name": "pendingCake",
      "outputs": [
        {
          "internalType": "uint256",
          "name": "",
          "type": "uint256"
        }
      ],
      "stateMutability": "nonpayable",
      "type": "function"
    },
    {
      "inputs": [
        {
          "internalType": "uint256",
          "name": "",
          "type": "uint256"
        },
        {
          "internalType": "address",
          "name": "",
          "type": "address"
        }
      ],
      "name": "userInfo",
      "outputs": [
        {
          "internalType": "uint256",
          "name": "",
          "type": "uint256"
        },
        {
          "internalType": "uint256",
          "name": "",
          "type": "uint256"
        }
      ],
      "stateMutability": "nonpayable",
      "type": "function"
    },
    {
      "inputs": [
        {
          "internalType": "uint256",
          "name": "_pid",
          "type": "uint256"
        },
        {
          "internalType": "uint256",
          "name": "_amount",
          "type": "uint256"
        }
      ],
      "name": "withdraw",
      "outputs": [
        {
          "internalType": "bool",
          "name": "",
          "type": "bool"
        }
      ],
      "stateMutability": "nonpayable",
      "type": "function"
    },
    {
      "inputs": [
        {
          "internalType": "uint256",
          "name": "_pid",
          "type": "uint256"
        },
        {
          "internalType": "uint256",
          "name": "_amount",
          "type": "uint256"
        }
      ],
      "name": "deposit",
      "outputs": [
        {
          "internalType": "bool",
          "name": "",
          "type": "bool"
        }
      ],
      "stateMutability": "nonpayable",
      "type": "function"
    }
  ],
  "bytecode": "0x608060405234801561001057600080fd5b506101c8806100206000396000f3fe608060405234801561001057600080fd5b50600436106100575760003560e01c80631175a1dd1461005c5780631526fe2714610085578063441a3e70146100c957806393f1a40b146100ef578063e2bbb158146100c9575b600080fd5b61007261006a36600461011b565b600a92915050565b6040519081526020015b60405180910390f35b61009f610093366004610157565b30600a80809193509193565b604080516001600160a01b039095168552602085019390935291830152606082015260800161007c565b6100df6100d7366004610170565b600192915050565b604051901515815260200161007c565b6101066100fd36600461011b565b50600a91829150565b6040805192835260208301919091520161007c565b6000806040838503121561012e57600080fd5b8235915060208301356001600160a01b038116811461014c57600080fd5b809150509250929050565b60006020828403121561016957600080fd5b5035919050565b6000806040838503121561018357600080fd5b5050803592602090910135915056fea2646970667358221220c040857d8391f4d2a1b0186881fe5e5cc32330d289f05b013bbf7b16c2b8a26464736f6c63430008090033",
  "immutableReferences": {},
  "source": "// SPDX-License-Identifier: MIT\npragma solidity >=0.8;\n\ncontract FakeMasterChef {\n\n  function poolInfo(uint256 pool_id) public returns(address, uint256, uint256, uint256) {\n\n    return (address(this), 10, 10, 10);\n  }\n\n  function pendingCake(uint256 _pid, address _user) public returns(uint256) {\n\n    return 10;\n  }\n\n  function userInfo(uint256, address) public returns(uint256, uint256) {\n\n    return (10, 10);\n  }\n\n  function withdraw(uint256 _pid, uint256 _amount) public returns(bool) {\n\n    return true;\n  }\n\n  function deposit(uint256 _pid, uint256 _amount) public returns(bool) {\n\n    return true;\n  }\n  \n}",
  "sourcePath": "/Users/andrew/Documents/Bitbucket/dofin-smart-contracts/contracts/fake/pancakeswap/FakeMasterChef.sol",
  "compiler": {
    "name": "solc",
    "version": "0.8.9+commit.e5eed63a.Emscripten.clang"
  },
  "schemaVersion": "3.4.3",
  "updatedAt": "2021-10-07T17:21:46.568Z",
  "devdoc": {
    "kind": "dev",
    "methods": {},
    "version": 1
  },
  "userdoc": {
    "kind": "user",
    "methods": {},
    "version": 1
  }
}