{
  "contractName": "FakeIBEP20",
  "abi": [
    {
      "inputs": [],
      "name": "decimals",
      "outputs": [
        {
          "internalType": "uint8",
          "name": "",
          "type": "uint8"
        }
      ],
      "stateMutability": "nonpayable",
      "type": "function"
    },
    {
      "inputs": [
        {
          "internalType": "address",
          "name": "spender",
          "type": "address"
        },
        {
          "internalType": "uint256",
          "name": "amount",
          "type": "uint256"
        }
      ],
      "name": "approve",
      "outputs": [
        {
          "internalType": "bool",
          "name": "",
          "type": "bool"
        }
      ],
      "stateMutability": "nonpayable",
      "type": "function"
    },
    {
      "inputs": [
        {
          "internalType": "address",
          "name": "account",
          "type": "address"
        }
      ],
      "name": "balanceOf",
      "outputs": [
        {
          "internalType": "uint256",
          "name": "",
          "type": "uint256"
        }
      ],
      "stateMutability": "nonpayable",
      "type": "function"
    },
    {
      "inputs": [],
      "name": "symbol",
      "outputs": [
        {
          "internalType": "string",
          "name": "",
          "type": "string"
        }
      ],
      "stateMutability": "nonpayable",
      "type": "function"
    },
    {
      "inputs": [
        {
          "internalType": "address",
          "name": "sender",
          "type": "address"
        },
        {
          "internalType": "address",
          "name": "recipient",
          "type": "address"
        },
        {
          "internalType": "uint256",
          "name": "amount",
          "type": "uint256"
        }
      ],
      "name": "transferFrom",
      "outputs": [
        {
          "internalType": "bool",
          "name": "",
          "type": "bool"
        }
      ],
      "stateMutability": "nonpayable",
      "type": "function"
    }
  ],
  "bytecode": "0x608060405234801561001057600080fd5b50610226806100206000396000f3fe608060405234801561001057600080fd5b50600436106100575760003560e01c8063095ea7b31461005c57806323b872dd14610087578063313ce5671461009e57806370a08231146100ad57806395d89b41146100cf575b600080fd5b61007261006a366004610113565b600192915050565b60405190151581526020015b60405180910390f35b61007261009536600461013d565b60019392505050565b604051600a815260200161007e565b6100c16100bb366004610179565b50600a90565b60405190815260200161007e565b60408051808201825260068152651cde5b589bdb60d21b6020820152905161007e919061019b565b80356001600160a01b038116811461010e57600080fd5b919050565b6000806040838503121561012657600080fd5b61012f836100f7565b946020939093013593505050565b60008060006060848603121561015257600080fd5b61015b846100f7565b9250610169602085016100f7565b9150604084013590509250925092565b60006020828403121561018b57600080fd5b610194826100f7565b9392505050565b600060208083528351808285015260005b818110156101c8578581018301518582016040015282016101ac565b818111156101da576000604083870101525b50601f01601f191692909201604001939250505056fea2646970667358221220bb868e58449201bc573fcc0f9d404133eaf747c13f6853b0459d55fbadbbb4a964736f6c63430008090033",
  "immutableReferences": {},
  "source": "// SPDX-License-Identifier: MIT\npragma solidity >=0.8;\n\ncontract FakeIBEP20 {\n\n  function decimals() public returns(uint8) {\n\n    return 10;\n  }\n\n  function approve(address spender, uint256 amount) public returns(bool) {\n\n    return true;\n  }\n\n  function balanceOf(address account) public returns(uint256) {\n\n    return 10;\n  }\n\n  function symbol() public returns(string memory) {\n\n    return \"symbol\";\n  }\n\n  function transferFrom(address sender, address recipient, uint256 amount) external returns (bool) {\n\n    return true;\n  }\n  \n}",
  "sourcePath": "/Users/andrew/Documents/Bitbucket/dofin-smart-contracts/contracts/fake/FakeIBEP20.sol",
  "compiler": {
    "name": "solc",
    "version": "0.8.9+commit.e5eed63a.Emscripten.clang"
  },
  "schemaVersion": "3.4.3",
  "updatedAt": "2021-10-12T06:15:59.433Z",
  "networkType": "ethereum",
  "devdoc": {
    "kind": "dev",
    "methods": {},
    "version": 1
  },
  "userdoc": {
    "kind": "user",
    "methods": {},
    "version": 1
  }
}