{
  "contractName": "FakeInterestRateModel",
  "abi": [
    {
      "inputs": [
        {
          "internalType": "uint256",
          "name": "cash",
          "type": "uint256"
        },
        {
          "internalType": "uint256",
          "name": "borrows",
          "type": "uint256"
        },
        {
          "internalType": "uint256",
          "name": "reserves",
          "type": "uint256"
        }
      ],
      "name": "getBorrowRate",
      "outputs": [
        {
          "internalType": "uint256",
          "name": "",
          "type": "uint256"
        }
      ],
      "stateMutability": "nonpayable",
      "type": "function"
    },
    {
      "inputs": [
        {
          "internalType": "uint256",
          "name": "cash",
          "type": "uint256"
        },
        {
          "internalType": "uint256",
          "name": "borrows",
          "type": "uint256"
        },
        {
          "internalType": "uint256",
          "name": "reserves",
          "type": "uint256"
        },
        {
          "internalType": "uint256",
          "name": "reserveFactorMantissa",
          "type": "uint256"
        }
      ],
      "name": "getSupplyRate",
      "outputs": [
        {
          "internalType": "uint256",
          "name": "",
          "type": "uint256"
        }
      ],
      "stateMutability": "nonpayable",
      "type": "function"
    }
  ],
  "bytecode": "0x608060405234801561001057600080fd5b5061010c806100206000396000f3fe6080604052348015600f57600080fd5b506004361060325760003560e01c806315f24053146037578063b8168816146061575b600080fd5b604f6042366004607a565b64e8d4a510009392505050565b60405190815260200160405180910390f35b604f606c36600460a5565b64e8d4a51000949350505050565b600080600060608486031215608e57600080fd5b505081359360208301359350604090920135919050565b6000806000806080858703121560ba57600080fd5b505082359460208401359450604084013593606001359250905056fea2646970667358221220c65be081c285cc5727bfe1edf78d32b1c20a2bf16fda6aad2bf23cf518ac9ea364736f6c63430008090033",
  "immutableReferences": {},
  "source": "// SPDX-License-Identifier: MIT\npragma solidity >=0.8;\n\ncontract FakeInterestRateModel {\n\n  function getBorrowRate(uint256 cash, uint256 borrows, uint256 reserves) public returns(uint256) {\n\n    return 1000000000000;\n  }\n\n  function getSupplyRate(uint256 cash, uint256 borrows, uint256 reserves, uint256 reserveFactorMantissa) public returns(uint256) {\n\n    return 1000000000000;\n  }\n\n}",
  "sourcePath": "/Users/andrew/Documents/Bitbucket/dofin-smart-contracts/contracts/fake/cream/FakeInterestRateModel.sol",
  "compiler": {
    "name": "solc",
    "version": "0.8.9+commit.e5eed63a.Emscripten.clang"
  },
  "schemaVersion": "3.4.3",
  "updatedAt": "2021-10-12T06:15:59.443Z",
  "networkType": "ethereum",
  "devdoc": {
    "kind": "dev",
    "methods": {},
    "version": 1
  },
  "userdoc": {
    "kind": "user",
    "methods": {},
    "version": 1
  }
}