{
  "contractName": "FakeCErc20Delegator",
  "abi": [
    {
      "inputs": [
        {
          "internalType": "address",
          "name": "_interestRateModel",
          "type": "address"
        },
        {
          "internalType": "address",
          "name": "_underlying",
          "type": "address"
        }
      ],
      "stateMutability": "nonpayable",
      "type": "constructor"
    },
    {
      "inputs": [],
      "name": "interestRateModel",
      "outputs": [
        {
          "internalType": "address",
          "name": "",
          "type": "address"
        }
      ],
      "stateMutability": "view",
      "type": "function"
    },
    {
      "inputs": [],
      "name": "underlying",
      "outputs": [
        {
          "internalType": "address",
          "name": "",
          "type": "address"
        }
      ],
      "stateMutability": "view",
      "type": "function"
    },
    {
      "inputs": [
        {
          "internalType": "address",
          "name": "spender",
          "type": "address"
        },
        {
          "internalType": "uint256",
          "name": "amount",
          "type": "uint256"
        }
      ],
      "name": "approve",
      "outputs": [
        {
          "internalType": "bool",
          "name": "",
          "type": "bool"
        }
      ],
      "stateMutability": "nonpayable",
      "type": "function"
    },
    {
      "inputs": [],
      "name": "getCash",
      "outputs": [
        {
          "internalType": "uint256",
          "name": "",
          "type": "uint256"
        }
      ],
      "stateMutability": "nonpayable",
      "type": "function"
    },
    {
      "inputs": [],
      "name": "totalBorrows",
      "outputs": [
        {
          "internalType": "uint256",
          "name": "",
          "type": "uint256"
        }
      ],
      "stateMutability": "nonpayable",
      "type": "function"
    },
    {
      "inputs": [],
      "name": "totalReserves",
      "outputs": [
        {
          "internalType": "uint256",
          "name": "",
          "type": "uint256"
        }
      ],
      "stateMutability": "nonpayable",
      "type": "function"
    },
    {
      "inputs": [],
      "name": "decimals",
      "outputs": [
        {
          "internalType": "uint8",
          "name": "",
          "type": "uint8"
        }
      ],
      "stateMutability": "nonpayable",
      "type": "function"
    },
    {
      "inputs": [],
      "name": "reserveFactorMantissa",
      "outputs": [
        {
          "internalType": "uint256",
          "name": "",
          "type": "uint256"
        }
      ],
      "stateMutability": "nonpayable",
      "type": "function"
    },
    {
      "inputs": [
        {
          "internalType": "address",
          "name": "account",
          "type": "address"
        }
      ],
      "name": "borrowBalanceStored",
      "outputs": [
        {
          "internalType": "uint256",
          "name": "",
          "type": "uint256"
        }
      ],
      "stateMutability": "nonpayable",
      "type": "function"
    },
    {
      "inputs": [
        {
          "internalType": "address",
          "name": "account",
          "type": "address"
        }
      ],
      "name": "balanceOfUnderlying",
      "outputs": [
        {
          "internalType": "uint256",
          "name": "",
          "type": "uint256"
        }
      ],
      "stateMutability": "nonpayable",
      "type": "function"
    },
    {
      "inputs": [],
      "name": "exchangeRateStored",
      "outputs": [
        {
          "internalType": "uint256",
          "name": "",
          "type": "uint256"
        }
      ],
      "stateMutability": "nonpayable",
      "type": "function"
    },
    {
      "inputs": [
        {
          "internalType": "address",
          "name": "owner",
          "type": "address"
        }
      ],
      "name": "balanceOf",
      "outputs": [
        {
          "internalType": "uint256",
          "name": "",
          "type": "uint256"
        }
      ],
      "stateMutability": "nonpayable",
      "type": "function"
    },
    {
      "inputs": [
        {
          "internalType": "uint256",
          "name": "borrowAmount",
          "type": "uint256"
        }
      ],
      "name": "borrow",
      "outputs": [
        {
          "internalType": "uint256",
          "name": "",
          "type": "uint256"
        }
      ],
      "stateMutability": "nonpayable",
      "type": "function"
    },
    {
      "inputs": [],
      "name": "borrow",
      "outputs": [
        {
          "internalType": "uint256",
          "name": "",
          "type": "uint256"
        }
      ],
      "stateMutability": "nonpayable",
      "type": "function"
    },
    {
      "inputs": [
        {
          "internalType": "uint256",
          "name": "repayAmount",
          "type": "uint256"
        }
      ],
      "name": "repayBorrow",
      "outputs": [
        {
          "internalType": "uint256",
          "name": "",
          "type": "uint256"
        }
      ],
      "stateMutability": "nonpayable",
      "type": "function"
    },
    {
      "inputs": [
        {
          "internalType": "uint256",
          "name": "mintAmount",
          "type": "uint256"
        }
      ],
      "name": "mint",
      "outputs": [
        {
          "internalType": "uint256",
          "name": "",
          "type": "uint256"
        }
      ],
      "stateMutability": "nonpayable",
      "type": "function"
    },
    {
      "inputs": [
        {
          "internalType": "address",
          "name": "_underlying",
          "type": "address"
        }
      ],
      "name": "setUnderlying",
      "outputs": [],
      "stateMutability": "nonpayable",
      "type": "function"
    },
    {
      "inputs": [
        {
          "internalType": "address",
          "name": "_InterestRateModel",
          "type": "address"
        }
      ],
      "name": "setInterestRateModel",
      "outputs": [],
      "stateMutability": "nonpayable",
      "type": "function"
    },
    {
      "inputs": [
        {
          "internalType": "uint256",
          "name": "redeemAmount",
          "type": "uint256"
        }
      ],
      "name": "redeemUnderlying",
      "outputs": [
        {
          "internalType": "uint256",
          "name": "",
          "type": "uint256"
        }
      ],
      "stateMutability": "nonpayable",
      "type": "function"
    }
  ],
  "bytecode": "0x608060405234801561001057600080fd5b5060405161039038038061039083398101604081905261002f9161007c565b600080546001600160a01b039384166001600160a01b031991821617909155600180549290931691161790556100af565b80516001600160a01b038116811461007757600080fd5b919050565b6000806040838503121561008f57600080fd5b61009883610060565b91506100a660208401610060565b90509250929050565b6102d2806100be6000396000f3fe608060405234801561001057600080fd5b50600436106100f15760003560e01c8063095ea7b3146100f65780630e75270214610121578063173b990414610143578063182df0f514610143578063313ce5671461014a5780633af9e669146101595780633b1d21a21461014357806347bd3718146101435780636f307dc31461016d57806370a0823114610198578063852a12e3146101215780638bcd4016146101a65780638f840ddd1461014357806395dd919314610198578063a0712d6814610121578063bdb2321f146101d8578063c5ebeaec14610121578063e68d356914610143578063f3fdb15a14610208575b600080fd5b61010c610104366004610237565b600192915050565b60405190151581526020015b60405180910390f35b61013561012f366004610261565b50600a90565b604051908152602001610118565b600a610135565b604051600a8152602001610118565b61013561016736600461027a565b50606490565b600154610180906001600160a01b031681565b6040516001600160a01b039091168152602001610118565b61013561012f36600461027a565b6101d66101b436600461027a565b600080546001600160a01b0319166001600160a01b0392909216919091179055565b005b6101d66101e636600461027a565b600180546001600160a01b0319166001600160a01b0392909216919091179055565b600054610180906001600160a01b031681565b80356001600160a01b038116811461023257600080fd5b919050565b6000806040838503121561024a57600080fd5b6102538361021b565b946020939093013593505050565b60006020828403121561027357600080fd5b5035919050565b60006020828403121561028c57600080fd5b6102958261021b565b939250505056fea2646970667358221220060fc03c8b0065fe920bc33c273664e1af4dde9953656fc47eeca5c03746dd8464736f6c63430008090033",
  "immutableReferences": {},
  "source": "// SPDX-License-Identifier: MIT\npragma solidity >=0.8;\n\ncontract FakeCErc20Delegator {\n\n  address public interestRateModel;\n  address public underlying;\n\n  constructor(address _interestRateModel, address _underlying) public {\n      interestRateModel = _interestRateModel;\n      underlying = _underlying;\n  }\n\n  function borrow() public returns(uint256) {\n\n    return 10;\n  }\n\n  function approve(address spender, uint256 amount) public returns(bool) {\n\n    return true;\n  }\n\n  function getCash() public returns(uint256) {\n\n    return 10;\n  }\n\n  function totalBorrows() public returns(uint256) {\n\n    return 10;\n  }\n\n  function totalReserves() public returns(uint256) {\n\n    return 10;\n  }\n\n  function decimals() public returns(uint8) {\n\n    return 10;\n  }\n\n  function reserveFactorMantissa() public returns(uint256) {\n\n    return 10;\n  }\n\n  function borrowBalanceStored(address account) public returns(uint256) {\n\n    return 10;\n  }\n\n  function balanceOfUnderlying(address account) public returns(uint256) {\n\n    return 100;\n  }\n\n  function exchangeRateStored() public returns(uint256) {\n\n    return 10;\n  }\n\n  function balanceOf(address owner) public returns(uint256) {\n\n    return 10;\n  }\n\n  function borrow(uint256 borrowAmount) public returns(uint256) {\n\n    return 10;\n  }\n\n  function repayBorrow(uint256 repayAmount) public returns(uint256) {\n\n    return 10;\n  }\n\n  function mint(uint256 mintAmount) public returns(uint256) {\n\n    return 10;\n  }\n\n  function setUnderlying(address _underlying) public {\n\n    underlying = _underlying;\n  }\n\n  function setInterestRateModel(address _InterestRateModel) public {\n\n    interestRateModel = _InterestRateModel;\n  }\n\n  function redeemUnderlying(uint256 redeemAmount) public returns (uint256) {\n\n    return 10;\n  }\n\n}",
  "sourcePath": "/Users/andrew/Documents/Bitbucket/dofin-smart-contracts/contracts/fake/cream/FakeCErc20Delegator.sol",
  "compiler": {
    "name": "solc",
    "version": "0.8.9+commit.e5eed63a.Emscripten.clang"
  },
  "schemaVersion": "3.4.3",
  "updatedAt": "2021-10-07T17:21:46.564Z",
  "devdoc": {
    "kind": "dev",
    "methods": {},
    "version": 1
  },
  "userdoc": {
    "kind": "user",
    "methods": {},
    "version": 1
  }
}