{
  "contractName": "HighLevelSystem",
  "abi": [
    {
      "inputs": [
        {
          "components": [
            {
              "internalType": "address",
              "name": "WBNB",
              "type": "address"
            },
            {
              "internalType": "address",
              "name": "BNB",
              "type": "address"
            },
            {
              "internalType": "address",
              "name": "USDT",
              "type": "address"
            },
            {
              "internalType": "address",
              "name": "TUSD",
              "type": "address"
            },
            {
              "internalType": "address",
              "name": "BUSD",
              "type": "address"
            },
            {
              "internalType": "address",
              "name": "USDC",
              "type": "address"
            }
          ],
          "internalType": "struct HighLevelSystem.StableCoin",
          "name": "_stablecoins",
          "type": "tuple"
        },
        {
          "internalType": "address",
          "name": "_token",
          "type": "address"
        }
      ],
      "name": "isStableCoin",
      "outputs": [
        {
          "internalType": "bool",
          "name": "",
          "type": "bool"
        }
      ],
      "stateMutability": "pure",
      "type": "function",
      "constant": true
    },
    {
      "inputs": [
        {
          "components": [
            {
              "components": [
                {
                  "internalType": "address",
                  "name": "oracle",
                  "type": "address"
                }
              ],
              "internalType": "struct LinkBSCOracle.LinkConfig",
              "name": "LinkConfig",
              "type": "tuple"
            },
            {
              "components": [
                {
                  "internalType": "address",
                  "name": "oracle",
                  "type": "address"
                }
              ],
              "internalType": "struct CreamExecution.CreamConfig",
              "name": "CreamConfig",
              "type": "tuple"
            },
            {
              "components": [
                {
                  "internalType": "address",
                  "name": "router",
                  "type": "address"
                },
                {
                  "internalType": "address",
                  "name": "factory",
                  "type": "address"
                },
                {
                  "internalType": "address",
                  "name": "masterchef",
                  "type": "address"
                }
              ],
              "internalType": "struct PancakeSwapExecution.PancakeSwapConfig",
              "name": "PancakeSwapConfig",
              "type": "tuple"
            }
          ],
          "internalType": "struct HighLevelSystem.HLSConfig",
          "name": "self",
          "type": "tuple"
        },
        {
          "components": [
            {
              "internalType": "address",
              "name": "crWBNB",
              "type": "address"
            },
            {
              "internalType": "address",
              "name": "crBNB",
              "type": "address"
            },
            {
              "internalType": "address",
              "name": "crUSDC",
              "type": "address"
            }
          ],
          "internalType": "struct HighLevelSystem.CreamToken",
          "name": "_crtokens",
          "type": "tuple"
        },
        {
          "components": [
            {
              "internalType": "address",
              "name": "WBNB",
              "type": "address"
            },
            {
              "internalType": "address",
              "name": "BNB",
              "type": "address"
            },
            {
              "internalType": "address",
              "name": "USDT",
              "type": "address"
            },
            {
              "internalType": "address",
              "name": "TUSD",
              "type": "address"
            },
            {
              "internalType": "address",
              "name": "BUSD",
              "type": "address"
            },
            {
              "internalType": "address",
              "name": "USDC",
              "type": "address"
            }
          ],
          "internalType": "struct HighLevelSystem.StableCoin",
          "name": "_stablecoins",
          "type": "tuple"
        },
        {
          "internalType": "address",
          "name": "_token_a",
          "type": "address"
        },
        {
          "internalType": "address",
          "name": "_token_b",
          "type": "address"
        },
        {
          "internalType": "address",
          "name": "_crtoken_a",
          "type": "address"
        },
        {
          "internalType": "address",
          "name": "_crtoken_b",
          "type": "address"
        }
      ],
      "name": "getPrice",
      "outputs": [
        {
          "internalType": "uint256",
          "name": "",
          "type": "uint256"
        }
      ],
      "stateMutability": "view",
      "type": "function",
      "constant": true
    },
    {
      "inputs": [
        {
          "components": [
            {
              "internalType": "uint256",
              "name": "pool_id",
              "type": "uint256"
            },
            {
              "internalType": "uint256",
              "name": "token_amount",
              "type": "uint256"
            },
            {
              "internalType": "uint256",
              "name": "token_a_amount",
              "type": "uint256"
            },
            {
              "internalType": "uint256",
              "name": "token_b_amount",
              "type": "uint256"
            },
            {
              "internalType": "uint256",
              "name": "lp_token_amount",
              "type": "uint256"
            },
            {
              "internalType": "uint256",
              "name": "crtoken_amount",
              "type": "uint256"
            },
            {
              "internalType": "uint256",
              "name": "supply_crtoken_amount",
              "type": "uint256"
            },
            {
              "internalType": "address",
              "name": "token",
              "type": "address"
            },
            {
              "internalType": "address",
              "name": "token_a",
              "type": "address"
            },
            {
              "internalType": "address",
              "name": "token_b",
              "type": "address"
            },
            {
              "internalType": "address",
              "name": "lp_token",
              "type": "address"
            },
            {
              "internalType": "address",
              "name": "supply_crtoken",
              "type": "address"
            },
            {
              "internalType": "address",
              "name": "borrowed_crtoken_a",
              "type": "address"
            },
            {
              "internalType": "address",
              "name": "borrowed_crtoken_b",
              "type": "address"
            },
            {
              "internalType": "uint256",
              "name": "max_amount_per_position",
              "type": "uint256"
            },
            {
              "internalType": "uint256",
              "name": "supply_funds_percentage",
              "type": "uint256"
            }
          ],
          "internalType": "struct HighLevelSystem.Position",
          "name": "_position",
          "type": "tuple"
        }
      ],
      "name": "checkBorrowLiquidity",
      "outputs": [
        {
          "internalType": "bool",
          "name": "",
          "type": "bool"
        }
      ],
      "stateMutability": "view",
      "type": "function",
      "constant": true
    },
    {
      "inputs": [
        {
          "components": [
            {
              "components": [
                {
                  "internalType": "address",
                  "name": "oracle",
                  "type": "address"
                }
              ],
              "internalType": "struct LinkBSCOracle.LinkConfig",
              "name": "LinkConfig",
              "type": "tuple"
            },
            {
              "components": [
                {
                  "internalType": "address",
                  "name": "oracle",
                  "type": "address"
                }
              ],
              "internalType": "struct CreamExecution.CreamConfig",
              "name": "CreamConfig",
              "type": "tuple"
            },
            {
              "components": [
                {
                  "internalType": "address",
                  "name": "router",
                  "type": "address"
                },
                {
                  "internalType": "address",
                  "name": "factory",
                  "type": "address"
                },
                {
                  "internalType": "address",
                  "name": "masterchef",
                  "type": "address"
                }
              ],
              "internalType": "struct PancakeSwapExecution.PancakeSwapConfig",
              "name": "PancakeSwapConfig",
              "type": "tuple"
            }
          ],
          "internalType": "struct HighLevelSystem.HLSConfig",
          "name": "self",
          "type": "tuple"
        },
        {
          "components": [
            {
              "internalType": "address",
              "name": "crWBNB",
              "type": "address"
            },
            {
              "internalType": "address",
              "name": "crBNB",
              "type": "address"
            },
            {
              "internalType": "address",
              "name": "crUSDC",
              "type": "address"
            }
          ],
          "internalType": "struct HighLevelSystem.CreamToken",
          "name": "_crtokens",
          "type": "tuple"
        },
        {
          "components": [
            {
              "internalType": "address",
              "name": "WBNB",
              "type": "address"
            },
            {
              "internalType": "address",
              "name": "BNB",
              "type": "address"
            },
            {
              "internalType": "address",
              "name": "USDT",
              "type": "address"
            },
            {
              "internalType": "address",
              "name": "TUSD",
              "type": "address"
            },
            {
              "internalType": "address",
              "name": "BUSD",
              "type": "address"
            },
            {
              "internalType": "address",
              "name": "USDC",
              "type": "address"
            }
          ],
          "internalType": "struct HighLevelSystem.StableCoin",
          "name": "_stablecoins",
          "type": "tuple"
        },
        {
          "internalType": "uint256",
          "name": "lp_constituient_0",
          "type": "uint256"
        },
        {
          "internalType": "uint256",
          "name": "lp_constituient_1",
          "type": "uint256"
        },
        {
          "internalType": "address",
          "name": "_lp_token",
          "type": "address"
        },
        {
          "internalType": "address",
          "name": "_crtoken_a",
          "type": "address"
        },
        {
          "internalType": "address",
          "name": "_crtoken_b",
          "type": "address"
        }
      ],
      "name": "getLPUSDValue",
      "outputs": [
        {
          "internalType": "uint256",
          "name": "",
          "type": "uint256"
        }
      ],
      "stateMutability": "view",
      "type": "function",
      "constant": true
    },
    {
      "inputs": [
        {
          "components": [
            {
              "internalType": "address",
              "name": "crWBNB",
              "type": "address"
            },
            {
              "internalType": "address",
              "name": "crBNB",
              "type": "address"
            },
            {
              "internalType": "address",
              "name": "crUSDC",
              "type": "address"
            }
          ],
          "internalType": "struct HighLevelSystem.CreamToken",
          "name": "_crtokens",
          "type": "tuple"
        },
        {
          "internalType": "address",
          "name": "_crtoken_a",
          "type": "address"
        },
        {
          "internalType": "address",
          "name": "_crtoken_b",
          "type": "address"
        }
      ],
      "name": "getTotalBorrowAmount",
      "outputs": [
        {
          "internalType": "uint256",
          "name": "",
          "type": "uint256"
        },
        {
          "internalType": "uint256",
          "name": "",
          "type": "uint256"
        }
      ],
      "stateMutability": "view",
      "type": "function",
      "constant": true
    },
    {
      "inputs": [
        {
          "components": [
            {
              "components": [
                {
                  "internalType": "address",
                  "name": "oracle",
                  "type": "address"
                }
              ],
              "internalType": "struct LinkBSCOracle.LinkConfig",
              "name": "LinkConfig",
              "type": "tuple"
            },
            {
              "components": [
                {
                  "internalType": "address",
                  "name": "oracle",
                  "type": "address"
                }
              ],
              "internalType": "struct CreamExecution.CreamConfig",
              "name": "CreamConfig",
              "type": "tuple"
            },
            {
              "components": [
                {
                  "internalType": "address",
                  "name": "router",
                  "type": "address"
                },
                {
                  "internalType": "address",
                  "name": "factory",
                  "type": "address"
                },
                {
                  "internalType": "address",
                  "name": "masterchef",
                  "type": "address"
                }
              ],
              "internalType": "struct PancakeSwapExecution.PancakeSwapConfig",
              "name": "PancakeSwapConfig",
              "type": "tuple"
            }
          ],
          "internalType": "struct HighLevelSystem.HLSConfig",
          "name": "self",
          "type": "tuple"
        },
        {
          "internalType": "uint256",
          "name": "_pool_id",
          "type": "uint256"
        }
      ],
      "name": "getTotalCakePendingRewards",
      "outputs": [
        {
          "internalType": "uint256",
          "name": "",
          "type": "uint256"
        }
      ],
      "stateMutability": "view",
      "type": "function",
      "constant": true
    },
    {
      "inputs": [
        {
          "components": [
            {
              "components": [
                {
                  "internalType": "address",
                  "name": "oracle",
                  "type": "address"
                }
              ],
              "internalType": "struct LinkBSCOracle.LinkConfig",
              "name": "LinkConfig",
              "type": "tuple"
            },
            {
              "components": [
                {
                  "internalType": "address",
                  "name": "oracle",
                  "type": "address"
                }
              ],
              "internalType": "struct CreamExecution.CreamConfig",
              "name": "CreamConfig",
              "type": "tuple"
            },
            {
              "components": [
                {
                  "internalType": "address",
                  "name": "router",
                  "type": "address"
                },
                {
                  "internalType": "address",
                  "name": "factory",
                  "type": "address"
                },
                {
                  "internalType": "address",
                  "name": "masterchef",
                  "type": "address"
                }
              ],
              "internalType": "struct PancakeSwapExecution.PancakeSwapConfig",
              "name": "PancakeSwapConfig",
              "type": "tuple"
            }
          ],
          "internalType": "struct HighLevelSystem.HLSConfig",
          "name": "self",
          "type": "tuple"
        },
        {
          "components": [
            {
              "internalType": "address",
              "name": "crWBNB",
              "type": "address"
            },
            {
              "internalType": "address",
              "name": "crBNB",
              "type": "address"
            },
            {
              "internalType": "address",
              "name": "crUSDC",
              "type": "address"
            }
          ],
          "internalType": "struct HighLevelSystem.CreamToken",
          "name": "_crtokens",
          "type": "tuple"
        },
        {
          "components": [
            {
              "internalType": "address",
              "name": "WBNB",
              "type": "address"
            },
            {
              "internalType": "address",
              "name": "BNB",
              "type": "address"
            },
            {
              "internalType": "address",
              "name": "USDT",
              "type": "address"
            },
            {
              "internalType": "address",
              "name": "TUSD",
              "type": "address"
            },
            {
              "internalType": "address",
              "name": "BUSD",
              "type": "address"
            },
            {
              "internalType": "address",
              "name": "USDC",
              "type": "address"
            }
          ],
          "internalType": "struct HighLevelSystem.StableCoin",
          "name": "_stablecoins",
          "type": "tuple"
        },
        {
          "components": [
            {
              "internalType": "uint256",
              "name": "pool_id",
              "type": "uint256"
            },
            {
              "internalType": "uint256",
              "name": "token_amount",
              "type": "uint256"
            },
            {
              "internalType": "uint256",
              "name": "token_a_amount",
              "type": "uint256"
            },
            {
              "internalType": "uint256",
              "name": "token_b_amount",
              "type": "uint256"
            },
            {
              "internalType": "uint256",
              "name": "lp_token_amount",
              "type": "uint256"
            },
            {
              "internalType": "uint256",
              "name": "crtoken_amount",
              "type": "uint256"
            },
            {
              "internalType": "uint256",
              "name": "supply_crtoken_amount",
              "type": "uint256"
            },
            {
              "internalType": "address",
              "name": "token",
              "type": "address"
            },
            {
              "internalType": "address",
              "name": "token_a",
              "type": "address"
            },
            {
              "internalType": "address",
              "name": "token_b",
              "type": "address"
            },
            {
              "internalType": "address",
              "name": "lp_token",
              "type": "address"
            },
            {
              "internalType": "address",
              "name": "supply_crtoken",
              "type": "address"
            },
            {
              "internalType": "address",
              "name": "borrowed_crtoken_a",
              "type": "address"
            },
            {
              "internalType": "address",
              "name": "borrowed_crtoken_b",
              "type": "address"
            },
            {
              "internalType": "uint256",
              "name": "max_amount_per_position",
              "type": "uint256"
            },
            {
              "internalType": "uint256",
              "name": "supply_funds_percentage",
              "type": "uint256"
            }
          ],
          "internalType": "struct HighLevelSystem.Position",
          "name": "_position",
          "type": "tuple"
        },
        {
          "internalType": "uint256",
          "name": "dollar_amount",
          "type": "uint256"
        }
      ],
      "name": "splitUnits",
      "outputs": [
        {
          "internalType": "uint256",
          "name": "",
          "type": "uint256"
        },
        {
          "internalType": "uint256",
          "name": "",
          "type": "uint256"
        }
      ],
      "stateMutability": "view",
      "type": "function",
      "constant": true
    },
    {
      "inputs": [
        {
          "components": [
            {
              "internalType": "address",
              "name": "WBNB",
              "type": "address"
            },
            {
              "internalType": "address",
              "name": "BNB",
              "type": "address"
            },
            {
              "internalType": "address",
              "name": "USDT",
              "type": "address"
            },
            {
              "internalType": "address",
              "name": "TUSD",
              "type": "address"
            },
            {
              "internalType": "address",
              "name": "BUSD",
              "type": "address"
            },
            {
              "internalType": "address",
              "name": "USDC",
              "type": "address"
            }
          ],
          "internalType": "struct HighLevelSystem.StableCoin",
          "name": "_stablecoins",
          "type": "tuple"
        },
        {
          "internalType": "address",
          "name": "_token_a",
          "type": "address"
        },
        {
          "internalType": "address",
          "name": "_token_b",
          "type": "address"
        }
      ],
      "name": "isWBNB",
      "outputs": [
        {
          "internalType": "uint256",
          "name": "",
          "type": "uint256"
        }
      ],
      "stateMutability": "pure",
      "type": "function",
      "constant": true
    },
    {
      "inputs": [
        {
          "internalType": "address",
          "name": "_crtoken_a",
          "type": "address"
        },
        {
          "internalType": "address",
          "name": "_crtoken_b",
          "type": "address"
        }
      ],
      "name": "getBorrowedCreamTokens",
      "outputs": [
        {
          "internalType": "address",
          "name": "",
          "type": "address"
        },
        {
          "internalType": "address",
          "name": "",
          "type": "address"
        }
      ],
      "stateMutability": "pure",
      "type": "function",
      "constant": true
    },
    {
      "inputs": [
        {
          "components": [
            {
              "components": [
                {
                  "internalType": "address",
                  "name": "oracle",
                  "type": "address"
                }
              ],
              "internalType": "struct LinkBSCOracle.LinkConfig",
              "name": "LinkConfig",
              "type": "tuple"
            },
            {
              "components": [
                {
                  "internalType": "address",
                  "name": "oracle",
                  "type": "address"
                }
              ],
              "internalType": "struct CreamExecution.CreamConfig",
              "name": "CreamConfig",
              "type": "tuple"
            },
            {
              "components": [
                {
                  "internalType": "address",
                  "name": "router",
                  "type": "address"
                },
                {
                  "internalType": "address",
                  "name": "factory",
                  "type": "address"
                },
                {
                  "internalType": "address",
                  "name": "masterchef",
                  "type": "address"
                }
              ],
              "internalType": "struct PancakeSwapExecution.PancakeSwapConfig",
              "name": "PancakeSwapConfig",
              "type": "tuple"
            }
          ],
          "internalType": "struct HighLevelSystem.HLSConfig",
          "name": "self",
          "type": "tuple"
        },
        {
          "components": [
            {
              "internalType": "uint256",
              "name": "pool_id",
              "type": "uint256"
            },
            {
              "internalType": "uint256",
              "name": "token_amount",
              "type": "uint256"
            },
            {
              "internalType": "uint256",
              "name": "token_a_amount",
              "type": "uint256"
            },
            {
              "internalType": "uint256",
              "name": "token_b_amount",
              "type": "uint256"
            },
            {
              "internalType": "uint256",
              "name": "lp_token_amount",
              "type": "uint256"
            },
            {
              "internalType": "uint256",
              "name": "crtoken_amount",
              "type": "uint256"
            },
            {
              "internalType": "uint256",
              "name": "supply_crtoken_amount",
              "type": "uint256"
            },
            {
              "internalType": "address",
              "name": "token",
              "type": "address"
            },
            {
              "internalType": "address",
              "name": "token_a",
              "type": "address"
            },
            {
              "internalType": "address",
              "name": "token_b",
              "type": "address"
            },
            {
              "internalType": "address",
              "name": "lp_token",
              "type": "address"
            },
            {
              "internalType": "address",
              "name": "supply_crtoken",
              "type": "address"
            },
            {
              "internalType": "address",
              "name": "borrowed_crtoken_a",
              "type": "address"
            },
            {
              "internalType": "address",
              "name": "borrowed_crtoken_b",
              "type": "address"
            },
            {
              "internalType": "uint256",
              "name": "max_amount_per_position",
              "type": "uint256"
            },
            {
              "internalType": "uint256",
              "name": "supply_funds_percentage",
              "type": "uint256"
            }
          ],
          "internalType": "struct HighLevelSystem.Position",
          "name": "_position",
          "type": "tuple"
        }
      ],
      "name": "getStakedTokens",
      "outputs": [
        {
          "internalType": "uint256",
          "name": "",
          "type": "uint256"
        },
        {
          "internalType": "uint256",
          "name": "",
          "type": "uint256"
        }
      ],
      "stateMutability": "view",
      "type": "function",
      "constant": true
    }
  ],
  "bytecode": "0x61453661003a600b82828239805160001a60731461002d57634e487b7160e01b600052600060045260246000fd5b30600052607381538281f3fe730000000000000000000000000000000000000000301460806040526004361061015e5760003560e01c806309c6f9f5146101635780630f46c73d14610199578063122aa6b5146101c1578063213afcdc146101e157806322e055441461021157806324860d501461023357806329b8783c1461026157806338f89b15146102815780634535c124146102945780634b4d7902146102b45780634ca7bdf4146102c75780635cbf0f29146102e757806361c134591461030757806370e843ed1461031a5780637303ad9f1461033a578063782186511461035a5780637f84dcba1461037a578063809605381461038d5780639e0a9665146103ad578063aea759e1146103cd578063ce81e37d146103e0578063d527b8f7146103f3578063ddcbfab114610413578063de87fccf14610426578063e3cba57414610439578063ea142afd14610459578063f0c54fba14610479578063f3389c0714610499575b600080fd5b81801561016f57600080fd5b5061018361017e366004613bd7565b6104b9565b6040516101909190613c3f565b60405180910390f35b6101ac6101a7366004613d36565b6104eb565b60408051928352602083019190915201610190565b8180156101cd57600080fd5b506101836101dc366004613d36565b610578565b8180156101ed57600080fd5b506102016101fc366004613d9a565b610c5c565b6040519015158152602001610190565b81801561021d57600080fd5b5061023161022c366004613dd0565b610d8a565b005b81801561023f57600080fd5b5061025361024e366004613e18565b6112b6565b604051908152602001610190565b81801561026d57600080fd5b5061025361027c366004613e87565b611558565b61025361028f366004613eb3565b6115eb565b8180156102a057600080fd5b506101ac6102af366004613bd7565b6116e9565b6102536102c2366004613f4d565b6117b5565b8180156102d357600080fd5b506102536102e2366004613bd7565b611845565b8180156102f357600080fd5b50610231610302366004613f78565b611bf1565b610253610315366004613f95565b611d16565b81801561032657600080fd5b50610253610335366004613e87565b611d9a565b81801561034657600080fd5b50610201610355366004613fe0565b611ec7565b81801561036657600080fd5b5061025361037536600461401f565b611eea565b610201610388366004613f78565b6120d8565b81801561039957600080fd5b506102016103a8366004613bd7565b612228565b8180156103b957600080fd5b506101836103c8366004613bd7565b61224d565b6102536103db36600461405e565b612287565b6101ac6103ee36600461401f565b6125ba565b8180156103ff57600080fd5b5061025361040e366004613bd7565b6126e8565b6102016104213660046140f7565b612b82565b6101ac610434366004613d9a565b612c24565b81801561044557600080fd5b50610183610454366004613d36565b612d5a565b61046b61046736600461412f565b9091565b60405161019092919061415d565b81801561048557600080fd5b50610201610494366004613d9a565b613222565b8180156104a557600080fd5b506102016104b4366004613fe0565b6132f3565b6104c16137e1565b6000806104d0878787876116e9565b6040860191909152606085015250829150505b949350505050565b60008060006104fb846002613620565b9050600086604001519050600088604001519050600061052a8b8b8b8b6101000151878d610180015188612287565b905060006105478c8c8c8c6101200151888e6101a0015189612287565b905060006105558684613620565b905060006105638784613620565b919e919d50909b505050505050505050505050565b6105806137e1565b816001148061058f5750816002145b8061059a5750816003145b15610744576105aa868585611ec7565b508261014001516001600160a01b03166370a08231306040518263ffffffff1660e01b81526004016105dc9190614177565b60206040518083038186803b1580156105f457600080fd5b505afa158015610608573d6000803e3d6000fd5b505050506040513d601f19601f8201168201806040525081019061062c919061418b565b60808401526101008301516040516370a0823160e01b81526001600160a01b03909116906370a0823190610664903090600401614177565b60206040518083038186803b15801561067c57600080fd5b505afa158015610690573d6000803e3d6000fd5b505050506040513d601f19601f820116820180604052508101906106b4919061418b565b8360400181815250508261012001516001600160a01b03166370a08231306040518263ffffffff1660e01b81526004016106ee9190614177565b60206040518083038186803b15801561070657600080fd5b505afa15801561071a573d6000803e3d6000fd5b505050506040513d601f19601f8201168201806040525081019061073e919061418b565b60608401525b81600114806107535750816002145b156108fc57610763858585610d8a565b8261016001516001600160a01b03166370a08231306040518263ffffffff1660e01b81526004016107949190614177565b60206040518083038186803b1580156107ac57600080fd5b505afa1580156107c0573d6000803e3d6000fd5b505050506040513d601f19601f820116820180604052508101906107e4919061418b565b60c08401526101008301516040516370a0823160e01b81526001600160a01b03909116906370a082319061081c903090600401614177565b60206040518083038186803b15801561083457600080fd5b505afa158015610848573d6000803e3d6000fd5b505050506040513d601f19601f8201168201806040525081019061086c919061418b565b8360400181815250508261012001516001600160a01b03166370a08231306040518263ffffffff1660e01b81526004016108a69190614177565b60206040518083038186803b1580156108be57600080fd5b505afa1580156108d2573d6000803e3d6000fd5b505050506040513d601f19601f820116820180604052508101906108f6919061418b565b60608401525b8160011415610c52576101008301516040516370a0823160e01b81526000916001600160a01b0316906370a0823190610939903090600401614177565b60206040518083038186803b15801561095157600080fd5b505afa158015610965573d6000803e3d6000fd5b505050506040513d601f19601f82011682018060405250810190610989919061418b565b905060008461012001516001600160a01b03166370a08231306040518263ffffffff1660e01b81526004016109be9190614177565b60206040518083038186803b1580156109d657600080fd5b505afa1580156109ea573d6000803e3d6000fd5b505050506040513d601f19601f82011682018060405250810190610a0e919061418b565b9050610a1f85610180015183611558565b50610a2f856101a0015182611558565b508460e001516001600160a01b03166370a08231306040518263ffffffff1660e01b8152600401610a609190614177565b60206040518083038186803b158015610a7857600080fd5b505afa158015610a8c573d6000803e3d6000fd5b505050506040513d601f19601f82011682018060405250810190610ab0919061418b565b60208601526101608501516040516370a0823160e01b81526001600160a01b03909116906370a0823190610ae8903090600401614177565b60206040518083038186803b158015610b0057600080fd5b505afa158015610b14573d6000803e3d6000fd5b505050506040513d601f19601f82011682018060405250810190610b38919061418b565b60a08601526101008501516040516370a0823160e01b81526001600160a01b03909116906370a0823190610b70903090600401614177565b60206040518083038186803b158015610b8857600080fd5b505afa158015610b9c573d6000803e3d6000fd5b505050506040513d601f19601f82011682018060405250810190610bc0919061418b565b8560400181815250508461012001516001600160a01b03166370a08231306040518263ffffffff1660e01b8152600401610bfa9190614177565b60206040518083038186803b158015610c1257600080fd5b505afa158015610c26573d6000803e3d6000fd5b505050506040513d601f19601f82011682018060405250810190610c4a919061418b565b606086015250505b5090949350505050565b6040808301518251915163b8b542c560e01b8152600092839273__PancakeSwapExecution__________________9263b8b542c592610c9e92916004016141cb565b60206040518083038186803b158015610cb657600080fd5b505af4158015610cca573d6000803e3d6000fd5b505050506040513d601f19601f82011682018060405250810190610cee919061418b565b6040808601518551915163136e949560e11b815292935073__PancakeSwapExecution__________________926326dd292a92610d30929186906004016141e6565b60206040518083038186803b158015610d4857600080fd5b505af4158015610d5c573d6000803e3d6000fd5b505050506040513d601f19601f82011682018060405250810190610d809190614205565b9150505b92915050565b61018081015183516040516338bad5e560e01b815260009273__CreamExecution________________________926338bad5e592610dcc92919060040161415d565b60206040518083038186803b158015610de457600080fd5b505af4158015610df8573d6000803e3d6000fd5b505050506040513d601f19601f82011682018060405250810190610e1c919061418b565b6101a083015185516040516338bad5e560e01b815292935060009273__CreamExecution________________________926338bad5e592610e5f9260040161415d565b60206040518083038186803b158015610e7757600080fd5b505af4158015610e8b573d6000803e3d6000fd5b505050506040513d601f19601f82011682018060405250810190610eaf919061418b565b9050600073__CreamExecution________________________633aecd0e38561018001516040518263ffffffff1660e01b8152600401610eef9190614177565b60206040518083038186803b158015610f0757600080fd5b505af4158015610f1b573d6000803e3d6000fd5b505050506040513d601f19601f82011682018060405250810190610f3f919061418b565b9050600073__CreamExecution________________________633aecd0e3866101a001516040518263ffffffff1660e01b8152600401610f7f9190614177565b60206040518083038186803b158015610f9757600080fd5b505af4158015610fab573d6000803e3d6000fd5b505050506040513d601f19601f82011682018060405250810190610fcf919061418b565b905060008083861015610fe457859150610fe8565b8391505b82851015610ff7575083610ffa565b50815b6000611011898961010001518a6101200151611d16565b9050806002141561113f57610180880151604051630450cfaf60e31b815273__CreamExecution________________________916322867d789161105a91908790600401614227565b60206040518083038186803b15801561107257600080fd5b505af4158015611086573d6000803e3d6000fd5b505050506040513d601f19601f820116820180604052508101906110aa919061418b565b506101a0880151604051630450cfaf60e31b815273__CreamExecution________________________916322867d78916110e991908690600401614227565b60206040518083038186803b15801561110157600080fd5b505af4158015611115573d6000803e3d6000fd5b505050506040513d601f19601f82011682018060405250810190611139919061418b565b506112aa565b8060011415611186576101808801516040516330a4db3960e11b815273__CreamExecution________________________91636149b6729161105a91908790600401614227565b806112aa57610180880151604051630450cfaf60e31b815273__CreamExecution________________________916322867d78916111c991908790600401614227565b60206040518083038186803b1580156111e157600080fd5b505af41580156111f5573d6000803e3d6000fd5b505050506040513d601f19601f82011682018060405250810190611219919061418b565b506101a08801516040516330a4db3960e11b815273__CreamExecution________________________91636149b6729161125891908690600401614227565b60206040518083038186803b15801561127057600080fd5b505af4158015611284573d6000803e3d6000fd5b505050506040513d601f19601f820116820180604052508101906112a8919061418b565b505b50505050505050505050565b6000806112c588888888611845565b9050600073__CreamExecution________________________630f81894f8761018001516040518263ffffffff1660e01b81526004016113059190614177565b60206040518083038186803b15801561131d57600080fd5b505af4158015611331573d6000803e3d6000fd5b505050506040513d601f19601f82011682018060405250810190611355919061418b565b9050600073__CreamExecution________________________633d58a7358b602001518961018001518c604001518c60a00151878c6040518763ffffffff1660e01b81526004016113ab96959493929190614240565b60206040518083038186803b1580156113c357600080fd5b505af41580156113d7573d6000803e3d6000fd5b505050506040513d601f19601f820116820180604052508101906113fb919061418b565b9050600073__CreamExecution________________________630f81894f896101a001516040518263ffffffff1660e01b815260040161143b9190614177565b60206040518083038186803b15801561145357600080fd5b505af4158015611467573d6000803e3d6000fd5b505050506040513d601f19601f8201168201806040525081019061148b919061418b565b9050600073__CreamExecution________________________633d58a7358d602001518b6101a001518e604001518e60a00151878d6040518763ffffffff1660e01b81526004016114e196959493929190614240565b60206040518083038186803b1580156114f957600080fd5b505af415801561150d573d6000803e3d6000fd5b505050506040513d601f19601f82011682018060405250810190611531919061418b565b90508061153e848761428f565b611548919061428f565b9c9b505050505050505050505050565b6040516312c5282f60e31b815260009073__CreamExecution________________________906396294178906115949086908690600401614227565b60206040518083038186803b1580156115ac57600080fd5b505af41580156115c0573d6000803e3d6000fd5b505050506040513d601f19601f820116820180604052508101906115e4919061418b565b9392505050565b600080600073__PancakeSwapExecution__________________63eb9c104f876040518263ffffffff1660e01b81526004016116279190614177565b604080518083038186803b15801561163e57600080fd5b505af4158015611652573d6000803e3d6000fd5b505050506040513d601f19601f8201168201806040525081019061167691906142a7565b60a08b015160408d01519294509092509060006116988e8e8e88878d88612287565b905060006116ab8f8f8f88888d89612287565b905060006116b9838e61365f565b905060006116c7838e61365f565b90506116d3818361428f565b9850505050505050505098975050505050505050565b60008060008061170188888888896101c001516104eb565b9150915060006117158989898987876112b6565b905061172281606461365f565b9050604b811015611738575090925090506117ac565b600061174f89886101800151896101a00151611eea565b90506000806117618c8c8c8c876104eb565b9150915060006117758d8d8d8d8b8b6112b6565b905061178281606461365f565b9050604b81101561179d575090965094506117ac9350505050565b60008098509850505050505050505b94509492505050565b60008073__PancakeSwapExecution__________________630afe4bf78560400151856040518363ffffffff1660e01b81526004016117f59291906141cb565b60206040518083038186803b15801561180d57600080fd5b505af4158015611821573d6000803e3d6000fd5b505050506040513d601f19601f82011682018060405250810190610d80919061418b565b60008073__CreamExecution________________________630f81894f8461018001516040518263ffffffff1660e01b81526004016118849190614177565b60206040518083038186803b15801561189c57600080fd5b505af41580156118b0573d6000803e3d6000fd5b505050506040513d601f19601f820116820180604052508101906118d4919061418b565b61018084015186516040516338bad5e560e01b815292935060009273__CreamExecution________________________926338bad5e5926119179260040161415d565b60206040518083038186803b15801561192f57600080fd5b505af4158015611943573d6000803e3d6000fd5b505050506040513d601f19601f82011682018060405250810190611967919061418b565b9050600073__CreamExecution________________________633d58a73589602001518761018001518a604001518a60a0015188886040518763ffffffff1660e01b81526004016119bd96959493929190614240565b60206040518083038186803b1580156119d557600080fd5b505af41580156119e9573d6000803e3d6000fd5b505050506040513d601f19601f82011682018060405250810190611a0d919061418b565b9050600073__CreamExecution________________________630f81894f876101a001516040518263ffffffff1660e01b8152600401611a4d9190614177565b60206040518083038186803b158015611a6557600080fd5b505af4158015611a79573d6000803e3d6000fd5b505050506040513d601f19601f82011682018060405250810190611a9d919061418b565b6101a087015189516040516338bad5e560e01b815292935060009273__CreamExecution________________________926338bad5e592611ae09260040161415d565b60206040518083038186803b158015611af857600080fd5b505af4158015611b0c573d6000803e3d6000fd5b505050506040513d601f19601f82011682018060405250810190611b30919061418b565b9050600073__CreamExecution________________________633d58a7358c602001518a6101a001518d604001518d60a0015188886040518763ffffffff1660e01b8152600401611b8696959493929190614240565b60206040518083038186803b158015611b9e57600080fd5b505af4158015611bb2573d6000803e3d6000fd5b505050506040513d601f19601f82011682018060405250810190611bd6919061418b565b9050611be2818561428f565b9b9a5050505050505050505050565b6101808101516040808301519051634b8a352960e01b815273__CreamExecution________________________92634b8a352992611c3192600401614227565b60206040518083038186803b158015611c4957600080fd5b505af4158015611c5d573d6000803e3d6000fd5b505050506040513d601f19601f82011682018060405250810190611c81919061418b565b506101a08101516060820151604051634b8a352960e01b815273__CreamExecution________________________92634b8a352992611cc292600401614227565b60206040518083038186803b158015611cda57600080fd5b505af4158015611cee573d6000803e3d6000fd5b505050506040513d601f19601f82011682018060405250810190611d12919061418b565b5050565b600083600001516001600160a01b0316836001600160a01b0316148015611d49575083516001600160a01b038381169116145b15611d56575060026115e4565b83516001600160a01b0384811691161415611d73575060016115e4565b83516001600160a01b0383811691161415611d90575060006115e4565b5060029392505050565b60008073__CreamExecution________________________63efb7601d856040518263ffffffff1660e01b8152600401611dd49190614177565b60206040518083038186803b158015611dec57600080fd5b505af4158015611e00573d6000803e3d6000fd5b505050506040513d601f19601f82011682018060405250810190611e24919061418b565b90506000611e328483613620565b604051631e573fb760e31b815290915073__CreamExecution________________________9063f2b9fdb890611e6e9088908590600401614227565b60206040518083038186803b158015611e8657600080fd5b505af4158015611e9a573d6000803e3d6000fd5b505050506040513d601f19601f82011682018060405250810190611ebe919061418b565b95945050505050565b6000611ed38483610c5c565b50611edf8484846132f3565b506001949350505050565b82516040808501519051630f81894f60e01b815260009291839173__CreamExecution________________________91630f81894f91611f2d9190600401614177565b60206040518083038186803b158015611f4557600080fd5b505af4158015611f59573d6000803e3d6000fd5b505050506040513d601f19601f82011682018060405250810190611f7d919061418b565b9050600073__CreamExecution________________________6338bad5e587856040518363ffffffff1660e01b8152600401611fba92919061415d565b60206040518083038186803b158015611fd257600080fd5b505af4158015611fe6573d6000803e3d6000fd5b505050506040513d601f19601f8201168201806040525081019061200a919061418b565b9050600073__CreamExecution________________________6338bad5e587866040518363ffffffff1660e01b815260040161204792919061415d565b60206040518083038186803b15801561205f57600080fd5b505af4158015612073573d6000803e3d6000fd5b505050506040513d601f19601f82011682018060405250810190612097919061418b565b905060006120a583836136e3565b90506120bc6120b585604b61365f565b6064613620565b935060006120ca8583613740565b9a9950505050505050505050565b60008073__CreamExecution________________________63255e5f528461018001516040518263ffffffff1660e01b81526004016121179190614177565b60206040518083038186803b15801561212f57600080fd5b505af4158015612143573d6000803e3d6000fd5b505050506040513d601f19601f82011682018060405250810190612167919061418b565b9050600073__CreamExecution________________________63255e5f52856101a001516040518263ffffffff1660e01b81526004016121a79190614177565b60206040518083038186803b1580156121bf57600080fd5b505af41580156121d3573d6000803e3d6000fd5b505050506040513d601f19601f820116820180604052508101906121f7919061418b565b905083604001518211801561220f5750836060015181115b1561221e575060019392505050565b5060009392505050565b6000612236858585856126e8565b506122418583613222565b50600195945050505050565b6122556137e1565b6000612260836120d8565b905060018115151415610c5257600061227d878787876001612d5a565b92506104e3915050565b845160208087015160a088015160408a0151928b015160009493906001600160a01b038a811690861614156122ba578399505b846001600160a01b0316896001600160a01b031614156122d8578398505b6122e28b8b612b82565b80156122f357506122f38b8a612b82565b15612306576001955050505050506125af565b8c51516000906001600160a01b0316156123b6578d5160405163092667f360e41b815290516001600160a01b0316600482015273__LinkBSCOracle_________________________906392667f309060240160206040518083038186803b15801561237057600080fd5b505af4158015612384573d6000803e3d6000fd5b505050506040513d601f19601f820116820180604052508101906123a8919061418b565b96506125af95505050505050565b6001600160a01b038916158015906123d657506001600160a01b03881615155b1561251757604051630840f3db60e11b815260009073__CreamExecution________________________90631081e7b69061241b9086908e9089908b906004016142d6565b60206040518083038186803b15801561243357600080fd5b505af4158015612447573d6000803e3d6000fd5b505050506040513d601f19601f8201168201806040525081019061246b919061418b565b9050600073__CreamExecution________________________631081e7b6858c888a6040518563ffffffff1660e01b81526004016124ac94939291906142d6565b60206040518083038186803b1580156124c457600080fd5b505af41580156124d8573d6000803e3d6000fd5b505050506040513d601f19601f820116820180604052508101906124fc919061418b565b90506125088282613620565b985050505050505050506125af565b6040808f015190516307248d7160e01b815273__PancakeSwapExecution__________________916307248d719161255691908f908f90600401614301565b60206040518083038186803b15801561256e57600080fd5b505af4158015612582573d6000803e3d6000fd5b505050506040513d601f19601f820116820180604052508101906125a6919061418b565b96505050505050505b979650505050505050565b82516040516338bad5e560e01b81526000918291829173__CreamExecution________________________916338bad5e5916125fb9189919060040161415d565b60206040518083038186803b15801561261357600080fd5b505af4158015612627573d6000803e3d6000fd5b505050506040513d601f19601f8201168201806040525081019061264b919061418b565b86516040516338bad5e560e01b815291925060009173__CreamExecution________________________916338bad5e59161268a91899160040161415d565b60206040518083038186803b1580156126a257600080fd5b505af41580156126b6573d6000803e3d6000fd5b505050506040513d601f19601f820116820180604052508101906126da919061418b565b919791965090945050505050565b60008061270e868686866101000151876101200151886101800151896101a00151612287565b9050600073__PancakeSwapExecution__________________63a832544173__PancakeSwapExecution__________________637814d5c08a604001518861010001518961012001516040518463ffffffff1660e01b815260040161277593929190614301565b60206040518083038186803b15801561278d57600080fd5b505af41580156127a1573d6000803e3d6000fd5b505050506040513d601f19601f820116820180604052508101906127c59190614331565b6040518263ffffffff1660e01b81526004016127e19190614177565b60206040518083038186803b1580156127f957600080fd5b505af415801561280d573d6000803e3d6000fd5b505050506040513d601f19601f82011682018060405250810190612831919061418b565b905060008073__PancakeSwapExecution__________________63776481668760400151886060015187876040518563ffffffff1660e01b8152600401612891949392919093845260208401929092526040830152606082015260800190565b604080518083038186803b1580156128a857600080fd5b505af41580156128bc573d6000803e3d6000fd5b505050506040513d601f19601f820116820180604052508101906128e0919061434e565b6101008801516101208901516101408a015160405162ce5abd60e21b81526001600160a01b03938416600482015291831660248301526044820185905260648201849052919091166084820152919350915073__PancakeSwapExecution__________________906303396af49060a401604080518083038186803b15801561296857600080fd5b505af415801561297c573d6000803e3d6000fd5b505050506040513d601f19601f820116820180604052508101906129a0919061434e565b61014088015160405163eb9c104f60e01b8152929450909250600091829173__PancakeSwapExecution__________________9163eb9c104f916129e691600401614177565b604080518083038186803b1580156129fd57600080fd5b505af4158015612a11573d6000803e3d6000fd5b505050506040513d601f19601f82011682018060405250810190612a3591906142a7565b915091506000612a468a8484611d16565b905080600214612b3f578060011415612afb576040808d01518b51915163199b2a9160e31b815273__PancakeSwapExecution__________________9263ccd9548892612a9d92909188918a908c90600401614372565b60206040518083038186803b158015612ab557600080fd5b505af4158015612ac9573d6000803e3d6000fd5b505050506040513d601f19601f82011682018060405250810190612aed919061418b565b9750505050505050506104e3565b6040808d01518b51915163199b2a9160e31b815273__PancakeSwapExecution__________________9263ccd9548892612a9d92909187918b908b90600401614372565b6040808d015190516335eaf0b160e11b815273__PancakeSwapExecution__________________91636bd5e16291612a9d9190879087908b908b90600401614372565b600082604001516001600160a01b0316826001600160a01b03161415612baa57506001610d84565b82606001516001600160a01b0316826001600160a01b03161415612bd057506001610d84565b82608001516001600160a01b0316826001600160a01b03161415612bf657506001610d84565b8260a001516001600160a01b0316826001600160a01b03161415612c1c57506001610d84565b506000610d84565b600080600073__PancakeSwapExecution__________________63b8b542c5866040015186600001516040518363ffffffff1660e01b8152600401612c6a9291906141cb565b60206040518083038186803b158015612c8257600080fd5b505af4158015612c96573d6000803e3d6000fd5b505050506040513d601f19601f82011682018060405250810190612cba919061418b565b905060008073__PancakeSwapExecution__________________63f8ba032b848861014001516040518363ffffffff1660e01b8152600401612cfd9291906143af565b604080518083038186803b158015612d1457600080fd5b505af4158015612d28573d6000803e3d6000fd5b505050506040513d601f19601f82011682018060405250810190612d4c919061434e565b909890975095505050505050565b612d626137e1565b8160011415612f265760e08301516040516370a0823160e01b81526000916001600160a01b0316906370a0823190612d9e903090600401614177565b60206040518083038186803b158015612db657600080fd5b505afa158015612dca573d6000803e3d6000fd5b505050506040513d601f19601f82011682018060405250810190612dee919061418b565b90506000612e046120b583876101e0015161365f565b9050612e1585610160015182611d9a565b508460e001516001600160a01b03166370a08231306040518263ffffffff1660e01b8152600401612e469190614177565b60206040518083038186803b158015612e5e57600080fd5b505afa158015612e72573d6000803e3d6000fd5b505050506040513d601f19601f82011682018060405250810190612e96919061418b565b60208601526101608501516040516370a0823160e01b81526001600160a01b03909116906370a0823190612ece903090600401614177565b60206040518083038186803b158015612ee657600080fd5b505afa158015612efa573d6000803e3d6000fd5b505050506040513d601f19601f82011682018060405250810190612f1e919061418b565b60a086015250505b8160011480612f355750816002145b1561305457612f4383611bf1565b8261010001516001600160a01b03166370a08231306040518263ffffffff1660e01b8152600401612f749190614177565b60206040518083038186803b158015612f8c57600080fd5b505afa158015612fa0573d6000803e3d6000fd5b505050506040513d601f19601f82011682018060405250810190612fc4919061418b565b8360400181815250508261012001516001600160a01b03166370a08231306040518263ffffffff1660e01b8152600401612ffe9190614177565b60206040518083038186803b15801561301657600080fd5b505afa15801561302a573d6000803e3d6000fd5b505050506040513d601f19601f8201168201806040525081019061304e919061418b565b60608401525b81600114806130635750816002145b8061306e5750816003145b15610c525761307f86868686612228565b508261014001516001600160a01b03166370a08231306040518263ffffffff1660e01b81526004016130b19190614177565b60206040518083038186803b1580156130c957600080fd5b505afa1580156130dd573d6000803e3d6000fd5b505050506040513d601f19601f82011682018060405250810190613101919061418b565b60808401526101008301516040516370a0823160e01b81526001600160a01b03909116906370a0823190613139903090600401614177565b60206040518083038186803b15801561315157600080fd5b505afa158015613165573d6000803e3d6000fd5b505050506040513d601f19601f82011682018060405250810190613189919061418b565b8360400181815250508261012001516001600160a01b03166370a08231306040518263ffffffff1660e01b81526004016131c39190614177565b60206040518083038186803b1580156131db57600080fd5b505afa1580156131ef573d6000803e3d6000fd5b505050506040513d601f19601f82011682018060405250810190613213919061418b565b60608401525090949350505050565b60008073__PancakeSwapExecution__________________63d2258beb8461014001516040518263ffffffff1660e01b81526004016132619190614177565b60206040518083038186803b15801561327957600080fd5b505af415801561328d573d6000803e3d6000fd5b505050506040513d601f19601f820116820180604052508101906132b1919061418b565b604080860151855191516303677d6360e01b815292935073__PancakeSwapExecution__________________926303677d6392610d30929186906004016141e6565b60008073__PancakeSwapExecution__________________63d2258beb8461014001516040518263ffffffff1660e01b81526004016133329190614177565b60206040518083038186803b15801561334a57600080fd5b505af415801561335e573d6000803e3d6000fd5b505050506040513d601f19601f82011682018060405250810190613382919061418b565b905060008073__PancakeSwapExecution__________________63f8ba032b848761014001516040518363ffffffff1660e01b81526004016133c59291906143af565b604080518083038186803b1580156133dc57600080fd5b505af41580156133f0573d6000803e3d6000fd5b505050506040513d601f19601f82011682018060405250810190613414919061434e565b9150915060008073__PancakeSwapExecution__________________63eb9c104f8861014001516040518263ffffffff1660e01b81526004016134579190614177565b604080518083038186803b15801561346e57600080fd5b505af4158015613482573d6000803e3d6000fd5b505050506040513d601f19601f820116820180604052508101906134a691906142a7565b9150915060006134b7898484611d16565b9050806002146135935780600114156135495773__PancakeSwapExecution__________________632ddeffe08b604001518a6101400151868a8a8a6040518763ffffffff1660e01b8152600401613514969594939291906143c6565b60006040518083038186803b15801561352c57600080fd5b505af4158015613540573d6000803e3d6000fd5b50505050613610565b73__PancakeSwapExecution__________________632ddeffe08b604001518a6101400151858a898b6040518763ffffffff1660e01b8152600401613514969594939291906143c6565b73__PancakeSwapExecution__________________63fb067e158b604001518a610140015186868b8b8b6040518863ffffffff1660e01b81526004016135df9796959493929190614409565b60006040518083038186803b1580156135f757600080fd5b505af415801561360b573d6000803e3d6000fd5b505050505b5060019998505050505050505050565b60006115e483836040518060400160405280601a815260200179536166654d6174683a206469766973696f6e206279207a65726f60301b815250613782565b60008261366e57506000610d84565b600061367a8385614453565b9050826136878583614472565b146115e45760405162461bcd60e51b815260206004820152602160248201527f536166654d6174683a206d756c7469706c69636174696f6e206f766572666c6f6044820152607760f81b60648201526084015b60405180910390fd5b6000806136f0838561428f565b9050838110156115e45760405162461bcd60e51b815260206004820152601b60248201527a536166654d6174683a206164646974696f6e206f766572666c6f7760281b60448201526064016136da565b60006115e483836040518060400160405280601e81526020017f536166654d6174683a207375627472616374696f6e206f766572666c6f7700008152506137b0565b600081836137a35760405162461bcd60e51b81526004016136da9190614494565b506000611ebe8486614472565b600081848411156137d45760405162461bcd60e51b81526004016136da9190614494565b506000611ebe84866144e9565b6040518061020001604052806000815260200160008152602001600081526020016000815260200160008152602001600081526020016000815260200160006001600160a01b0316815260200160006001600160a01b0316815260200160006001600160a01b0316815260200160006001600160a01b0316815260200160006001600160a01b0316815260200160006001600160a01b0316815260200160006001600160a01b0316815260200160008152602001600081525090565b604051606081016001600160401b03811182821017156138cd57634e487b7160e01b600052604160045260246000fd5b60405290565b60405161020081016001600160401b03811182821017156138cd57634e487b7160e01b600052604160045260246000fd5b6001600160a01b038116811461391957600080fd5b50565b803561392781613904565b919050565b60006020828403121561393e57600080fd5b604051602081016001600160401b038111828210171561396e57634e487b7160e01b600052604160045260246000fd5b604052905080823561397f81613904565b905292915050565b60006060828403121561399957600080fd5b6139a161389d565b905081356139ae81613904565b815260208201356139be81613904565b602082015260408201356139d181613904565b604082015292915050565b600060a082840312156139ee57600080fd5b6139f661389d565b9050613a02838361392c565b8152613a11836020840161392c565b60208201526139d18360408401613987565b600060c08284031215613a3557600080fd5b60405160c081016001600160401b0381118282101715613a6557634e487b7160e01b600052604160045260246000fd5b6040529050808235613a7681613904565b81526020830135613a8681613904565b60208201526040830135613a9981613904565b60408201526060830135613aac81613904565b60608201526080830135613abf81613904565b608082015260a0830135613ad281613904565b60a0919091015292915050565b60006102008284031215613af257600080fd5b613afa6138d3565b9050813581526020820135602082015260408201356040820152606082013560608201526080820135608082015260a082013560a082015260c082013560c0820152613b4860e0830161391c565b60e0820152610100613b5b81840161391c565b90820152610120613b6d83820161391c565b90820152610140613b7f83820161391c565b90820152610160613b9183820161391c565b90820152610180613ba383820161391c565b908201526101a0613bb583820161391c565b908201526101c082810135908201526101e09182013591810191909152919050565b6000806000806103c08587031215613bee57600080fd5b613bf886866139dc565b9350613c078660a08701613987565b9250613c17866101008701613a23565b9150613c27866101c08701613adf565b905092959194509250565b6001600160a01b03169052565b600061020082019050825182526020830151602083015260408301516040830152606083015160608301526080830151608083015260a083015160a083015260c083015160c083015260e0830151613c9a60e0840182613c32565b5061010080840151613cae82850182613c32565b505061012080840151613cc382850182613c32565b505061014080840151613cd882850182613c32565b505061016080840151613ced82850182613c32565b505061018080840151613d0282850182613c32565b50506101a080840151613d1782850182613c32565b50506101c083810151908301526101e092830151929091019190915290565b60008060008060006103e08688031215613d4f57600080fd5b613d5987876139dc565b9450613d688760a08801613987565b9350613d78876101008801613a23565b9250613d88876101c08801613adf565b949793965091946103c0013592915050565b6000806102a08385031215613dae57600080fd5b613db884846139dc565b9150613dc78460a08501613adf565b90509250929050565b60008060006103208486031215613de657600080fd5b613df08585613987565b9250613dff8560608601613a23565b9150613e0f856101208601613adf565b90509250925092565b6000806000806000806104008789031215613e3257600080fd5b613e3c88886139dc565b9550613e4b8860a08901613987565b9450613e5b886101008901613a23565b9350613e6b886101c08901613adf565b92506103c087013591506103e087013590509295509295509295565b60008060408385031215613e9a57600080fd5b8235613ea581613904565b946020939093013593505050565b600080600080600080600080610260898b031215613ed057600080fd5b613eda8a8a6139dc565b9750613ee98a60a08b01613987565b9650613ef98a6101008b01613a23565b95506101c089013594506101e08901359350610200890135613f1a81613904565b9250610220890135613f2b81613904565b9150610240890135613f3c81613904565b809150509295985092959890939650565b60008060c08385031215613f6057600080fd5b613f6a84846139dc565b9460a0939093013593505050565b60006102008284031215613f8b57600080fd5b6115e48383613adf565b60008060006101008486031215613fab57600080fd5b613fb58585613a23565b925060c0840135613fc581613904565b915060e0840135613fd581613904565b809150509250925092565b60008060006103608486031215613ff657600080fd5b61400085856139dc565b925061400f8560a08601613a23565b9150613e0f856101608601613adf565b600080600060a0848603121561403457600080fd5b61403e8585613987565b9250606084013561404e81613904565b91506080840135613fd581613904565b6000806000806000806000610240888a03121561407a57600080fd5b61408489896139dc565b96506140938960a08a01613987565b95506140a3896101008a01613a23565b94506101c08801356140b481613904565b93506101e08801356140c581613904565b92506102008801356140d681613904565b91506102208801356140e781613904565b8091505092959891949750929550565b60008060e0838503121561410a57600080fd5b6141148484613a23565b915060c083013561412481613904565b809150509250929050565b6000806040838503121561414257600080fd5b823561414d81613904565b9150602083013561412481613904565b6001600160a01b0392831681529116602082015260400190565b6001600160a01b0391909116815260200190565b60006020828403121561419d57600080fd5b5051919050565b80516001600160a01b03908116835260208083015182169084015260409182015116910152565b608081016141d982856141a4565b8260608301529392505050565b60a081016141f482866141a4565b606082019390935260800152919050565b60006020828403121561421757600080fd5b815180151581146115e457600080fd5b6001600160a01b03929092168252602082015260400190565b95516001600160a01b0390811687529485166020870152928416604086015292166060840152608083019190915260a082015260c00190565b634e487b7160e01b600052601160045260246000fd5b600082198211156142a2576142a2614279565b500190565b600080604083850312156142ba57600080fd5b82516142c581613904565b602084015190925061412481613904565b93516001600160a01b0390811685529283166020850152908216604084015216606082015260800190565b60a0810161430f82866141a4565b6001600160a01b03938416606083015291909216608090920191909152919050565b60006020828403121561434357600080fd5b81516115e481613904565b6000806040838503121561436157600080fd5b505080516020909101519092909150565b60e0810161438082886141a4565b6001600160a01b03958616606083015293909416608085015260a084019190915260c090920191909152919050565b9182526001600160a01b0316602082015260400190565b61010081016143d582896141a4565b6001600160a01b03968716606083015294909516608086015260a085019290925260c084015260e090920191909152919050565b6101208101614418828a6141a4565b6001600160a01b03978816606083015295871660808201529390951660a084015260c083019190915260e08201526101000191909152919050565b600081600019048311821515161561446d5761446d614279565b500290565b60008261448f57634e487b7160e01b600052601260045260246000fd5b500490565b600060208083528351808285015260005b818110156144c1578581018301518582016040015282016144a5565b818111156144d3576000604083870101525b50601f01601f1916929092016040019392505050565b6000828210156144fb576144fb614279565b50039056fea2646970667358221220e94bfd667934bee5bdb51dc6c5ee3176eb3185c1d017b0420760b912c52db02664736f6c63430008090033",
  "immutableReferences": {},
  "source": "// SPDX-License-Identifier: MIT\npragma solidity ^0.8;\n\nimport \"../token/BEP20/IBEP20.sol\";\nimport \"../math/SafeMath.sol\";\nimport { PancakeSwapExecution } from \"./PancakeSwapExecution.sol\";\nimport { CreamExecution } from \"./CreamExecution.sol\";\nimport { LinkBSCOracle } from \"./LinkBSCOracle.sol\";\n\n/// @title High level system execution\n/// @author Andrew FU\n/// @dev All functions haven't finished unit test\nlibrary HighLevelSystem {\n    // Chainlink\n    using LinkBSCOracle for LinkBSCOracle.LinkConfig;\n    // address private link_oracle;\n\n    // Cream\n    using CreamExecution for CreamExecution.CreamConfig;\n\n    // PancakeSwap\n    using PancakeSwapExecution for PancakeSwapExecution.PancakeSwapConfig;\n    \n    // HighLevelSystem config\n    struct HLSConfig {\n        LinkBSCOracle.LinkConfig LinkConfig;\n        CreamExecution.CreamConfig CreamConfig;\n        PancakeSwapExecution.PancakeSwapConfig PancakeSwapConfig;\n    }\n    \n    // Cream token required\n    struct CreamToken {\n        address crWBNB;\n        address crBNB;\n        address crUSDC;\n    }\n    \n    // StableCoin required\n    struct StableCoin {\n        address WBNB;\n        address BNB;\n        address USDT;\n        address TUSD;\n        address BUSD;\n        address USDC;\n    }\n    \n    // Position\n    struct Position {\n        uint pool_id;\n        uint token_amount;\n        uint token_a_amount;\n        uint token_b_amount;\n        uint lp_token_amount;\n        uint crtoken_amount;\n        uint supply_crtoken_amount;\n        address token;\n        address token_a;\n        address token_b;\n        address lp_token;\n        address supply_crtoken;\n        address borrowed_crtoken_a;\n        address borrowed_crtoken_b;\n        uint max_amount_per_position;\n        uint supply_funds_percentage;\n    }\n    \n    /// @param self refer HLSConfig struct on the top.\n    /// @param _crtokens refer CreamToken struct on the top.\n    /// @param _stablecoins refer StableCoin struct on the top.\n    /// @param _position refer Position struct on the top.\n    /// @dev Helper function to enter => addLiquidity + stakeLP.\n    function enter(HLSConfig memory self, CreamToken memory _crtokens, StableCoin memory _stablecoins, Position memory _position) public returns (bool) {\n        // add liquidity\n        addLiquidity(self, _crtokens, _stablecoins, _position);\n        \n        // stake\n        stakeLP(self, _position);\n\n        return true;\n    }\n    \n    /// @param _stablecoins refer StableCoin struct on the top.\n    /// @param _token BEP20 token address.\n    /// @dev Checks whether a token is a stable coin or not.\n    function isStableCoin(StableCoin memory _stablecoins, address _token) public pure returns (bool) {\n        if (_token == _stablecoins.USDT) {\n            return true;\n        }\n        else if (_token == _stablecoins.TUSD) {\n            return true;\n        }\n        else if (_token == _stablecoins.BUSD) {\n            return true;\n        }\n        else if (_token == _stablecoins.USDC) {\n            return true;\n        }\n        else {\n            return false;\n        }\n    }\n    \n    /// @param self refer HLSConfig struct on the top.\n    /// @param _crtokens refer CreamToken struct on the top.\n    /// @param _stablecoins refer StableCoin struct on the top.\n    /// @param _token_a BEP20 token address.\n    /// @param _token_b BEP20 token address.\n    /// @param _crtoken_a Cream crToken address.\n    /// @param _crtoken_b Cream crToken address.\n    /// @dev Get the price for two tokens, from LINK if possible, else => straight from router.\n    function getPrice(HLSConfig memory self, CreamToken memory _crtokens, StableCoin memory _stablecoins, address _token_a, address _token_b, address _crtoken_a, address _crtoken_b) public view returns (uint) {\n        address WBNB = _stablecoins.WBNB;\n        address BNB = _stablecoins.BNB;\n        address USDC = _stablecoins.USDC;\n        address crUSDC = _crtokens.crUSDC;\n        CreamExecution.CreamConfig memory CreamConfig = self.CreamConfig;\n        \n        if (_token_a == WBNB) {\n            _token_a = BNB;\n        }\n        if (_token_b == WBNB) {\n            _token_b = BNB;\n        }\n        if (isStableCoin(_stablecoins, _token_a) && isStableCoin(_stablecoins, _token_b)) {\n            return 1;\n        }\n\n        // check if we can get data from chainlink\n        uint price;\n        if (self.LinkConfig.oracle != address(0)) {\n            price = uint(LinkBSCOracle.getPrice(self.LinkConfig));\n            return price;\n        }\n\n        // check if we can get data from cream\n        if (_crtoken_a != address(0) && _crtoken_b != address(0)) {\n            uint price_a = CreamExecution.getUSDPrice(CreamConfig, _crtoken_a, crUSDC, USDC);\n            uint price_b = CreamExecution.getUSDPrice(CreamConfig, _crtoken_b, crUSDC, USDC);\n            return SafeMath.div(price_a, price_b);\n        }\n\n        // check if we can get data from pancake\n        price = PancakeSwapExecution.getAmountsOut(self.PancakeSwapConfig, _token_a, _token_b);\n        return price;\n    }\n\n    /// @param _position refer Position struct on the top.\n    /// @dev Checks if there is sufficient borrow liquidity on cream. Only borrow if there is 2x more liquidty than our borrow amount.\n    function checkBorrowLiquidity(Position memory _position) public view returns (bool) {\n        uint available_a = CreamExecution.getAvailableBorrow(_position.borrowed_crtoken_a);\n        uint available_b = CreamExecution.getAvailableBorrow(_position.borrowed_crtoken_b);\n\n        if (available_a > _position.token_a_amount && available_b > _position.token_b_amount) {\n            return true;\n        } else {\n            return false;\n        }\n    }\n\n    /// @param self refer HLSConfig struct on the top.\n    /// @param _crtokens refer CreamToken struct on the top.\n    /// @param _stablecoins refer StableCoin struct on the top.\n    /// @param lp_constituient_0 The LP token amount.\n    /// @param lp_constituient_1 The LP token amount.\n    /// @param _lp_token address of the LP token.\n    /// @param _crtoken_a address of the Cream token.\n    /// @param _crtoken_b address of the Cream token.\n    /// @dev Function returns the amount of token0, token1s the specified number of LP token represents.\n    function getLPUSDValue(HLSConfig memory self, CreamToken memory _crtokens, StableCoin memory _stablecoins, uint lp_constituient_0, uint lp_constituient_1, address _lp_token, address _crtoken_a, address _crtoken_b) public view returns (uint) {\n        (address token_0, address token_1) = PancakeSwapExecution.getLPTokenAddresses(_lp_token);\n        address USDC = _stablecoins.USDC;\n        address crUSDC = _crtokens.crUSDC;\n\n        uint token_0_exch_rate = getPrice(self, _crtokens, _stablecoins, token_0, USDC, _crtoken_a, crUSDC);\n        uint token_1_exch_rate = getPrice(self, _crtokens, _stablecoins, token_1, USDC, _crtoken_b, crUSDC);\n\n        uint usd_value_0 = SafeMath.mul(token_0_exch_rate, lp_constituient_0);\n        uint usd_value_1 = SafeMath.mul(token_1_exch_rate, lp_constituient_1);\n\n        return usd_value_0 + usd_value_1;\n    }\n    \n    /// @param self refer HLSConfig struct on the top.\n    /// @param _crtokens refer CreamToken struct on the top.\n    /// @param _stablecoins refer StableCoin struct on the top.\n    /// @param _position refer Position struct on the top.\n    /// @dev Enters positions based on the opportunity.\n    function checkEntry(HLSConfig memory self, CreamToken memory _crtokens, StableCoin memory _stablecoins, Position memory _position) public returns (Position memory) {\n        bool signal = checkBorrowLiquidity(_position);\n        if (signal == true) {\n            Position memory update_position = enterPosition(self, _crtokens, _stablecoins, _position, 1);\n            return update_position;\n        }\n\n        return _position;\n    }\n    \n    /// @param self refer HLSConfig struct on the top.\n    /// @param _stablecoins refer StableCoin struct on the top.\n    /// @param _position refer Position struct on the top.\n    /// @dev Helper function to exit => removeLiquidity + unstakeLP.\n    function exit(HLSConfig memory self, StableCoin memory _stablecoins, Position memory _position) public returns (bool) {\n        // unstake\n        unstakeLP(self, _position);\n\n        // remove liquidity\n        removeLiquidity(self, _stablecoins, _position);\n        \n        return true;\n    }\n\n    /// @param _crtokens refer CreamToken struct on the top.\n    /// @dev Returns a map of <crtoken_address, borrow_amount> of all the borrowed coins.\n    function getTotalBorrowAmount(CreamToken memory _crtokens, address _crtoken_a, address _crtoken_b) public view returns (uint, uint) {\n        uint crtoken_a_borrow_amount = CreamExecution.getBorrowAmount(_crtoken_a, _crtokens.crWBNB);\n        uint crtoken_b_borrow_amount = CreamExecution.getBorrowAmount(_crtoken_b, _crtokens.crWBNB);\n        return (crtoken_a_borrow_amount, crtoken_b_borrow_amount);\n    }\n\n    /// @param self refer HLSConfig struct on the top.\n    /// @dev Returns pending cake rewards for all the positions we are in.\n    function getTotalCakePendingRewards(HLSConfig memory self, uint _pool_id) public view returns (uint) {\n        uint cake_amnt = PancakeSwapExecution.getPendingFarmRewards(self.PancakeSwapConfig, _pool_id);\n        return cake_amnt;\n    }\n\n    /// @param _crtoken Cream crToken address.\n    /// @param _amount amount of tokens to supply.\n    /// @dev Supplies 'amount' worth of tokens to cream.\n    function supplyCream(address _crtoken, uint _amount) public returns (uint) {\n        uint exchange_rate = CreamExecution.getExchangeRate(_crtoken);\n        uint crtoken_amount = SafeMath.div(_amount, exchange_rate);\n        return CreamExecution.supply(_crtoken, crtoken_amount);\n    }\n    \n    /// @param _crtoken Cream crToken address.\n    /// @param _amount amount of tokens to redeem.\n    /// @dev Redeem amount worth of crtokens back.\n    function redeemCream(address _crtoken, uint _amount) public returns (uint) {\n        \n        return CreamExecution.redeemUnderlying(_crtoken, _amount);\n    }\n\n    /// @param _crtokens refer CreamToken struct on the top.\n    /// @dev check how much free cash we have left (whatever we can borrow up to 75% will be regarded as free cash) => after > 75% free cash would be negative.\n    function getFreeCash(CreamToken memory _crtokens, address _crtoken_a, address _crtoken_b) public returns (uint) {\n        address crWBNB = _crtokens.crWBNB;\n        uint current_supply_amount = CreamExecution.getUserTotalSupply(_crtokens.crUSDC);\n        uint position_a_amnt = CreamExecution.getBorrowAmount(_crtoken_a, crWBNB);\n        uint position_b_amnt = CreamExecution.getBorrowAmount(_crtoken_b, crWBNB);\n        uint current_borrow_amount = SafeMath.add(position_a_amnt, position_b_amnt);\n        // 75% of current_supply_amount\n        current_supply_amount = SafeMath.div(SafeMath.mul(current_supply_amount, 75), 100);\n        uint free_cash = SafeMath.sub(current_supply_amount, current_borrow_amount);\n\n        return free_cash;\n    }\n\n    /// @param self refer HLSConfig struct on the top.\n    /// @param _crtokens refer CreamToken struct on the top.\n    /// @param _stablecoins refer StableCoin struct on the top.\n    /// @param _position refer Position struct on the top.\n    /// @dev Given a dollar amount, find out how many units of a and b can we get.\n    function splitUnits(HLSConfig memory self, CreamToken memory _crtokens, StableCoin memory _stablecoins, Position memory _position, uint dollar_amount) public view returns (uint, uint) {\n        uint half_amount = SafeMath.div(dollar_amount, 2);\n        address USDT = _stablecoins.USDT;\n        address crUSDC = _crtokens.crUSDC;\n        \n        uint price_a = getPrice(self, _crtokens, _stablecoins, _position.token_a, USDT, _position.borrowed_crtoken_a, crUSDC);\n        uint price_b = getPrice(self, _crtokens, _stablecoins, _position.token_b, USDT, _position.borrowed_crtoken_b, crUSDC);\n        \n        uint units_a = SafeMath.div(half_amount, price_a);\n        uint units_b = SafeMath.div(half_amount, price_b);\n\n        return (units_a, units_b);\n    }\n\n    /// @param self refer HLSConfig struct on the top.\n    /// @param _crtokens refer CreamToken struct on the top.\n    /// @param _stablecoins refer StableCoin struct on the top.\n    /// @param _position refer Position struct on the top.\n    /// @dev Given an opportunity object, calculate the position sizes based on current margin levels.\n    function calculateEntryAmounts(HLSConfig memory self, CreamToken memory _crtokens, StableCoin memory _stablecoins, Position memory _position) public returns (uint, uint) {\n        (uint max_position_size_a, uint max_position_size_b) = splitUnits(self, _crtokens, _stablecoins, _position, _position.max_amount_per_position);\n        uint max_borrow_limit = checkPotentialBorrowLimit(self, _crtokens, _stablecoins, _position, max_position_size_a, max_position_size_b);\n        max_borrow_limit = SafeMath.mul(max_borrow_limit, 100);\n        // TODO need to < 0.75\n        if (max_borrow_limit < 75) {\n            return (max_position_size_a, max_position_size_b);\n        }\n\n        uint free_cash = getFreeCash(_crtokens, _position.borrowed_crtoken_a, _position.borrowed_crtoken_b);\n        (uint min_position_size_a, uint min_position_size_b) = splitUnits(self, _crtokens, _stablecoins, _position, free_cash);\n        uint min_borrow_limit = checkPotentialBorrowLimit(self, _crtokens, _stablecoins, _position, max_position_size_a, max_position_size_b);\n        min_borrow_limit = SafeMath.mul(min_borrow_limit, 100);\n        // TODO need to < 0.75\n        if (min_borrow_limit < 75) {\n            return (min_position_size_a, min_position_size_b);\n        }\n\n        // cannot enter position\n        return (0, 0);\n    }\n\n    /// @param self refer HLSConfig struct on the top.\n    /// @param _crtokens refer CreamToken struct on the top.\n    /// @param _stablecoins refer StableCoin struct on the top.\n    /// @param _position refer Position struct on the top.\n    /// @dev use a greedy apporach to allocate the cash.\n    function generatePosition(HLSConfig memory self, CreamToken memory _crtokens, StableCoin memory _stablecoins, Position memory _position) public returns (Position memory) {\n        (uint a_amount, uint b_amount) = calculateEntryAmounts(self, _crtokens, _stablecoins, _position);\n        _position.token_a_amount = a_amount;\n        _position.token_b_amount = b_amount;\n        return _position;\n    }\n\n    /// @param self refer HLSConfig struct on the top.\n    /// @param _crtokens refer CreamToken struct on the top.\n    /// @param _stablecoins refer StableCoin struct on the top.\n    /// @param _position refer Position struct on the top.\n    /// @dev Main entry function to borrow and enter a given position.\n    function enterPosition(HLSConfig memory self, CreamToken memory _crtokens, StableCoin memory _stablecoins, Position memory _position, uint _type) public returns (Position memory) {\n        \n        if (_type == 1) {\n            // Supply position\n            uint token_balance = IBEP20(_position.token).balanceOf(address(this));\n            uint enter_amount = SafeMath.div(SafeMath.mul(token_balance, _position.supply_funds_percentage), 100);\n            supplyCream(_position.supply_crtoken, enter_amount);\n            _position.token_amount = IBEP20(_position.token).balanceOf(address(this));\n            _position.crtoken_amount = IBEP20(_position.supply_crtoken).balanceOf(address(this));\n        }\n        \n        if (_type == 1 || _type == 2) {\n            // Borrowing position\n            borrowPosition(_position);\n            _position.token_a_amount = IBEP20(_position.token_a).balanceOf(address(this));\n            _position.token_b_amount = IBEP20(_position.token_b).balanceOf(address(this));\n        }\n        \n        if (_type == 1 || _type == 2 || _type == 3) {\n            // Entering position\n            enter(self, _crtokens, _stablecoins, _position); \n            _position.lp_token_amount = IBEP20(_position.lp_token).balanceOf(address(this));\n            _position.token_a_amount = IBEP20(_position.token_a).balanceOf(address(this));\n            _position.token_b_amount = IBEP20(_position.token_b).balanceOf(address(this));\n        }\n        \n        return _position;\n    }\n\n    /// @param self refer HLSConfig struct on the top.\n    /// @param _crtokens refer CreamToken struct on the top.\n    /// @param _stablecoins refer StableCoin struct on the top.\n    /// @param _position refer Position struct on the top.\n    /// @dev Main exit function to exit and repay a given position.\n    function exitPosition(HLSConfig memory self, CreamToken memory _crtokens, StableCoin memory _stablecoins, Position memory _position, uint _type) public returns (Position memory) {\n        \n        if (_type == 1 || _type == 2 || _type == 3) {\n            // Exiting position\n            exit(self, _stablecoins, _position);\n            _position.lp_token_amount = IBEP20(_position.lp_token).balanceOf(address(this));\n            _position.token_a_amount = IBEP20(_position.token_a).balanceOf(address(this));\n            _position.token_b_amount = IBEP20(_position.token_b).balanceOf(address(this));\n        }\n        \n        if (_type == 1 || _type == 2) {\n            // Returning borrow\n            returnBorrow(_crtokens, _stablecoins, _position);\n            _position.supply_crtoken_amount = IBEP20(_position.supply_crtoken).balanceOf(address(this));\n            _position.token_a_amount = IBEP20(_position.token_a).balanceOf(address(this));\n            _position.token_b_amount = IBEP20(_position.token_b).balanceOf(address(this));\n        }\n        \n        if (_type == 1) {\n            // Redeem position\n            uint exit_amount_a = IBEP20(_position.token_a).balanceOf(address(this));\n            uint exit_amount_b = IBEP20(_position.token_b).balanceOf(address(this));\n            redeemCream(_position.borrowed_crtoken_a, exit_amount_a);\n            redeemCream(_position.borrowed_crtoken_b, exit_amount_b);\n            _position.token_amount = IBEP20(_position.token).balanceOf(address(this));\n            _position.crtoken_amount = IBEP20(_position.supply_crtoken).balanceOf(address(this));\n            _position.token_a_amount = IBEP20(_position.token_a).balanceOf(address(this));\n            _position.token_b_amount = IBEP20(_position.token_b).balanceOf(address(this));\n        }\n\n        return _position;\n    }\n\n    /// @param _crtokens refer CreamToken struct on the top.\n    /// @param _stablecoins refer StableCoin struct on the top.\n    /// @param _position refer Position struct on the top.\n    /// @dev Repay the tokens borrowed from cream.\n    function returnBorrow(CreamToken memory _crtokens, StableCoin memory _stablecoins, Position memory _position) public {\n        uint borrowed_a = CreamExecution.getBorrowAmount(_position.borrowed_crtoken_a, _crtokens.crWBNB);\n        uint borrowed_b = CreamExecution.getBorrowAmount(_position.borrowed_crtoken_b, _crtokens.crWBNB);\n\n        uint current_a_balance = CreamExecution.getTokenBalance(_position.borrowed_crtoken_a);\n        uint current_b_balance = CreamExecution.getTokenBalance(_position.borrowed_crtoken_b);\n\n        uint a_repay_amount;\n        uint b_repay_amount;\n\n        if (borrowed_a < current_a_balance) {\n            a_repay_amount = borrowed_a;\n        } else {\n            a_repay_amount = current_a_balance;\n        }\n        if (borrowed_b < current_b_balance) {\n            b_repay_amount = borrowed_b;\n        } else {\n            b_repay_amount = current_b_balance;\n        }\n\n        // CrTokenAddress issue\n        uint _isWBNB = isWBNB(_stablecoins, _position.token_a, _position.token_b);\n        if (_isWBNB == 2) {\n            CreamExecution.repay(_position.borrowed_crtoken_a, a_repay_amount);\n            CreamExecution.repay(_position.borrowed_crtoken_b, b_repay_amount);\n        } else if (_isWBNB == 1) {\n            CreamExecution.repayETH(_position.borrowed_crtoken_a, a_repay_amount);\n            CreamExecution.repay(_position.borrowed_crtoken_b, b_repay_amount);\n        } else if (_isWBNB == 0)  {\n            CreamExecution.repay(_position.borrowed_crtoken_a, a_repay_amount);\n            CreamExecution.repayETH(_position.borrowed_crtoken_b, b_repay_amount);\n        }\n\n    }\n\n    /// @param _position refer Position struct on the top.\n    /// @dev Borrow the required tokens for a given position on CREAM.\n    function borrowPosition(Position memory _position) public {\n        CreamExecution.borrow(_position.borrowed_crtoken_a, _position.token_a_amount);\n        CreamExecution.borrow(_position.borrowed_crtoken_b, _position.token_b_amount);\n    }\n\n    /// @param _stablecoins refer StableCoin struct on the top.\n    /// @param _token_a BEP20 token address.\n    /// @param _token_b BEP20 token address.\n    /// @dev Checks if either token address is WBNB.\n    function isWBNB(StableCoin memory _stablecoins, address _token_a, address _token_b) public pure returns (uint) {\n        if (_token_a == _stablecoins.WBNB && _token_b == _stablecoins.WBNB) {\n            return 2;\n        } else if (_token_a == _stablecoins.WBNB) {\n            return 1;\n        } else if (_token_b == _stablecoins.WBNB) {\n            return 0;\n        } else {\n            return 2;\n        }\n    }\n\n    /// @param _crtoken_a Cream crToken address..\n    /// @param _crtoken_b Cream crToken address..\n    /// @dev Gets an array of all the cream tokens that have been borrowed.\n    function getBorrowedCreamTokens(address _crtoken_a, address _crtoken_b) public pure returns (address, address) {\n        \n        return (_crtoken_a, _crtoken_b);\n    }\n\n    /// @param self refer HLSConfig struct on the top.\n    /// @param _crtokens refer CreamToken struct on the top.\n    /// @param _stablecoins refer StableCoin struct on the top.\n    /// @param _position refer Position struct on the top.\n    /// @param self refer HLSConfig struct on the top.\n    /// @dev Gets the total borrow limit for all positions on cream.\n    function checkCurrentBorrowLimit(HLSConfig memory self, CreamToken memory _crtokens, StableCoin memory _stablecoins, Position memory _position) public returns (uint) {\n        uint crtoken_a_supply_amount = CreamExecution.getUserTotalSupply(_position.borrowed_crtoken_a);\n        uint crtoken_a_borrow_amount = CreamExecution.getBorrowAmount(_position.borrowed_crtoken_a, _crtokens.crWBNB);\n        uint crtoken_a_limit = CreamExecution.getBorrowLimit(self.CreamConfig, _position.borrowed_crtoken_a, _crtokens.crUSDC, _stablecoins.USDC, crtoken_a_supply_amount, crtoken_a_borrow_amount);\n\n        uint crtoken_b_supply_amount = CreamExecution.getUserTotalSupply(_position.borrowed_crtoken_b);\n        uint crtoken_b_borrow_amount = CreamExecution.getBorrowAmount(_position.borrowed_crtoken_b, _crtokens.crWBNB);\n        uint crtoken_b_limit = CreamExecution.getBorrowLimit(self.CreamConfig, _position.borrowed_crtoken_b, _crtokens.crUSDC, _stablecoins.USDC, crtoken_b_supply_amount, crtoken_b_borrow_amount);\n        return crtoken_a_limit + crtoken_b_limit;\n    }\n\n    /// @param self refer HLSConfig struct on the top.\n    /// @param _crtokens refer CreamToken struct on the top.\n    /// @param _stablecoins refer StableCoin struct on the top.\n    /// @param _position refer Position struct on the top.\n    /// @param new_amount_a amount of token a.\n    /// @param new_amount_b amount of token b.\n    /// @dev Check if entering this new position will violate any borrow/lending limits.\n    function checkPotentialBorrowLimit(HLSConfig memory self, CreamToken memory _crtokens, StableCoin memory _stablecoins, Position memory _position, uint new_amount_a, uint new_amount_b) public returns (uint) {\n        uint current_borrow_limit = checkCurrentBorrowLimit(self, _crtokens, _stablecoins, _position);\n\n        uint crtoken_a_supply_amount = CreamExecution.getUserTotalSupply(_position.borrowed_crtoken_a);\n        uint borrow_limit_a = CreamExecution.getBorrowLimit(self.CreamConfig, _position.borrowed_crtoken_a, _crtokens.crUSDC, _stablecoins.USDC, crtoken_a_supply_amount, new_amount_a);\n        \n        uint crtoken_b_supply_amount = CreamExecution.getUserTotalSupply(_position.borrowed_crtoken_b);\n        uint borrow_limit_b = CreamExecution.getBorrowLimit(self.CreamConfig, _position.borrowed_crtoken_b, _crtokens.crUSDC, _stablecoins.USDC, crtoken_b_supply_amount, new_amount_b);\n\n        return current_borrow_limit + borrow_limit_a + borrow_limit_b;\n    }\n\n    /// @param self refer HLSConfig struct on the top.\n    /// @param _crtokens refer CreamToken struct on the top.\n    /// @param _stablecoins refer StableCoin struct on the top.\n    /// @param _position refer Position struct on the top.\n    /// @dev Adds liquidity to a given pool.\n    function addLiquidity(HLSConfig memory self, CreamToken memory _crtokens, StableCoin memory _stablecoins, Position memory _position) public returns (uint) {\n        uint pair_price = getPrice(self, _crtokens, _stablecoins, _position.token_a, _position.token_b, _position.borrowed_crtoken_a, _position.borrowed_crtoken_b);\n        uint price_decimals = PancakeSwapExecution.getPairDecimals(PancakeSwapExecution.getPair(self.PancakeSwapConfig, _position.token_a, _position.token_b));\n\n        // make sure if one of the tokens is WBNB => have a minimum of 0.3 BNB in the wallet at all times\n        // get a 50:50 split of the tokens in USD and make sure the two tokens are in correct order\n        (uint max_available_staking_a, uint max_available_staking_b) = PancakeSwapExecution.splitTokensEvenly(_position.token_a_amount, _position.token_b_amount, pair_price, price_decimals);\n\n        // todo check the lineups => amount for tokens a and tokens b is off\n        (max_available_staking_a, max_available_staking_b) = PancakeSwapExecution.lineUpPairs(_position.token_a, _position.token_b, max_available_staking_a, max_available_staking_b, _position.lp_token);\n        (address token_a, address token_b) = PancakeSwapExecution.getLPTokenAddresses(_position.lp_token);\n\n        uint bnb_check = isWBNB(_stablecoins, token_a, token_b);\n        if (bnb_check != 2) {\n            if (bnb_check == 1) {\n                return PancakeSwapExecution.addLiquidityETH(self.PancakeSwapConfig, token_a, _stablecoins.WBNB, max_available_staking_b, max_available_staking_a);\n            } else {\n                return PancakeSwapExecution.addLiquidityETH(self.PancakeSwapConfig, token_b, _stablecoins.WBNB, max_available_staking_a, max_available_staking_b);\n            }\n        } else {\n            return PancakeSwapExecution.addLiquidity(self.PancakeSwapConfig, token_a, token_b, max_available_staking_a, max_available_staking_b);\n        }\n    }\n\n    /// @param self refer HLSConfig struct on the top.\n    /// @param _stablecoins refer StableCoin struct on the top.\n    /// @param _position refer Position struct on the top.\n    /// @dev Removes liquidity from a given pool.\n    function removeLiquidity(HLSConfig memory self, StableCoin memory _stablecoins, Position memory _position) public returns (bool) {\n        // check how much (token0 and token1) we have in the current farm\n        //this function already sorts the token orders according to the contract\n        uint lp_balance = PancakeSwapExecution.getLPBalance(_position.lp_token);\n        (uint token_a_amnt, uint token_b_amnt) = PancakeSwapExecution.getLPConstituients(lp_balance, _position.lp_token);\n\n        (address token_a, address token_b) = PancakeSwapExecution.getLPTokenAddresses(_position.lp_token);\n        uint bnb_check = isWBNB(_stablecoins, token_a, token_b);\n\n        if (bnb_check != 2) {\n            if (bnb_check == 1) {\n                PancakeSwapExecution.removeLiquidityETH(self.PancakeSwapConfig, _position.lp_token, token_a, lp_balance, token_a_amnt, token_b_amnt);\n            } else {\n                PancakeSwapExecution.removeLiquidityETH(self.PancakeSwapConfig, _position.lp_token, token_b, lp_balance, token_b_amnt, token_a_amnt);\n            }\n        } else {\n            PancakeSwapExecution.removeLiquidity(self.PancakeSwapConfig, _position.lp_token, token_a, token_b, lp_balance, token_a_amnt, token_b_amnt);\n        }\n\n        return true;\n    }\n\n    /// @param self refer HLSConfig struct on the top.\n    /// @param _position refer Position struct on the top.\n    /// @dev Stakes LP tokens into a farm.\n    function stakeLP(HLSConfig memory self, Position memory _position) public returns (bool) {\n        uint lp_balance = PancakeSwapExecution.getLPBalance(_position.lp_token);\n        return PancakeSwapExecution.stakeLP(self.PancakeSwapConfig, _position.pool_id, lp_balance);\n    }\n\n    /// @param self refer HLSConfig struct on the top.\n    /// @param _position refer Position struct on the top.\n    /// @dev Removes liquidity from a given farm.\n    function unstakeLP(HLSConfig memory self, Position memory _position) public returns (bool) {\n        uint lp_balance = PancakeSwapExecution.getStakedLP(self.PancakeSwapConfig, _position.pool_id);\n        return PancakeSwapExecution.unstakeLP(self.PancakeSwapConfig, _position.pool_id, lp_balance);\n    }\n    \n    /// @param self refer HLSConfig struct on the top.\n    /// @param _position refer Position struct on the top.\n    /// @dev Return staked tokens.\n    function getStakedTokens(HLSConfig memory self, Position memory _position) public view returns (uint, uint) {\n        uint lp_balance = PancakeSwapExecution.getStakedLP(self.PancakeSwapConfig, _position.pool_id);\n        (uint token_a_amnt, uint token_b_amnt) = PancakeSwapExecution.getLPConstituients(lp_balance, _position.lp_token);\n        return (token_a_amnt, token_b_amnt);\n    }\n\n}\n\n\n\n\n\n",
  "sourcePath": "/Users/andrew/Documents/Bitbucket/dofin-smart-contracts/contracts/libs/HighLevelSystem.sol",
  "compiler": {
    "name": "solc",
    "version": "0.8.9+commit.e5eed63a.Emscripten.clang"
  },
  "schemaVersion": "3.4.3",
  "updatedAt": "2021-10-12T06:15:59.513Z",
  "networkType": "ethereum",
  "devdoc": {
    "author": "Andrew FU",
    "details": "All functions haven't finished unit test",
    "kind": "dev",
    "methods": {
      "addLiquidity(HighLevelSystem.HLSConfig,HighLevelSystem.CreamToken,HighLevelSystem.StableCoin,HighLevelSystem.Position)": {
        "details": "Adds liquidity to a given pool.",
        "params": {
          "_crtokens": "refer CreamToken struct on the top.",
          "_position": "refer Position struct on the top.",
          "_stablecoins": "refer StableCoin struct on the top.",
          "self": "refer HLSConfig struct on the top."
        }
      },
      "borrowPosition(HighLevelSystem.Position)": {
        "details": "Borrow the required tokens for a given position on CREAM.",
        "params": {
          "_position": "refer Position struct on the top."
        }
      },
      "calculateEntryAmounts(HighLevelSystem.HLSConfig,HighLevelSystem.CreamToken,HighLevelSystem.StableCoin,HighLevelSystem.Position)": {
        "details": "Given an opportunity object, calculate the position sizes based on current margin levels.",
        "params": {
          "_crtokens": "refer CreamToken struct on the top.",
          "_position": "refer Position struct on the top.",
          "_stablecoins": "refer StableCoin struct on the top.",
          "self": "refer HLSConfig struct on the top."
        }
      },
      "checkBorrowLiquidity(HighLevelSystem.Position)": {
        "details": "Checks if there is sufficient borrow liquidity on cream. Only borrow if there is 2x more liquidty than our borrow amount.",
        "params": {
          "_position": "refer Position struct on the top."
        }
      },
      "checkCurrentBorrowLimit(HighLevelSystem.HLSConfig,HighLevelSystem.CreamToken,HighLevelSystem.StableCoin,HighLevelSystem.Position)": {
        "details": "Gets the total borrow limit for all positions on cream.",
        "params": {
          "_crtokens": "refer CreamToken struct on the top.",
          "_position": "refer Position struct on the top.",
          "_stablecoins": "refer StableCoin struct on the top.",
          "self": "refer HLSConfig struct on the top."
        }
      },
      "checkEntry(HighLevelSystem.HLSConfig,HighLevelSystem.CreamToken,HighLevelSystem.StableCoin,HighLevelSystem.Position)": {
        "details": "Enters positions based on the opportunity.",
        "params": {
          "_crtokens": "refer CreamToken struct on the top.",
          "_position": "refer Position struct on the top.",
          "_stablecoins": "refer StableCoin struct on the top.",
          "self": "refer HLSConfig struct on the top."
        }
      },
      "checkPotentialBorrowLimit(HighLevelSystem.HLSConfig,HighLevelSystem.CreamToken,HighLevelSystem.StableCoin,HighLevelSystem.Position,uint256,uint256)": {
        "details": "Check if entering this new position will violate any borrow/lending limits.",
        "params": {
          "_crtokens": "refer CreamToken struct on the top.",
          "_position": "refer Position struct on the top.",
          "_stablecoins": "refer StableCoin struct on the top.",
          "new_amount_a": "amount of token a.",
          "new_amount_b": "amount of token b.",
          "self": "refer HLSConfig struct on the top."
        }
      },
      "enter(HighLevelSystem.HLSConfig,HighLevelSystem.CreamToken,HighLevelSystem.StableCoin,HighLevelSystem.Position)": {
        "details": "Helper function to enter => addLiquidity + stakeLP.",
        "params": {
          "_crtokens": "refer CreamToken struct on the top.",
          "_position": "refer Position struct on the top.",
          "_stablecoins": "refer StableCoin struct on the top.",
          "self": "refer HLSConfig struct on the top."
        }
      },
      "enterPosition(HighLevelSystem.HLSConfig,HighLevelSystem.CreamToken,HighLevelSystem.StableCoin,HighLevelSystem.Position,uint256)": {
        "details": "Main entry function to borrow and enter a given position.",
        "params": {
          "_crtokens": "refer CreamToken struct on the top.",
          "_position": "refer Position struct on the top.",
          "_stablecoins": "refer StableCoin struct on the top.",
          "self": "refer HLSConfig struct on the top."
        }
      },
      "exit(HighLevelSystem.HLSConfig,HighLevelSystem.StableCoin,HighLevelSystem.Position)": {
        "details": "Helper function to exit => removeLiquidity + unstakeLP.",
        "params": {
          "_position": "refer Position struct on the top.",
          "_stablecoins": "refer StableCoin struct on the top.",
          "self": "refer HLSConfig struct on the top."
        }
      },
      "exitPosition(HighLevelSystem.HLSConfig,HighLevelSystem.CreamToken,HighLevelSystem.StableCoin,HighLevelSystem.Position,uint256)": {
        "details": "Main exit function to exit and repay a given position.",
        "params": {
          "_crtokens": "refer CreamToken struct on the top.",
          "_position": "refer Position struct on the top.",
          "_stablecoins": "refer StableCoin struct on the top.",
          "self": "refer HLSConfig struct on the top."
        }
      },
      "generatePosition(HighLevelSystem.HLSConfig,HighLevelSystem.CreamToken,HighLevelSystem.StableCoin,HighLevelSystem.Position)": {
        "details": "use a greedy apporach to allocate the cash.",
        "params": {
          "_crtokens": "refer CreamToken struct on the top.",
          "_position": "refer Position struct on the top.",
          "_stablecoins": "refer StableCoin struct on the top.",
          "self": "refer HLSConfig struct on the top."
        }
      },
      "getBorrowedCreamTokens(address,address)": {
        "details": "Gets an array of all the cream tokens that have been borrowed.",
        "params": {
          "_crtoken_a": "Cream crToken address..",
          "_crtoken_b": "Cream crToken address.."
        }
      },
      "getFreeCash(HighLevelSystem.CreamToken,address,address)": {
        "details": "check how much free cash we have left (whatever we can borrow up to 75% will be regarded as free cash) => after > 75% free cash would be negative.",
        "params": {
          "_crtokens": "refer CreamToken struct on the top."
        }
      },
      "getLPUSDValue(HighLevelSystem.HLSConfig,HighLevelSystem.CreamToken,HighLevelSystem.StableCoin,uint256,uint256,address,address,address)": {
        "details": "Function returns the amount of token0, token1s the specified number of LP token represents.",
        "params": {
          "_crtoken_a": "address of the Cream token.",
          "_crtoken_b": "address of the Cream token.",
          "_crtokens": "refer CreamToken struct on the top.",
          "_lp_token": "address of the LP token.",
          "_stablecoins": "refer StableCoin struct on the top.",
          "lp_constituient_0": "The LP token amount.",
          "lp_constituient_1": "The LP token amount.",
          "self": "refer HLSConfig struct on the top."
        }
      },
      "getPrice(HighLevelSystem.HLSConfig,HighLevelSystem.CreamToken,HighLevelSystem.StableCoin,address,address,address,address)": {
        "details": "Get the price for two tokens, from LINK if possible, else => straight from router.",
        "params": {
          "_crtoken_a": "Cream crToken address.",
          "_crtoken_b": "Cream crToken address.",
          "_crtokens": "refer CreamToken struct on the top.",
          "_stablecoins": "refer StableCoin struct on the top.",
          "_token_a": "BEP20 token address.",
          "_token_b": "BEP20 token address.",
          "self": "refer HLSConfig struct on the top."
        }
      },
      "getStakedTokens(HighLevelSystem.HLSConfig,HighLevelSystem.Position)": {
        "details": "Return staked tokens.",
        "params": {
          "_position": "refer Position struct on the top.",
          "self": "refer HLSConfig struct on the top."
        }
      },
      "getTotalBorrowAmount(HighLevelSystem.CreamToken,address,address)": {
        "details": "Returns a map of <crtoken_address, borrow_amount> of all the borrowed coins.",
        "params": {
          "_crtokens": "refer CreamToken struct on the top."
        }
      },
      "getTotalCakePendingRewards(HighLevelSystem.HLSConfig,uint256)": {
        "details": "Returns pending cake rewards for all the positions we are in.",
        "params": {
          "self": "refer HLSConfig struct on the top."
        }
      },
      "isStableCoin(HighLevelSystem.StableCoin,address)": {
        "details": "Checks whether a token is a stable coin or not.",
        "params": {
          "_stablecoins": "refer StableCoin struct on the top.",
          "_token": "BEP20 token address."
        }
      },
      "isWBNB(HighLevelSystem.StableCoin,address,address)": {
        "details": "Checks if either token address is WBNB.",
        "params": {
          "_stablecoins": "refer StableCoin struct on the top.",
          "_token_a": "BEP20 token address.",
          "_token_b": "BEP20 token address."
        }
      },
      "redeemCream(address,uint256)": {
        "details": "Redeem amount worth of crtokens back.",
        "params": {
          "_amount": "amount of tokens to redeem.",
          "_crtoken": "Cream crToken address."
        }
      },
      "removeLiquidity(HighLevelSystem.HLSConfig,HighLevelSystem.StableCoin,HighLevelSystem.Position)": {
        "details": "Removes liquidity from a given pool.",
        "params": {
          "_position": "refer Position struct on the top.",
          "_stablecoins": "refer StableCoin struct on the top.",
          "self": "refer HLSConfig struct on the top."
        }
      },
      "returnBorrow(HighLevelSystem.CreamToken,HighLevelSystem.StableCoin,HighLevelSystem.Position)": {
        "details": "Repay the tokens borrowed from cream.",
        "params": {
          "_crtokens": "refer CreamToken struct on the top.",
          "_position": "refer Position struct on the top.",
          "_stablecoins": "refer StableCoin struct on the top."
        }
      },
      "splitUnits(HighLevelSystem.HLSConfig,HighLevelSystem.CreamToken,HighLevelSystem.StableCoin,HighLevelSystem.Position,uint256)": {
        "details": "Given a dollar amount, find out how many units of a and b can we get.",
        "params": {
          "_crtokens": "refer CreamToken struct on the top.",
          "_position": "refer Position struct on the top.",
          "_stablecoins": "refer StableCoin struct on the top.",
          "self": "refer HLSConfig struct on the top."
        }
      },
      "stakeLP(HighLevelSystem.HLSConfig,HighLevelSystem.Position)": {
        "details": "Stakes LP tokens into a farm.",
        "params": {
          "_position": "refer Position struct on the top.",
          "self": "refer HLSConfig struct on the top."
        }
      },
      "supplyCream(address,uint256)": {
        "details": "Supplies 'amount' worth of tokens to cream.",
        "params": {
          "_amount": "amount of tokens to supply.",
          "_crtoken": "Cream crToken address."
        }
      },
      "unstakeLP(HighLevelSystem.HLSConfig,HighLevelSystem.Position)": {
        "details": "Removes liquidity from a given farm.",
        "params": {
          "_position": "refer Position struct on the top.",
          "self": "refer HLSConfig struct on the top."
        }
      }
    },
    "title": "High level system execution",
    "version": 1
  },
  "userdoc": {
    "kind": "user",
    "methods": {},
    "version": 1
  }
}