{
  "contractName": "LinkBSCOracle",
  "abi": [
    {
      "inputs": [
        {
          "components": [
            {
              "internalType": "address",
              "name": "oracle",
              "type": "address"
            }
          ],
          "internalType": "struct LinkBSCOracle.LinkConfig",
          "name": "self",
          "type": "tuple"
        }
      ],
      "name": "getPrice",
      "outputs": [
        {
          "internalType": "int256",
          "name": "",
          "type": "int256"
        }
      ],
      "stateMutability": "view",
      "type": "function"
    },
    {
      "inputs": [
        {
          "components": [
            {
              "internalType": "address",
              "name": "oracle",
              "type": "address"
            }
          ],
          "internalType": "struct LinkBSCOracle.LinkConfig",
          "name": "self",
          "type": "tuple"
        }
      ],
      "name": "getDecimals",
      "outputs": [
        {
          "internalType": "uint8",
          "name": "",
          "type": "uint8"
        }
      ],
      "stateMutability": "view",
      "type": "function"
    }
  ],
  "bytecode": "0x61026261003a600b82828239805160001a60731461002d57634e487b7160e01b600052600060045260246000fd5b30600052607381538281f3fe73000000000000000000000000000000000000000030146080604052600436106100405760003560e01c80637cf44f2f1461004557806392667f301461006f575b600080fd5b610058610053366004610184565b610090565b60405160ff90911681526020015b60405180910390f35b61008261007d366004610184565b61010d565b604051908152602001610066565b600081600001516001600160a01b031663313ce5676040518163ffffffff1660e01b815260040160206040518083038186803b1580156100cf57600080fd5b505afa1580156100e3573d6000803e3d6000fd5b505050506040513d601f19601f8201168201806040525081019061010791906101e9565b92915050565b600081600001516001600160a01b03166350d25bcd6040518163ffffffff1660e01b815260040160206040518083038186803b15801561014c57600080fd5b505afa158015610160573d6000803e3d6000fd5b505050506040513d601f19601f820116820180604052508101906101079190610213565b60006020828403121561019657600080fd5b604051602081016001600160401b03811182821017156101c657634e487b7160e01b600052604160045260246000fd5b60405282356001600160a01b03811681146101e057600080fd5b81529392505050565b6000602082840312156101fb57600080fd5b815160ff8116811461020c57600080fd5b9392505050565b60006020828403121561022557600080fd5b505191905056fea26469706673582212202718b35b50119fac25fe74e6d7d90d55c38ba50cf7d471928987fe8f7739e16464736f6c63430008090033",
  "immutableReferences": {},
  "source": "// SPDX-License-Identifier: MIT\npragma solidity ^0.8;\n\nimport \"../interfaces/chainlink/AggregatorInterface.sol\";\n\nlibrary LinkBSCOracle {\n    \n    // Addresss of Link.\n    struct LinkConfig {\n        address oracle; // Address of Link oracle contract.\n    }\n    \n    function getPrice(LinkConfig memory self) public view returns(int256) {\n        \n        return AggregatorInterface(self.oracle).latestAnswer();\n    }\n    \n    function getDecimals(LinkConfig memory self) public view returns(uint8) {\n        \n        return AggregatorInterface(self.oracle).decimals();\n    }\n    \n}",
  "sourcePath": "/Users/andrew/Documents/Bitbucket/dofin-smart-contracts/contracts/libs/LinkBSCOracle.sol",
  "compiler": {
    "name": "solc",
    "version": "0.8.9+commit.e5eed63a.Emscripten.clang"
  },
  "schemaVersion": "3.4.3",
  "updatedAt": "2021-10-12T05:31:09.715Z",
  "devdoc": {
    "kind": "dev",
    "methods": {},
    "version": 1
  },
  "userdoc": {
    "kind": "user",
    "methods": {},
    "version": 1
  }
}