{
  "contractName": "PancakeSwapExecution",
  "abi": [
    {
      "inputs": [
        {
          "internalType": "address",
          "name": "wallet_address",
          "type": "address"
        },
        {
          "internalType": "address",
          "name": "BNB_address",
          "type": "address"
        }
      ],
      "name": "getBalanceBNB",
      "outputs": [
        {
          "internalType": "uint256",
          "name": "",
          "type": "uint256"
        }
      ],
      "stateMutability": "view",
      "type": "function"
    },
    {
      "inputs": [
        {
          "internalType": "address",
          "name": "lp_token",
          "type": "address"
        }
      ],
      "name": "getLPBalance",
      "outputs": [
        {
          "internalType": "uint256",
          "name": "",
          "type": "uint256"
        }
      ],
      "stateMutability": "view",
      "type": "function"
    },
    {
      "inputs": [
        {
          "internalType": "address",
          "name": "lp_token_address",
          "type": "address"
        }
      ],
      "name": "getLPTokenAddresses",
      "outputs": [
        {
          "internalType": "address",
          "name": "",
          "type": "address"
        },
        {
          "internalType": "address",
          "name": "",
          "type": "address"
        }
      ],
      "stateMutability": "view",
      "type": "function"
    },
    {
      "inputs": [
        {
          "internalType": "address",
          "name": "lp_token_address",
          "type": "address"
        }
      ],
      "name": "getLPTokenSymbols",
      "outputs": [
        {
          "internalType": "string",
          "name": "",
          "type": "string"
        },
        {
          "internalType": "string",
          "name": "",
          "type": "string"
        }
      ],
      "stateMutability": "view",
      "type": "function"
    },
    {
      "inputs": [
        {
          "components": [
            {
              "internalType": "address",
              "name": "router",
              "type": "address"
            },
            {
              "internalType": "address",
              "name": "factory",
              "type": "address"
            },
            {
              "internalType": "address",
              "name": "masterchef",
              "type": "address"
            }
          ],
          "internalType": "struct PancakeSwapExecution.PancakeSwapConfig",
          "name": "self",
          "type": "tuple"
        },
        {
          "internalType": "uint256",
          "name": "pool_id",
          "type": "uint256"
        }
      ],
      "name": "getPoolInfo",
      "outputs": [
        {
          "internalType": "address",
          "name": "",
          "type": "address"
        },
        {
          "internalType": "uint256",
          "name": "",
          "type": "uint256"
        },
        {
          "internalType": "uint256",
          "name": "",
          "type": "uint256"
        },
        {
          "internalType": "uint256",
          "name": "",
          "type": "uint256"
        }
      ],
      "stateMutability": "view",
      "type": "function"
    },
    {
      "inputs": [
        {
          "internalType": "address",
          "name": "lp_token_address",
          "type": "address"
        }
      ],
      "name": "getReserves",
      "outputs": [
        {
          "internalType": "uint112",
          "name": "reserve0",
          "type": "uint112"
        },
        {
          "internalType": "uint112",
          "name": "reserve1",
          "type": "uint112"
        },
        {
          "internalType": "uint32",
          "name": "blockTimestampLast",
          "type": "uint32"
        }
      ],
      "stateMutability": "view",
      "type": "function"
    },
    {
      "inputs": [
        {
          "components": [
            {
              "internalType": "address",
              "name": "router",
              "type": "address"
            },
            {
              "internalType": "address",
              "name": "factory",
              "type": "address"
            },
            {
              "internalType": "address",
              "name": "masterchef",
              "type": "address"
            }
          ],
          "internalType": "struct PancakeSwapExecution.PancakeSwapConfig",
          "name": "self",
          "type": "tuple"
        },
        {
          "internalType": "address",
          "name": "token_a_addr",
          "type": "address"
        },
        {
          "internalType": "address",
          "name": "token_b_addr",
          "type": "address"
        }
      ],
      "name": "getPair",
      "outputs": [
        {
          "internalType": "address",
          "name": "",
          "type": "address"
        }
      ],
      "stateMutability": "view",
      "type": "function"
    },
    {
      "inputs": [
        {
          "internalType": "address",
          "name": "token_a_address",
          "type": "address"
        },
        {
          "internalType": "address",
          "name": "token_b_address",
          "type": "address"
        },
        {
          "internalType": "uint256",
          "name": "data_a",
          "type": "uint256"
        },
        {
          "internalType": "uint256",
          "name": "data_b",
          "type": "uint256"
        },
        {
          "internalType": "address",
          "name": "lp_token_address",
          "type": "address"
        }
      ],
      "name": "lineUpPairs",
      "outputs": [
        {
          "internalType": "uint256",
          "name": "",
          "type": "uint256"
        },
        {
          "internalType": "uint256",
          "name": "",
          "type": "uint256"
        }
      ],
      "stateMutability": "view",
      "type": "function"
    },
    {
      "inputs": [
        {
          "internalType": "uint256",
          "name": "lp_token_amnt",
          "type": "uint256"
        },
        {
          "internalType": "address",
          "name": "lp_token_addr",
          "type": "address"
        }
      ],
      "name": "getLPConstituients",
      "outputs": [
        {
          "internalType": "uint256",
          "name": "",
          "type": "uint256"
        },
        {
          "internalType": "uint256",
          "name": "",
          "type": "uint256"
        }
      ],
      "stateMutability": "view",
      "type": "function"
    },
    {
      "inputs": [
        {
          "components": [
            {
              "internalType": "address",
              "name": "router",
              "type": "address"
            },
            {
              "internalType": "address",
              "name": "factory",
              "type": "address"
            },
            {
              "internalType": "address",
              "name": "masterchef",
              "type": "address"
            }
          ],
          "internalType": "struct PancakeSwapExecution.PancakeSwapConfig",
          "name": "self",
          "type": "tuple"
        },
        {
          "internalType": "uint256",
          "name": "pool_id",
          "type": "uint256"
        }
      ],
      "name": "getPendingStakedCake",
      "outputs": [
        {
          "internalType": "uint256",
          "name": "",
          "type": "uint256"
        }
      ],
      "stateMutability": "view",
      "type": "function"
    },
    {
      "inputs": [
        {
          "components": [
            {
              "internalType": "address",
              "name": "router",
              "type": "address"
            },
            {
              "internalType": "address",
              "name": "factory",
              "type": "address"
            },
            {
              "internalType": "address",
              "name": "masterchef",
              "type": "address"
            }
          ],
          "internalType": "struct PancakeSwapExecution.PancakeSwapConfig",
          "name": "self",
          "type": "tuple"
        },
        {
          "internalType": "address",
          "name": "token_a_address",
          "type": "address"
        },
        {
          "internalType": "address",
          "name": "token_b_address",
          "type": "address"
        }
      ],
      "name": "getAmountsOut",
      "outputs": [
        {
          "internalType": "uint256",
          "name": "",
          "type": "uint256"
        }
      ],
      "stateMutability": "view",
      "type": "function"
    },
    {
      "inputs": [
        {
          "internalType": "address",
          "name": "lp_token_address",
          "type": "address"
        }
      ],
      "name": "getPairPrice",
      "outputs": [
        {
          "internalType": "uint256",
          "name": "",
          "type": "uint256"
        }
      ],
      "stateMutability": "view",
      "type": "function"
    },
    {
      "inputs": [
        {
          "components": [
            {
              "internalType": "address",
              "name": "router",
              "type": "address"
            },
            {
              "internalType": "address",
              "name": "factory",
              "type": "address"
            },
            {
              "internalType": "address",
              "name": "masterchef",
              "type": "address"
            }
          ],
          "internalType": "struct PancakeSwapExecution.PancakeSwapConfig",
          "name": "self",
          "type": "tuple"
        },
        {
          "internalType": "uint256",
          "name": "pool_id",
          "type": "uint256"
        }
      ],
      "name": "getStakedLP",
      "outputs": [
        {
          "internalType": "uint256",
          "name": "",
          "type": "uint256"
        }
      ],
      "stateMutability": "view",
      "type": "function"
    },
    {
      "inputs": [
        {
          "components": [
            {
              "internalType": "address",
              "name": "router",
              "type": "address"
            },
            {
              "internalType": "address",
              "name": "factory",
              "type": "address"
            },
            {
              "internalType": "address",
              "name": "masterchef",
              "type": "address"
            }
          ],
          "internalType": "struct PancakeSwapExecution.PancakeSwapConfig",
          "name": "self",
          "type": "tuple"
        },
        {
          "internalType": "uint256",
          "name": "pool_id",
          "type": "uint256"
        }
      ],
      "name": "getPendingFarmRewards",
      "outputs": [
        {
          "internalType": "uint256",
          "name": "",
          "type": "uint256"
        }
      ],
      "stateMutability": "view",
      "type": "function"
    },
    {
      "inputs": [
        {
          "components": [
            {
              "internalType": "address",
              "name": "router",
              "type": "address"
            },
            {
              "internalType": "address",
              "name": "factory",
              "type": "address"
            },
            {
              "internalType": "address",
              "name": "masterchef",
              "type": "address"
            }
          ],
          "internalType": "struct PancakeSwapExecution.PancakeSwapConfig",
          "name": "self",
          "type": "tuple"
        },
        {
          "internalType": "address",
          "name": "token_address",
          "type": "address"
        },
        {
          "internalType": "address",
          "name": "USDT_address",
          "type": "address"
        }
      ],
      "name": "getTokenPriceUSD",
      "outputs": [
        {
          "internalType": "uint256",
          "name": "",
          "type": "uint256"
        }
      ],
      "stateMutability": "view",
      "type": "function"
    },
    {
      "inputs": [
        {
          "components": [
            {
              "internalType": "address",
              "name": "router",
              "type": "address"
            },
            {
              "internalType": "address",
              "name": "factory",
              "type": "address"
            },
            {
              "internalType": "address",
              "name": "masterchef",
              "type": "address"
            }
          ],
          "internalType": "struct PancakeSwapExecution.PancakeSwapConfig",
          "name": "self",
          "type": "tuple"
        },
        {
          "internalType": "uint256",
          "name": "pool_id",
          "type": "uint256"
        }
      ],
      "name": "getStakedPoolTokens",
      "outputs": [
        {
          "internalType": "uint256",
          "name": "",
          "type": "uint256"
        }
      ],
      "stateMutability": "view",
      "type": "function"
    },
    {
      "inputs": [
        {
          "components": [
            {
              "internalType": "address",
              "name": "router",
              "type": "address"
            },
            {
              "internalType": "address",
              "name": "factory",
              "type": "address"
            },
            {
              "internalType": "address",
              "name": "masterchef",
              "type": "address"
            }
          ],
          "internalType": "struct PancakeSwapExecution.PancakeSwapConfig",
          "name": "self",
          "type": "tuple"
        },
        {
          "internalType": "uint256",
          "name": "pool_id",
          "type": "uint256"
        }
      ],
      "name": "getPendingPoolRewards",
      "outputs": [
        {
          "internalType": "uint256",
          "name": "",
          "type": "uint256"
        }
      ],
      "stateMutability": "view",
      "type": "function"
    },
    {
      "inputs": [
        {
          "internalType": "uint256",
          "name": "token_a_bal",
          "type": "uint256"
        },
        {
          "internalType": "uint256",
          "name": "token_b_bal",
          "type": "uint256"
        },
        {
          "internalType": "uint256",
          "name": "pair_price",
          "type": "uint256"
        },
        {
          "internalType": "uint256",
          "name": "price_decimals",
          "type": "uint256"
        }
      ],
      "name": "splitTokensEvenly",
      "outputs": [
        {
          "internalType": "uint256",
          "name": "",
          "type": "uint256"
        },
        {
          "internalType": "uint256",
          "name": "",
          "type": "uint256"
        }
      ],
      "stateMutability": "pure",
      "type": "function"
    },
    {
      "inputs": [
        {
          "internalType": "address",
          "name": "pair_address",
          "type": "address"
        }
      ],
      "name": "getPairDecimals",
      "outputs": [
        {
          "internalType": "uint256",
          "name": "",
          "type": "uint256"
        }
      ],
      "stateMutability": "pure",
      "type": "function"
    }
  ],
  "bytecode": "0x6125b461003a600b82828239805160001a60731461002d57634e487b7160e01b600052600060045260246000fd5b30600052607381538281f3fe73000000000000000000000000000000000000000030146080604052600436106101695760003560e01c806303396af41461016e57806303677d631461019b57806307248d71146101cb5780630afe4bf7146101ec57806326dd292a146101ff5780632ddeffe01461021f578063331cfc2d1461024157806339369b5c146101cb5780633e99c1e4146102625780636bd5e162146102a157806372f669fd146101ec57806377648166146102c15780637814d5c0146102d45780637d3052c11461019b5780638211dc4c146102f4578063870906e8146103075780639544969d1461031a578063a832544114610357578063b8b542c514610307578063b8d954c11461036a578063bc91773e1461037d578063ccd954881461039d578063d1909ee6146101ff578063d2258beb146103bd578063dd1d2de5146103d0578063e436869f146101ec578063eb9c104f146103f0578063f8ba032b14610411578063fb067e1514610424575b600080fd5b61018161017c366004611d0b565b610444565b604080519283526020830191909152015b60405180910390f35b8180156101a757600080fd5b506101bb6101b6366004611df5565b6105ff565b6040519015158152602001610192565b6101de6101d9366004611e29565b610672565b604051908152602001610192565b6101de6101fa366004611e73565b6108b3565b81801561020b57600080fd5b506101bb61021a366004611df5565b610940565b81801561022b57600080fd5b5061023f61023a366004611e9e565b61097b565b005b61025461024f366004611f03565b610a90565b604051610192929190611f7c565b610275610270366004611f03565b610b98565b604080516001600160701b03948516815293909216602084015263ffffffff1690820152606001610192565b8180156102ad57600080fd5b506101de6102bc366004611fa1565b610c1b565b6101816102cf366004611ffb565b611017565b6102e76102e2366004611e29565b611099565b604051610192919061202d565b6101de610302366004612041565b611126565b6101de610315366004611e73565b611155565b61032d610328366004611e73565b6111e5565b604080516001600160a01b0390951685526020850193909352918301526060820152608001610192565b6101de610365366004611f03565b61127d565b6101de610378366004611f03565b6112f9565b81801561038957600080fd5b506101bb61039836600461207a565b6113a3565b8180156103a957600080fd5b506101de6103b8366004611fa1565b611431565b6101de6103cb366004611f03565b611781565b8180156103dc57600080fd5b506101bb6103eb366004611f03565b611800565b6104036103fe366004611f03565b6118a2565b6040516101929291906120bb565b61018161041f3660046120d5565b611990565b81801561043057600080fd5b5061023f61043f3660046120fa565b611ad9565b6000806000836001600160a01b0316630dfe16816040518163ffffffff1660e01b815260040160206040518083038186803b15801561048257600080fd5b505afa158015610496573d6000803e3d6000fd5b505050506040513d601f19601f820116820180604052508101906104ba9190612172565b90506000846001600160a01b031663d21220a76040518163ffffffff1660e01b815260040160206040518083038186803b1580156104f757600080fd5b505afa15801561050b573d6000803e3d6000fd5b505050506040513d601f19601f8201168201806040525081019061052f9190612172565b9050816001600160a01b0316896001600160a01b03161480156105635750806001600160a01b0316886001600160a01b0316145b156105755786869350935050506105f5565b816001600160a01b0316886001600160a01b03161480156105a75750806001600160a01b0316896001600160a01b0316145b156105b95785879350935050506105f5565b60405162461bcd60e51b815260206004820152600c60248201526b2737903a3434b9903830b4b960a11b60448201526064015b60405180910390fd5b9550959350505050565b6040808401519051631c57762b60e31b815260048101849052602481018390526000916001600160a01b03169063e2bbb158906044015b600060405180830381600087803b15801561065057600080fd5b505af1158015610664573d6000803e3d6000fd5b506001979650505050505050565b600080836001600160a01b031663313ce5676040518163ffffffff1660e01b815260040160206040518083038186803b1580156106ae57600080fd5b505afa1580156106c2573d6000803e3d6000fd5b505050506040513d601f19601f820116820180604052508101906106e6919061218f565b60ff169050600061070260016106fd84600a6122ac565b611c0c565b9050600086602001516001600160a01b031663e6a4390587876040518363ffffffff1660e01b81526004016107389291906120bb565b60206040518083038186803b15801561075057600080fd5b505afa158015610764573d6000803e3d6000fd5b505050506040513d601f19601f820116820180604052508101906107889190612172565b90506000806000836001600160a01b0316630902f1ac6040518163ffffffff1660e01b815260040160606040518083038186803b1580156107c857600080fd5b505afa1580156107dc573d6000803e3d6000fd5b505050506040513d601f19601f8201168201806040525081019061080091906122d4565b63ffffffff1692506001600160701b031692506001600160701b0316925060008a600001516001600160a01b031663054d50d48786866040518463ffffffff1660e01b815260040161085493929190612319565b60206040518083038186803b15801561086c57600080fd5b505afa158015610880573d6000803e3d6000fd5b505050506040513d601f19601f820116820180604052508101906108a4919061232f565b9b9a5050505050505050505050565b600082604001516001600160a01b0316631175a1dd83306040518363ffffffff1660e01b81526004016108e7929190612348565b60206040518083038186803b1580156108ff57600080fd5b505afa158015610913573d6000803e3d6000fd5b505050506040513d601f19601f82011682018060405250810190610937919061232f565b90505b92915050565b6040808401519051630441a3e760e41b815260048101849052602481018390526000916001600160a01b03169063441a3e7090604401610636565b855160405163095ea7b360e01b81526001600160a01b0387169163095ea7b3916109aa9190879060040161235f565b602060405180830381600087803b1580156109c457600080fd5b505af11580156109d8573d6000803e3d6000fd5b505050506040513d601f19601f820116820180604052508101906109fc9190612378565b508551604051629d473b60e21b81526001600160a01b03909116906302751cec90610a359087908790879087903090429060040161239a565b6040805180830381600087803b158015610a4e57600080fd5b505af1158015610a62573d6000803e3d6000fd5b505050506040513d601f19601f82011682018060405250810190610a8691906123d5565b5050505050505050565b606080600080610a9f856118a2565b91509150816001600160a01b03166395d89b416040518163ffffffff1660e01b815260040160006040518083038186803b158015610adc57600080fd5b505afa158015610af0573d6000803e3d6000fd5b505050506040513d6000823e601f3d908101601f19168201604052610b1891908101906123f9565b816001600160a01b03166395d89b416040518163ffffffff1660e01b815260040160006040518083038186803b158015610b5157600080fd5b505afa158015610b65573d6000803e3d6000fd5b505050506040513d6000823e601f3d908101601f19168201604052610b8d91908101906123f9565b935093505050915091565b6000806000836001600160a01b0316630902f1ac6040518163ffffffff1660e01b815260040160606040518083038186803b158015610bd657600080fd5b505afa158015610bea573d6000803e3d6000fd5b505050506040513d601f19601f82011682018060405250810190610c0e91906122d4565b9250925092509193909250565b845160405163095ea7b360e01b81526000916001600160a01b0387169163095ea7b391610c4c91879060040161235f565b602060405180830381600087803b158015610c6657600080fd5b505af1158015610c7a573d6000803e3d6000fd5b505050506040513d601f19601f82011682018060405250810190610c9e9190612378565b50855160405163095ea7b360e01b81526001600160a01b0386169163095ea7b391610cce9190869060040161235f565b602060405180830381600087803b158015610ce857600080fd5b505af1158015610cfc573d6000803e3d6000fd5b505050506040513d601f19601f82011682018060405250810190610d209190612378565b50602086015160405163e6a4390560e01b81526000916001600160a01b03169063e6a4390590610d5690899089906004016120bb565b60206040518083038186803b158015610d6e57600080fd5b505afa158015610d82573d6000803e3d6000fd5b505050506040513d601f19601f82011682018060405250810190610da69190612172565b90506000806000836001600160a01b0316630902f1ac6040518163ffffffff1660e01b815260040160606040518083038186803b158015610de657600080fd5b505afa158015610dfa573d6000803e3d6000fd5b505050506040513d601f19601f82011682018060405250810190610e1e91906122d4565b63ffffffff1692506001600160701b031692506001600160701b0316925060008a600001516001600160a01b031663ad615dec8986866040518463ffffffff1660e01b8152600401610e7293929190612319565b60206040518083038186803b158015610e8a57600080fd5b505afa158015610e9e573d6000803e3d6000fd5b505050506040513d601f19601f82011682018060405250810190610ec2919061232f565b905060008b600001516001600160a01b031663ad615dec8986886040518463ffffffff1660e01b8152600401610efa93929190612319565b60206040518083038186803b158015610f1257600080fd5b505afa158015610f26573d6000803e3d6000fd5b505050506040513d601f19601f82011682018060405250810190610f4a919061232f565b8c5160405162e8e33760e81b81526001600160a01b038e811660048301528d81166024830152604482018d9052606482018c90526084820186905260a482018490523060c48301524260e48301529293506000928392839291169063e8e337009061010401606060405180830381600087803b158015610fc957600080fd5b505af1158015610fdd573d6000803e3d6000fd5b505050506040513d601f19601f8201168201806040525081019061100191906124a5565b9b50505050505050505050505095945050505050565b6000808061102b60016106fd86600a6122ac565b9050600061104261103c8884611c0c565b87611c8b565b905060006110596110538a85611c0c565b88611c8b565b905081891115611070575092508591506110909050565b80881115611085578894509250611090915050565b600080945094505050505b94509492505050565b602083015160405163e6a4390560e01b81526000916001600160a01b03169063e6a43905906110ce90869086906004016120bb565b60206040518083038186803b1580156110e657600080fd5b505afa1580156110fa573d6000803e3d6000fd5b505050506040513d601f19601f8201168201806040525081019061111e9190612172565b949350505050565b6040516370a0823160e01b81526000906001600160a01b038316906370a08231906108e790869060040161202d565b600080600084604001516001600160a01b03166393f1a40b85306040518363ffffffff1660e01b815260040161118c929190612348565b604080518083038186803b1580156111a357600080fd5b505afa1580156111b7573d6000803e3d6000fd5b505050506040513d601f19601f820116820180604052508101906111db91906123d5565b5095945050505050565b60008060008085604001516001600160a01b0316631526fe27866040518263ffffffff1660e01b815260040161121d91815260200190565b60806040518083038186803b15801561123557600080fd5b505afa158015611249573d6000803e3d6000fd5b505050506040513d601f19601f8201168201806040525081019061126d91906124d3565b9299919850965090945092505050565b6000816001600160a01b031663313ce5676040518163ffffffff1660e01b815260040160206040518083038186803b1580156112b857600080fd5b505afa1580156112cc573d6000803e3d6000fd5b505050506040513d601f19601f820116820180604052508101906112f0919061218f565b60ff1692915050565b600080600080846001600160a01b0316630902f1ac6040518163ffffffff1660e01b815260040160606040518083038186803b15801561133857600080fd5b505afa15801561134c573d6000803e3d6000fd5b505050506040513d601f19601f8201168201806040525081019061137091906122d4565b63ffffffff1692506001600160701b031692506001600160701b03169250818361139a9190612512565b95945050505050565b60405163095ea7b360e01b81526000906001600160a01b0385169063095ea7b3906113d4908690869060040161235f565b602060405180830381600087803b1580156113ee57600080fd5b505af1158015611402573d6000803e3d6000fd5b505050506040513d601f19601f820116820180604052508101906114269190612378565b506001949350505050565b845160405163095ea7b360e01b81526000916001600160a01b0387169163095ea7b39161146291879060040161235f565b602060405180830381600087803b15801561147c57600080fd5b505af1158015611490573d6000803e3d6000fd5b505050506040513d601f19601f820116820180604052508101906114b49190612378565b50600080600088602001516001600160a01b031663e6a4390589896040518363ffffffff1660e01b81526004016114ec9291906120bb565b60206040518083038186803b15801561150457600080fd5b505afa158015611518573d6000803e3d6000fd5b505050506040513d601f19601f8201168201806040525081019061153c9190612172565b6001600160a01b0316630902f1ac6040518163ffffffff1660e01b815260040160606040518083038186803b15801561157457600080fd5b505afa158015611588573d6000803e3d6000fd5b505050506040513d601f19601f820116820180604052508101906115ac91906122d4565b63ffffffff1692506001600160701b031692506001600160701b03169250600089600001516001600160a01b031663ad615dec8886866040518463ffffffff1660e01b815260040161160093929190612319565b60206040518083038186803b15801561161857600080fd5b505afa15801561162c573d6000803e3d6000fd5b505050506040513d601f19601f82011682018060405250810190611650919061232f565b905060008a600001516001600160a01b031663ad615dec8886886040518463ffffffff1660e01b815260040161168893929190612319565b60206040518083038186803b1580156116a057600080fd5b505afa1580156116b4573d6000803e3d6000fd5b505050506040513d601f19601f820116820180604052508101906116d8919061232f565b905060008060008d600001516001600160a01b031663f305d7198b8f8e898930426040518863ffffffff1660e01b815260040161171a9695949392919061239a565b6060604051808303818588803b15801561173357600080fd5b505af1158015611747573d6000803e3d6000fd5b50505050506040513d601f19601f8201168201806040525081019061176c91906124a5565b9a505050505050505050505095945050505050565b6040516370a0823160e01b81526000906001600160a01b038316906370a08231906117b090309060040161202d565b60206040518083038186803b1580156117c857600080fd5b505afa1580156117dc573d6000803e3d6000fd5b505050506040513d601f19601f8201168201806040525081019061093a919061232f565b60405163095ea7b360e01b81526000906001600160a01b0383169063095ea7b390611847907373feaa1ee314f8c655e354234017be2193c9e24e906000199060040161235f565b602060405180830381600087803b15801561186157600080fd5b505af1158015611875573d6000803e3d6000fd5b505050506040513d601f19601f820116820180604052508101906118999190612378565b50600192915050565b600080826001600160a01b0316630dfe16816040518163ffffffff1660e01b815260040160206040518083038186803b1580156118de57600080fd5b505afa1580156118f2573d6000803e3d6000fd5b505050506040513d601f19601f820116820180604052508101906119169190612172565b836001600160a01b031663d21220a76040518163ffffffff1660e01b815260040160206040518083038186803b15801561194f57600080fd5b505afa158015611963573d6000803e3d6000fd5b505050506040513d601f19601f820116820180604052508101906119879190612172565b91509150915091565b6000806000806000856001600160a01b0316630902f1ac6040518163ffffffff1660e01b815260040160606040518083038186803b1580156119d157600080fd5b505afa1580156119e5573d6000803e3d6000fd5b505050506040513d601f19601f82011682018060405250810190611a0991906122d4565b63ffffffff1692506001600160701b031692506001600160701b031692506000866001600160a01b03166318160ddd6040518163ffffffff1660e01b815260040160206040518083038186803b158015611a6257600080fd5b505afa158015611a76573d6000803e3d6000fd5b505050506040513d601f19601f82011682018060405250810190611a9a919061232f565b90506000611ab1611aab868b611c0c565b83611c8b565b90506000611ac8611ac2868c611c0c565b84611c8b565b919a91995090975050505050505050565b865160405163095ea7b360e01b81526001600160a01b0388169163095ea7b391611b089190879060040161235f565b602060405180830381600087803b158015611b2257600080fd5b505af1158015611b36573d6000803e3d6000fd5b505050506040513d601f19601f82011682018060405250810190611b5a9190612378565b508651604051635d5155ef60e11b81526001600160a01b03878116600483015286811660248301526044820186905260648201859052608482018490523060a48301524260c48301529091169063baa2abde9060e4016040805180830381600087803b158015611bc957600080fd5b505af1158015611bdd573d6000803e3d6000fd5b505050506040513d601f19601f82011682018060405250810190611c0191906123d5565b505050505050505050565b600082611c1b5750600061093a565b6000611c27838561252a565b905082611c348583612549565b146109375760405162461bcd60e51b815260206004820152602160248201527f536166654d6174683a206d756c7469706c69636174696f6e206f766572666c6f6044820152607760f81b60648201526084016105ec565b600061093783836040518060400160405280601a815260200179536166654d6174683a206469766973696f6e206279207a65726f60301b81525060008183611ce65760405162461bcd60e51b81526004016105ec919061256b565b50600061139a8486612549565b6001600160a01b0381168114611d0857600080fd5b50565b600080600080600060a08688031215611d2357600080fd5b8535611d2e81611cf3565b94506020860135611d3e81611cf3565b935060408601359250606086013591506080860135611d5c81611cf3565b809150509295509295909350565b634e487b7160e01b600052604160045260246000fd5b600060608284031215611d9257600080fd5b604051606081016001600160401b0381118282101715611db457611db4611d6a565b6040529050808235611dc581611cf3565b81526020830135611dd581611cf3565b60208201526040830135611de881611cf3565b6040919091015292915050565b600080600060a08486031215611e0a57600080fd5b611e148585611d80565b95606085013595506080909401359392505050565b600080600060a08486031215611e3e57600080fd5b611e488585611d80565b92506060840135611e5881611cf3565b91506080840135611e6881611cf3565b809150509250925092565b60008060808385031215611e8657600080fd5b611e908484611d80565b946060939093013593505050565b6000806000806000806101008789031215611eb857600080fd5b611ec28888611d80565b95506060870135611ed281611cf3565b94506080870135611ee281611cf3565b9598949750949560a0810135955060c08101359460e0909101359350915050565b600060208284031215611f1557600080fd5b813561093781611cf3565b60005b83811015611f3b578181015183820152602001611f23565b83811115611f4a576000848401525b50505050565b60008151808452611f68816020860160208601611f20565b601f01601f19169290920160200192915050565b604081526000611f8f6040830185611f50565b828103602084015261139a8185611f50565b600080600080600060e08688031215611fb957600080fd5b611fc38787611d80565b94506060860135611fd381611cf3565b93506080860135611fe381611cf3565b9497939650939460a0810135945060c0013592915050565b6000806000806080858703121561201157600080fd5b5050823594602084013594506040840135936060013592509050565b6001600160a01b0391909116815260200190565b6000806040838503121561205457600080fd5b823561205f81611cf3565b9150602083013561206f81611cf3565b809150509250929050565b60008060006060848603121561208f57600080fd5b833561209a81611cf3565b925060208401356120aa81611cf3565b929592945050506040919091013590565b6001600160a01b0392831681529116602082015260400190565b600080604083850312156120e857600080fd5b82359150602083013561206f81611cf3565b6000806000806000806000610120888a03121561211657600080fd5b6121208989611d80565b9650606088013561213081611cf3565b9550608088013561214081611cf3565b945060a088013561215081611cf3565b9699959850939660c08101359560e08201359550610100909101359350915050565b60006020828403121561218457600080fd5b815161093781611cf3565b6000602082840312156121a157600080fd5b815160ff8116811461093757600080fd5b634e487b7160e01b600052601160045260246000fd5b600181815b808511156122035781600019048211156121e9576121e96121b2565b808516156121f657918102915b93841c93908002906121cd565b509250929050565b60008261221a5750600161093a565b816122275750600061093a565b816001811461223d576002811461224757612263565b600191505061093a565b60ff841115612258576122586121b2565b50506001821b61093a565b5060208310610133831016604e8410600b8410161715612286575081810a61093a565b61229083836121c8565b80600019048211156122a4576122a46121b2565b029392505050565b6000610937838361220b565b80516001600160701b03811681146122cf57600080fd5b919050565b6000806000606084860312156122e957600080fd5b6122f2846122b8565b9250612300602085016122b8565b9150604084015163ffffffff81168114611e6857600080fd5b9283526020830191909152604082015260600190565b60006020828403121561234157600080fd5b5051919050565b9182526001600160a01b0316602082015260400190565b6001600160a01b03929092168252602082015260400190565b60006020828403121561238a57600080fd5b8151801515811461093757600080fd5b6001600160a01b039687168152602081019590955260408501939093526060840191909152909216608082015260a081019190915260c00190565b600080604083850312156123e857600080fd5b505080516020909101519092909150565b60006020828403121561240b57600080fd5b81516001600160401b038082111561242257600080fd5b818401915084601f83011261243657600080fd5b81518181111561244857612448611d6a565b604051601f8201601f19908116603f0116810190838211818310171561247057612470611d6a565b8160405282815287602084870101111561248957600080fd5b61249a836020830160208801611f20565b979650505050505050565b6000806000606084860312156124ba57600080fd5b8351925060208401519150604084015190509250925092565b600080600080608085870312156124e957600080fd5b84516124f481611cf3565b60208601516040870151606090970151919890975090945092505050565b60008219821115612525576125256121b2565b500190565b6000816000190483118215151615612544576125446121b2565b500290565b60008261256657634e487b7160e01b600052601260045260246000fd5b500490565b6020815260006109376020830184611f5056fea26469706673582212202a4ca09f30c52e9f7a6870d980d2dce90d1eaec482720d85270a2d05af546fa264736f6c63430008090033",
  "immutableReferences": {},
  "source": "// SPDX-License-Identifier: MIT\npragma solidity ^0.8;\n\nimport \"../token/BEP20/IBEP20.sol\";\nimport \"../math/SafeMath.sol\";\nimport \"../interfaces/pancakeswap/IPancakePair.sol\";\nimport \"../interfaces/pancakeswap/IPancakeFactory.sol\";\nimport \"../interfaces/pancakeswap/MasterChef.sol\";\nimport \"../interfaces/pancakeswap/IPancakeRouter02.sol\";\n\n/// @title PancakeSwap execution\n/// @author Andrew FU\n/// @dev All functions haven't finished unit test\nlibrary PancakeSwapExecution {\n    \n    // Addresss of PancakeSwap.\n    struct PancakeSwapConfig {\n        address router; // Address of PancakeSwap router contract.\n        address factory; // Address of PancakeSwap factory contract.\n        address masterchef; // Address of PancakeSwap masterchef contract.\n    }\n    \n    // Info of each pool.\n    struct PoolInfo {\n        address lpToken;           // Address of LP token contract.\n        uint allocPoint;       // How many allocation points assigned to this pool. CAKEs to distribute per block.\n        uint lastRewardBlock;  // Last block number that CAKEs distribution occurs.\n        uint accCakePerShare; // Accumulated CAKEs per share, times 1e12. See below.\n    }\n    \n    function getBalanceBNB(address wallet_address, address BNB_address) public view returns (uint) {\n        \n        return IBEP20(BNB_address).balanceOf(wallet_address);\n    }\n    \n    function getLPBalance(address lp_token) public view returns (uint) {\n        \n        return IPancakePair(lp_token).balanceOf(address(this));\n    }\n    \n    /// @param lp_token_address PancakeSwap LPtoken address.\n    /// @dev Gets the token0 and token1 addresses from LPtoken.\n    /// @return token0, token1.\n    function getLPTokenAddresses(address lp_token_address) public view returns (address, address) {\n        \n        return (IPancakePair(lp_token_address).token0(), IPancakePair(lp_token_address).token1());\n    }\n    \n    /// @param lp_token_address PancakeSwap LPtoken address.\n    /// @dev Gets the token0 and token1 symbol name from LPtoken.\n    /// @return token0, token1.\n    function getLPTokenSymbols(address lp_token_address) public view returns (string memory, string memory) {\n        (address token0, address token1) = getLPTokenAddresses(lp_token_address);\n        return (IBEP20(token0).symbol(), IBEP20(token1).symbol());\n    }\n    \n    /// @param self config of PancakeSwap.\n    /// @param pool_id Id of the PancakeSwap pool.\n    /// @dev Gets pool info from the masterchef contract and stores results in an array.\n    /// @return pooInfo.\n    function getPoolInfo(PancakeSwapConfig memory self, uint pool_id) public view returns (address, uint256, uint256, uint256) {\n        \n        return MasterChef(self.masterchef).poolInfo(pool_id);\n    }\n    \n    function getReserves(address lp_token_address) public view returns (uint112 reserve0, uint112 reserve1, uint32 blockTimestampLast) {\n        \n        return IPancakePair(lp_token_address).getReserves();\n    }\n\n    /// @param self config of PancakeSwap.\n    /// @param token_a_addr BEP20 token address.\n    /// @param token_b_addr BEP20 token address.\n    /// @dev Returns the LP token address for the token pairs.\n    /// @return pair address.\n    function getPair(PancakeSwapConfig memory self, address token_a_addr, address token_b_addr) public view returns (address) {\n        \n        return IPancakeFactory(self.factory).getPair(token_a_addr, token_b_addr);\n    }\n    \n    /// @dev Will line up our assumption with the contracts.\n    function lineUpPairs(address token_a_address, address token_b_address, uint data_a, uint data_b, address lp_token_address) public view returns (uint, uint) {\n        address contract_token_0_address = IPancakePair(lp_token_address).token0();\n        address contract_token_1_address = IPancakePair(lp_token_address).token1();\n        \n        if (token_a_address == contract_token_0_address && token_b_address == contract_token_1_address) {\n            return (data_a, data_b);\n        } else if (token_b_address == contract_token_0_address && token_a_address == contract_token_1_address) {\n            return (data_b, data_a);\n        } else {\n            revert(\"No this pair\");\n        }\n    }\n    \n    /// @param lp_token_amnt The LP token amount.\n    /// @param lp_token_addr address of the LP token.\n    /// @dev Returns the amount of token0, token1s the specified number of LP token represents.\n    function getLPConstituients(uint lp_token_amnt, address lp_token_addr) public view returns (uint, uint) {\n        (uint reserve0, uint reserve1, uint blockTimestampLast) = IPancakePair(lp_token_addr).getReserves();\n        uint total_supply = IPancakePair(lp_token_addr).totalSupply();\n        \n        uint token_a_amnt = SafeMath.div(SafeMath.mul(reserve0, lp_token_amnt), total_supply);\n        uint token_b_amnt = SafeMath.div(SafeMath.mul(reserve1, lp_token_amnt), total_supply);\n        return (token_a_amnt, token_b_amnt);\n    }\n    \n    /// @param self config of PancakeSwap.\n    function getPendingStakedCake(PancakeSwapConfig memory self, uint pool_id) public view returns (uint) {\n        \n        return MasterChef(self.masterchef).pendingCake(pool_id, address(this));\n    }\n    \n    /// @param self config of PancakeSwap.\n    /// @param token_addr address of the BEP20 token.\n    /// @param token_amnt amount of token to add.\n    /// @param eth_amnt amount of BNB to add.\n    /// @dev Adds a pair of tokens into a liquidity pool.\n    function addLiquidityETH(PancakeSwapConfig memory self, address token_addr, address eth_addr, uint token_amnt, uint eth_amnt) public returns (uint) {\n        IBEP20(token_addr).approve(self.router, token_amnt);\n        (uint reserves0, uint reserves1, uint blockTimestampLast) = IPancakePair(IPancakeFactory(self.factory).getPair(token_addr, eth_addr)).getReserves();\n        \n        uint min_token_amnt = IPancakeRouter02(self.router).quote(token_amnt, reserves0, reserves1);\n        uint min_eth_amnt = IPancakeRouter02(self.router).quote(eth_amnt, reserves1, reserves0);\n        (uint amountToken, uint amountETH, uint amountLP) = IPancakeRouter02(self.router).addLiquidityETH{value: eth_amnt}(token_addr, token_amnt, min_token_amnt, min_eth_amnt, address(this), block.timestamp);\n        \n        return amountLP;\n    }\n    \n    /// @param self config of PancakeSwap.\n    /// @param token_a_addr address of the BEP20 token.\n    /// @param token_b_addr address of the BEP20 token.\n    /// @param a_amnt amount of token a to add.\n    /// @param b_amnt amount of token b to add.\n    /// @dev Adds a pair of tokens into a liquidity pool.\n    function addLiquidity(PancakeSwapConfig memory self, address token_a_addr, address token_b_addr, uint a_amnt, uint b_amnt) public returns (uint){\n        \n        IBEP20(token_a_addr).approve(self.router, a_amnt);\n        IBEP20(token_b_addr).approve(self.router, b_amnt);\n        address pair = IPancakeFactory(self.factory).getPair(token_a_addr, token_b_addr);\n        (uint reserves0, uint reserves1, uint blockTimestampLast) = IPancakePair(pair).getReserves();\n    \n        uint min_a_amnt = IPancakeRouter02(self.router).quote(a_amnt, reserves0, reserves1);\n        uint min_b_amnt = IPancakeRouter02(self.router).quote(b_amnt, reserves1, reserves0);\n        (uint amountA, uint amountB, uint amountLP) = IPancakeRouter02(self.router).addLiquidity(token_a_addr, token_b_addr, a_amnt, b_amnt, min_a_amnt, min_b_amnt, address(this), block.timestamp);\n        \n        return amountLP;\n    }\n    \n    /// @param self config of PancakeSwap.\n    /// @param lp_contract_addr address of the BEP20 token.\n    /// @param token_a_addr address of the BEP20 token.\n    /// @param token_b_addr address of the BEP20 token.\n    /// @param liquidity amount of LP tokens to be removed.\n    /// @param a_amnt amount of token a to remove.\n    /// @param b_amnt amount of token b to remove.\n    /// @dev Removes a pair of tokens from a liquidity pool.\n    function removeLiquidity(PancakeSwapConfig memory self, address lp_contract_addr, address token_a_addr, address token_b_addr, uint liquidity, uint a_amnt, uint b_amnt) public {\n        \n        IBEP20(lp_contract_addr).approve(self.router, liquidity);\n        IPancakeRouter02(self.router).removeLiquidity(token_a_addr, token_b_addr, liquidity, a_amnt, b_amnt, address(this), block.timestamp);\n    }\n    \n    /// @param self config of PancakeSwap.\n    /// @param lp_contract_addr address of the BEP20 token.\n    /// @param token_addr address of the BEP20 token.\n    /// @param liquidity amount of LP tokens to be removed.\n    /// @param a_amnt amount of token a to remove.\n    /// @param b_amnt amount of BNB to remove.\n    /// @dev Removes a pair of tokens from a liquidity pool.\n    function removeLiquidityETH(PancakeSwapConfig memory self, address lp_contract_addr, address token_addr, uint liquidity, uint a_amnt, uint b_amnt) public {\n        \n        IBEP20(lp_contract_addr).approve(self.router, liquidity);\n        IPancakeRouter02(self.router).removeLiquidityETH(token_addr, liquidity, a_amnt, b_amnt, address(this), block.timestamp);\n    }\n    \n    /// @param self config of PancakeSwap.\n    function getAmountsOut(PancakeSwapConfig memory self, address token_a_address, address token_b_address) public view returns (uint) {\n        uint token_a_decimals = IBEP20(token_a_address).decimals();\n        uint min_amountIn = SafeMath.mul(1, 10**token_a_decimals);\n        address pair = IPancakeFactory(self.factory).getPair(token_a_address, token_b_address);\n        (uint reserve0, uint reserve1, uint blockTimestampLast) = IPancakePair(pair).getReserves();\n        uint price = IPancakeRouter02(self.router).getAmountOut(min_amountIn, reserve0, reserve1);\n        \n        return price;\n    }\n    \n    /// @param lp_token_address address of the LP token.\n    /// @dev Gets the current price for a pair.\n    function getPairPrice(address lp_token_address) public view returns (uint) {\n        (uint reserve0, uint reserve1, uint blockTimestampLast) = IPancakePair(lp_token_address).getReserves();\n        return reserve0 + reserve1;\n    }\n    \n    /// @param self config of PancakeSwap.\n    /// @param pool_id Id of the PancakeSwap pool.\n    /// @dev Gets the current number of LP tokens staked in the pool.\n    function getStakedLP(PancakeSwapConfig memory self, uint pool_id) public view returns (uint) {\n        (uint amount, uint rewardDebt) = MasterChef(self.masterchef).userInfo(pool_id, address(this));\n        return amount;\n    }\n\n    /// @param self config of PancakeSwap.\n    /// @param pool_id Id of the PancakeSwap pool.\n    /// @dev Gets the pending CAKE amount for a partictular pool_id.\n    function getPendingFarmRewards(PancakeSwapConfig memory self, uint pool_id) public view returns (uint) {\n        \n        return MasterChef(self.masterchef).pendingCake(pool_id, address(this));\n    }\n    \n    /// @param self config of PancakeSwap.\n    /// @param pool_id Id of the PancakeSwap pool.\n    /// @param unstake_amount amount of LP tokens to unstake.\n    /// @dev Removes 'unstake_amount' of LP tokens from 'pool_id'.\n    function unstakeLP(PancakeSwapConfig memory self, uint pool_id, uint unstake_amount) public returns (bool) {\n        MasterChef(self.masterchef).withdraw(pool_id, unstake_amount);\n        return true;\n    }\n    \n    /// @param self config of PancakeSwap.\n    /// @param token_address address of BEP20 token.\n    /// @param USDT_address address of USDT token.\n    /// @dev Returns the USD price for a particular BEP20 token.\n    function getTokenPriceUSD(PancakeSwapConfig memory self, address token_address, address USDT_address) public view returns (uint) {\n        uint token_decimals = IBEP20(token_address).decimals();\n        uint min_amountIn = SafeMath.mul(1, 10**token_decimals);\n        address pair = IPancakeFactory(self.factory).getPair(token_address, USDT_address);\n        (uint reserve0, uint reserve1, uint blockTimestampLast) = IPancakePair(pair).getReserves();\n        uint price = IPancakeRouter02(self.router).getAmountOut(min_amountIn, reserve0, reserve1);\n        return price;\n    }\n    \n    /// @param self config of PancakeSwap.\n    /// @param pool_id Id of the PancakeSwap pool.\n    /// @param stake_amount amount of LP tokens to stake.\n    /// @dev Gets pending reward for the user from the specific pool_id.\n    function stakeLP(PancakeSwapConfig memory self, uint pool_id, uint stake_amount) public returns (bool) {\n        MasterChef(self.masterchef).deposit(pool_id, stake_amount);\n        return true;\n    }\n    \n    /// @param token_addr address of BEP20 token.\n    /// @param stake_contract_addr address of PancakeSwap masterchef.\n    /// @param amount amount of CAKE tokens to stake.\n    /// @dev Enables a syrup staking pool on PancakeSwap.\n    function enablePool(address token_addr, address stake_contract_addr, uint amount) public returns (bool) {\n        IBEP20(token_addr).approve(stake_contract_addr, amount);\n        return true;\n    }\n    \n    /// @param lp_token_address address of PancakeSwap LPtoken.\n    /// @dev Enables a syrup staking pool on PancakeSwap.\n    function enableFarm(address lp_token_address) public returns (bool) {\n        IBEP20(lp_token_address).approve(0x73feaa1eE314F8c655E354234017bE2193C9E24E, 0xffffffffffffffffffffffffffffffffffffffffffffffffffffffffffffffff);\n        return true;\n    }\n    \n    /// @param self config of PancakeSwap.\n    /// @param pool_id Id of the PancakeSwap pool.\n    /// @dev Get the number of tokens staked into the pool.\n    function getStakedPoolTokens(PancakeSwapConfig memory self, uint pool_id) public view returns (uint) {\n        (uint amount, uint rewardDebt) = MasterChef(self.masterchef).userInfo(pool_id, address(this));\n        return amount;\n    }\n    \n    /// @param self config of PancakeSwap.\n    /// @param pool_id Id of the PancakeSwap pool.\n    /// @dev Gets pending reward for the syrup pool.\n    function getPendingPoolRewards(PancakeSwapConfig memory self, uint pool_id) public view returns (uint) {\n        \n        return MasterChef(self.masterchef).pendingCake(pool_id, address(this));\n    }\n    \n    /// @param self config of PancakeSwap.\n    /// @param pool_id Id of the PancakeSwap pool.\n    /// @param stake_amount amount of CAKE tokens to stake.\n    /// @dev Adds 'stake_amount' of coins into the syrup pools.\n    function stakePool(PancakeSwapConfig memory self, uint pool_id, uint stake_amount) public returns (bool) {\n        MasterChef(self.masterchef).deposit(pool_id, stake_amount);\n        return true;\n    }\n    \n    /// @param self config of PancakeSwap.\n    /// @param pool_id Id of the PancakeSwap pool.\n    /// @param unstake_amount amount of CAKE tokens to unstake.\n    /// @dev Removes 'unstake_amount' of coins into the syrup pools.\n    function unstakePool(PancakeSwapConfig memory self, uint pool_id, uint unstake_amount) public returns (bool) {\n        MasterChef(self.masterchef).withdraw(pool_id, unstake_amount);\n        return true;\n    }\n\n    function splitTokensEvenly(uint token_a_bal, uint token_b_bal, uint pair_price, uint price_decimals) public pure returns (uint, uint) {\n        uint temp = SafeMath.mul(1, 10**price_decimals);\n        uint a_amount_required = SafeMath.div(SafeMath.mul(token_b_bal, temp), pair_price);\n        uint b_amount_required = SafeMath.div(SafeMath.mul(token_a_bal, temp), pair_price);\n        if (token_a_bal > a_amount_required) {\n            return (a_amount_required, token_b_bal);\n        } else if (token_b_bal > b_amount_required) {\n            return (token_a_bal, b_amount_required);\n        } else {\n            return (0, 0);\n        }\n    }\n\n    function getPairDecimals(address pair_address) public pure returns (uint) {\n        \n        return IPancakePair(pair_address).decimals();\n    }\n    \n}",
  "sourcePath": "/Users/andrew/Documents/Bitbucket/dofin-smart-contracts/contracts/libs/PancakeSwapExecution.sol",
  "compiler": {
    "name": "solc",
    "version": "0.8.9+commit.e5eed63a.Emscripten.clang"
  },
  "schemaVersion": "3.4.3",
  "updatedAt": "2021-10-12T05:31:09.730Z",
  "devdoc": {
    "author": "Andrew FU",
    "details": "All functions haven't finished unit test",
    "kind": "dev",
    "methods": {
      "addLiquidity(PancakeSwapExecution.PancakeSwapConfig,address,address,uint256,uint256)": {
        "details": "Adds a pair of tokens into a liquidity pool.",
        "params": {
          "a_amnt": "amount of token a to add.",
          "b_amnt": "amount of token b to add.",
          "self": "config of PancakeSwap.",
          "token_a_addr": "address of the BEP20 token.",
          "token_b_addr": "address of the BEP20 token."
        }
      },
      "addLiquidityETH(PancakeSwapExecution.PancakeSwapConfig,address,address,uint256,uint256)": {
        "details": "Adds a pair of tokens into a liquidity pool.",
        "params": {
          "eth_amnt": "amount of BNB to add.",
          "self": "config of PancakeSwap.",
          "token_addr": "address of the BEP20 token.",
          "token_amnt": "amount of token to add."
        }
      },
      "enableFarm(address)": {
        "details": "Enables a syrup staking pool on PancakeSwap.",
        "params": {
          "lp_token_address": "address of PancakeSwap LPtoken."
        }
      },
      "enablePool(address,address,uint256)": {
        "details": "Enables a syrup staking pool on PancakeSwap.",
        "params": {
          "amount": "amount of CAKE tokens to stake.",
          "stake_contract_addr": "address of PancakeSwap masterchef.",
          "token_addr": "address of BEP20 token."
        }
      },
      "getAmountsOut(PancakeSwapExecution.PancakeSwapConfig,address,address)": {
        "params": {
          "self": "config of PancakeSwap."
        }
      },
      "getLPConstituients(uint256,address)": {
        "details": "Returns the amount of token0, token1s the specified number of LP token represents.",
        "params": {
          "lp_token_addr": "address of the LP token.",
          "lp_token_amnt": "The LP token amount."
        }
      },
      "getLPTokenAddresses(address)": {
        "details": "Gets the token0 and token1 addresses from LPtoken.",
        "params": {
          "lp_token_address": "PancakeSwap LPtoken address."
        },
        "returns": {
          "_0": "token0, token1."
        }
      },
      "getLPTokenSymbols(address)": {
        "details": "Gets the token0 and token1 symbol name from LPtoken.",
        "params": {
          "lp_token_address": "PancakeSwap LPtoken address."
        },
        "returns": {
          "_0": "token0, token1."
        }
      },
      "getPair(PancakeSwapExecution.PancakeSwapConfig,address,address)": {
        "details": "Returns the LP token address for the token pairs.",
        "params": {
          "self": "config of PancakeSwap.",
          "token_a_addr": "BEP20 token address.",
          "token_b_addr": "BEP20 token address."
        },
        "returns": {
          "_0": "pair address."
        }
      },
      "getPairPrice(address)": {
        "details": "Gets the current price for a pair.",
        "params": {
          "lp_token_address": "address of the LP token."
        }
      },
      "getPendingFarmRewards(PancakeSwapExecution.PancakeSwapConfig,uint256)": {
        "details": "Gets the pending CAKE amount for a partictular pool_id.",
        "params": {
          "pool_id": "Id of the PancakeSwap pool.",
          "self": "config of PancakeSwap."
        }
      },
      "getPendingPoolRewards(PancakeSwapExecution.PancakeSwapConfig,uint256)": {
        "details": "Gets pending reward for the syrup pool.",
        "params": {
          "pool_id": "Id of the PancakeSwap pool.",
          "self": "config of PancakeSwap."
        }
      },
      "getPendingStakedCake(PancakeSwapExecution.PancakeSwapConfig,uint256)": {
        "params": {
          "self": "config of PancakeSwap."
        }
      },
      "getPoolInfo(PancakeSwapExecution.PancakeSwapConfig,uint256)": {
        "details": "Gets pool info from the masterchef contract and stores results in an array.",
        "params": {
          "pool_id": "Id of the PancakeSwap pool.",
          "self": "config of PancakeSwap."
        },
        "returns": {
          "_0": "pooInfo."
        }
      },
      "getStakedLP(PancakeSwapExecution.PancakeSwapConfig,uint256)": {
        "details": "Gets the current number of LP tokens staked in the pool.",
        "params": {
          "pool_id": "Id of the PancakeSwap pool.",
          "self": "config of PancakeSwap."
        }
      },
      "getStakedPoolTokens(PancakeSwapExecution.PancakeSwapConfig,uint256)": {
        "details": "Get the number of tokens staked into the pool.",
        "params": {
          "pool_id": "Id of the PancakeSwap pool.",
          "self": "config of PancakeSwap."
        }
      },
      "getTokenPriceUSD(PancakeSwapExecution.PancakeSwapConfig,address,address)": {
        "details": "Returns the USD price for a particular BEP20 token.",
        "params": {
          "USDT_address": "address of USDT token.",
          "self": "config of PancakeSwap.",
          "token_address": "address of BEP20 token."
        }
      },
      "lineUpPairs(address,address,uint256,uint256,address)": {
        "details": "Will line up our assumption with the contracts."
      },
      "removeLiquidity(PancakeSwapExecution.PancakeSwapConfig,address,address,address,uint256,uint256,uint256)": {
        "details": "Removes a pair of tokens from a liquidity pool.",
        "params": {
          "a_amnt": "amount of token a to remove.",
          "b_amnt": "amount of token b to remove.",
          "liquidity": "amount of LP tokens to be removed.",
          "lp_contract_addr": "address of the BEP20 token.",
          "self": "config of PancakeSwap.",
          "token_a_addr": "address of the BEP20 token.",
          "token_b_addr": "address of the BEP20 token."
        }
      },
      "removeLiquidityETH(PancakeSwapExecution.PancakeSwapConfig,address,address,uint256,uint256,uint256)": {
        "details": "Removes a pair of tokens from a liquidity pool.",
        "params": {
          "a_amnt": "amount of token a to remove.",
          "b_amnt": "amount of BNB to remove.",
          "liquidity": "amount of LP tokens to be removed.",
          "lp_contract_addr": "address of the BEP20 token.",
          "self": "config of PancakeSwap.",
          "token_addr": "address of the BEP20 token."
        }
      },
      "stakeLP(PancakeSwapExecution.PancakeSwapConfig,uint256,uint256)": {
        "details": "Gets pending reward for the user from the specific pool_id.",
        "params": {
          "pool_id": "Id of the PancakeSwap pool.",
          "self": "config of PancakeSwap.",
          "stake_amount": "amount of LP tokens to stake."
        }
      },
      "stakePool(PancakeSwapExecution.PancakeSwapConfig,uint256,uint256)": {
        "details": "Adds 'stake_amount' of coins into the syrup pools.",
        "params": {
          "pool_id": "Id of the PancakeSwap pool.",
          "self": "config of PancakeSwap.",
          "stake_amount": "amount of CAKE tokens to stake."
        }
      },
      "unstakeLP(PancakeSwapExecution.PancakeSwapConfig,uint256,uint256)": {
        "details": "Removes 'unstake_amount' of LP tokens from 'pool_id'.",
        "params": {
          "pool_id": "Id of the PancakeSwap pool.",
          "self": "config of PancakeSwap.",
          "unstake_amount": "amount of LP tokens to unstake."
        }
      },
      "unstakePool(PancakeSwapExecution.PancakeSwapConfig,uint256,uint256)": {
        "details": "Removes 'unstake_amount' of coins into the syrup pools.",
        "params": {
          "pool_id": "Id of the PancakeSwap pool.",
          "self": "config of PancakeSwap.",
          "unstake_amount": "amount of CAKE tokens to unstake."
        }
      }
    },
    "title": "PancakeSwap execution",
    "version": 1
  },
  "userdoc": {
    "kind": "user",
    "methods": {},
    "version": 1
  }
}